S00B00007372632E73726563D1
S11300000C94A6000C94CE000C94CE000C94CE005C
S11300100C94CE000C94CE000C94CE000C94CE0024
S11300200C94CE000C94CE000C94CE000C94CE0014
S11300300C94CE000C94CE000C94CE000C94CE0004
S11300400C94BB0C0C94CE000C94C5090C94F709C9
S11300500C94CE000C94CE000C94CE000C94CE00E4
S11300600C94D6110C94CE007365742063616C6992
S113007062726174696F6E00726573657420616C7D
S113008061726D005556205741524E204C494D49DE
S11300905420726561646261636B3A200055562096
S11300A05741524E204C494D49543A20004F562056
S11300B05741524E204C494D495420726561646247
S11300C061636B3A20004F56205741524E204C49F1
S11300D04D49543A20004F43205741524E204C4939
S11300E04D495420726561646261636B3A20004F2C
S11300F043205741524E204C494D49543A20000068
S113010000000800020100000304070000000000D2
S113011000000001020408102040800102040810BD
S1130120200102040810200404040404040404024A
S1130130020202020203030303030300000000257A
S11301400028002B00003D05270A340F11241FBE90
S1130150CFEFD8E0DEBFCDBF12E0A0E0B1E0EEE625
S1130160F6E202C005900D92A035B107D9F724E05C
S1130170A0E5B2E001C01D92A73EB207E1F710E08E
S1130180C6EAD0E004C02197FE010E942F13C33AAF
S1130190D107C9F70E94550A0C9435130C9400003A
S11301A0CF93DF93CDB7DEB7DC016C9312965C93EB
S11301B04E93119714963C932E9313972CE0FE01C3
S11301C03596159601900D922A95E1F72AE0FC01E7
S11301D07196DF01322F1D923A95E9F7DC015B96A7
S11301E01C925B975C962C935C975D961C925D9732
S11301F05E961C925E975F961C92DF91CF91089554
S1130200CF93C62FFC0160818DE194E00E94AD0E76
S11302106C2F8DE194E00E94580E8DE194E0CF9113
S11302200C94310FCF93DF93EC0168E770E087E71C
S113023093E00E94D40A63E0CE01DF91CF910C9445
S11302400001CF93DF93EC0165E271E087E793E06F
S11302500E94E60A62E1CE01DF91CF910C94000185
S11302601F93CF93DF93FC01EB01142F9A859330F6
S113027018F060E371E004C091110FC066E971E009
S113028087E793E00E94E60A65E771E087E793E079
S1130290DF91CF911F910C94E60A60818DE194E087
S11302A00E94AD0E612F8DE194E00E94580E68818A
S11302B08DE194E00E94580E8A85823029F4698188
S11302C08DE194E00E94580E8DE194E0DF91CF918E
S11302D01F910C94310FEF92FF920F931F93CF93C2
S11302E0DF93EC017B01022F8FE0FE0111928A95CE
S11302F0E9F78AE08B87642FC7010E940001402F31
S1130300F70160818DE194E00E942E0F8DE194E06D
S11303100E94C90D892B79F01A858DE194E00E9421
S1130320D10DFE01E10FF11D80831F5F1A871A3082
S113033068F381E08C878A85801718F481E08D87C3
S113034004C0081710F481E08E87CE01DF91CF91AD
S11303501F910F91FF90EF900895EF92FF920F93EA
S11303601F93CF93DF93CDB7DEB72F970FB6F894D3
S1130370DEBF0FBECDBF8B01FB012285BC01CE01C8
S113038001967C010E946B01F801628570E0A8016E
S1130390D701C8019D012E193F092617370740F4DC
S11303A0FC013191CF012D913217A1F381E00AC0F4
S11303B0600F711F4617570721F0FA011192AF0120
S11303C0F9CF80E02F960FB6F894DEBF0FBECDBFF5
S11303D0DF91CF911F910F91FF90EF900895EF92CD
S11303E0FF920F931F93CF93DF93CDB7DEB72F9771
S11303F00FB6F894DEBF0FBECDBF7C018E010F5F38
S11304001F4F8FE0F80111928A95E9F78AE08C87F3
S113041069837A8382E08B8740EDB801C7010E942B
S1130420300140EDB801C7010E94AD0190E02F9664
S11304300FB6F894DEBF0FBECDBFDF91CF911F91F1
S11304400F91FF90EF900895CF92DF92EF92FF9279
S11304500F931F93CF93DF93CDB7DEB72F970FB6CC
S1130460F894DEBF0FBECDBF7C016B0168E670E07F
S113047087E793E00E94D40A8E010F5F1F4F8FE03D
S1130480F80111928A95E9F78AE08C87C982DA82A9
S113049082E08B8744EDB801C7010E94300144ED2E
S11304A0B801C7010E94AD0190E02F960FB6F894F1
S11304B0DEBF0FBECDBFDF91CF911F910F91FF9093
S11304C0EF90DF90CF9008954F925F926F927F925A
S11304D0AF92BF92CF92DF92EF92FF920F931F934E
S11304E0CF93DF93CDB7DEB7AE970FB6F894DEBFE8
S11304F00FBECDBF5C01CF8ED8A2E9A2FAA20BA396
S11305001CA32DA33EA34FA358A769A77AA7CF8CFA
S1130510D8A0E9A0FAA08BA19CA1ADA1BEA18BA7F4
S11305209CA7ADA7BEA74FA058A469A47AA462EB68
S113053071E087E793E00E94E60A20E030E0A90139
S1130540C701B6010E94EB0718160CF051C0D50183
S113055011966D917C91129780E090E00E945D0766
S1130560A70196010E94F0076B017C0120E030E0B6
S1130570A9010E94EB0720E030E040E05FE387FD43
S113058005C0C701B6010E94490604C0C701B601EF
S11305900E9448060E9427078B017E01B0E1EB0E02
S11305A0F11C8FE0F70111928A95E9F78AE08B8FAD
S11305B0088B198B82E08A8F6FEE70E087E793E0F7
S11305C00E94D40A4AE050E0B80187E793E00E9411
S11305D05B0B4AE4B701C5010E94300122E04AE402
S11305E0B501CE0101960E946B0166ED70E0AFC0CB
S11305F020E030E0A9016BA57CA58DA59EA50E94F5
S1130600EB0718160CF04EC020E030E048E454E448
S11306106BA57CA58DA59EA50E94F0076B017C01AE
S113062020E030E0A9010E94EB0720E030E040E048
S11306305FE387FD05C0C701B6010E94490604C0F7
S1130640C701B6010E9448060E9427078B017E015C
S1130650F0E1EF0EF11C8FE0D7011D928A95E9F7C6
S11306608AE08B8F088B198B82E08A8F66EC70E0AE
S113067087E793E00E94D40A4AE050E0B80187E794
S113068093E00E945B0B47E5B701C5010E9430016E
S113069022E047E5B501CE0101960E946B016DEAA7
S11306A070E055C020E030E0A901C301B2010E940E
S11306B0EB0718160CF05AC020E030E048E454E48C
S11306C0C301B2010E94F0076B017C0120E030E01D
S11306D0A9010E94EB0720E030E040E05FE387FDE2
S11306E005C0C701B6010E94490604C0C701B6018E
S11306F00E9448060E9427078B017E01B0E1EB0EA1
S1130700F11C8FE0F70111928A95E9F78AE08B8F4B
S1130710088B198B82E08A8F6DE970E087E793E09C
S11307200E94D40A4AE050E0B80187E793E00E94AF
S11307305B0B48E5B701C5010E94300122E048E5A2
S1130740B501CE0101960E946B0164E870E087E771
S113075093E00E94D40A69817A814AE050E087E7F5
S113076093E00E94BC0B8AE090E000C0AE960FB606
S1130770F894DEBF0FBECDBFDF91CF911F910F91D3
S1130780FF90EF90DF90CF90BF90AF907F906F90ED
S11307905F904F900895CF92DF92EF92FF920F9364
S11307A01F93CF93DF93EC010E9421016B817C8125
S11307B0CE010E94240281309105A1F0CE010E9455
S11307C01201CD80DE80EF80F88409851A852B859F
S11307D03C854D855E856F857889CE010E946402D3
S11307E080E090E0DF91CF911F910F91FF90EF9007
S11307F0DF90CF900895CF92DF92EF92FF920F9304
S11308001F93CF93DF93CDB7DEB72F970FB6F8942E
S1130810DEBF0FBECDBF7C0122E049E8BC01CE01A2
S113082001960E946B0109811A816FEB71E087E7E1
S113083093E00E94C70A4AE050E0B80187E793E0DA
S11308400E94BC0BF7016181728180E090E00E94FC
S11308505D079B01AC0160E070E080E89FE30E94CB
S1130860B5066B017C01B801110F880B990B0E942E
S11308705F079B01AC01C701B6010E94F0072F96E8
S11308800FB6F894DEBF0FBECDBFDF91CF911F919D
S11308900F91FF90EF90DF90CF900895AF92BF92A9
S11308A0DF92EF92FF920F931F93CF93DF93CDB715
S11308B0DEB766970FB6F894DEBF0FBECDBF8C01CE
S11308C060EE71E087E793E00E94E60A27E042E1E8
S11308D0B801CE0101960E946B0187E0EEE1F1E0E0
S11308E0DE01509601900D928A95E1F78E010F5F1B
S11308F01F4F7E0180E1E80EF11C5E01E8E0AE0EC0
S1130900B11C64EF71E087E793E00E94C70AF80125
S1130910D1908F014AE050E06D2D87E793E00E946B
S11309204E0BF70181917F01D81649F069E072E01E
S113093087E793E00E94E60A81E090E005C00A158B
S11309401B05F9F680E090E066960FB6F894DEBFDA
S11309500FBECDBFDF91CF911F910F91FF90EF900C
S1130960DF90BF90AF9008950F931F93CF93DF93C1
S11309708DE194E00E94970E40E157E260E070E060
S11309808DE194E00E94A90E26E040E855E260E083
S113099070E087E793E00E945D09CEE0D1E08E012C
S11309A0F801819191918F010E94CB03F1E00C3108
S11309B01F07B1F760911C0170911D0189919991F4
S11309C00E94EF0181E0CC31D807A1F7DF91CF91EC
S11309D01F910F9108950F931F93CF93DF930E945C
S11309E0050D00913703109138032091390330919C
S11309F03A03DC01CB01801B910BA20BB30B8131B9
S1130A009742A105B10508F1CEE0D1E000E011E084
S1130A10899199910E944E04019739F4D801ED917E
S1130A20FC9160E080810E949A0D0E5F1F4FB1E03F
S1130A30CC31DB0769F70E94050D6093370370938F
S1130A4038038093390390933A03DF91CF911F9138
S1130A500F91089561E0809156020E949A0D0E94C0
S1130A60EB0487E193E00E94FB03AB01BC0122E0AD
S1130A7030E087E793E00C94A90CEBE6F3E040E068
S1130A8050E060E070E4408351836283738380E0CC
S1130A9090E0A0E5B1E484839583A683B7831086B0
S1130AA0118612861386EFE5F3E040835183628357
S1130AB0738384839583A683B783108611861286F5
S1130AC013868DB79EB70C970FB6F8949EBF0FBED2
S1130AD08DBFADB7BEB711968CE0EBE6F3E00190A5
S1130AE00D928A95E1F723E338E044E353E060E4B0
S1130AF087E193E00E94D0008DB79EB70C970FB6A4
S1130B00F8949EBF0FBE8DBFADB7BEB711968CE0F3
S1130B10EFE5F3E001900D928A95E1F723E338E0E5
S1130B2044E353E061E487EF92E00E94D0008DB784
S1130B309EB70C970FB6F8949EBF0FBE8DBFADB78E
S1130B40BEB711968CE0EFE5F3E001900D928A9523
S1130B50E1F723E338E044E353E061E487ED92E016
S1130B600E94D0008DB79EB784960FB6F8949EBFAE
S1130B700FBE8DBF0C970FB6F8949EBF0FBE8DBFEE
S1130B80ADB7BEB711968CE0EFE5F3E001900D929E
S1130B908A95E1F723E338E044E353E061E487EB2B
S1130BA092E00E94D0008DB79EB70C970FB6F894D0
S1130BB09EBF0FBE8DBFADB7BEB711968CE0EFE5FB
S1130BC0F3E001900D928A95E1F723E338E044E3E2
S1130BD053E061E487E992E00E94D0008DB79EB7AC
S1130BE00C970FB6F8949EBF0FBE8DBFADB7BEB7BE
S1130BF011968CE0EFE5F3E001900D928A95E1F710
S1130C0023E338E044E353E061E487E792E00E94A1
S1130C10D0008DB79EB784960FB6F8949EBF0FBED2
S1130C208DBF0C970FB6F8949EBF0FBE8DBFADB7A6
S1130C30BEB711968CE0EFE5F3E001900D928A9532
S1130C40E1F723E338E044E353E061E487E592E02D
S1130C500E94D00083E08093560285E08093550281
S1130C6086E0809354028AE0809353028FE080935D
S1130C70520280E18093510281E1809350028DB74A
S1130C809EB70C960FB6F8949EBF0FBE8DBF089505
S1130C905058BB27AA270E9460060C94B1070E94F3
S1130CA0A30738F00E94AA0720F039F49F3F19F4F3
S1130CB026F40C94A0070EF4E095E7FB0C949A0735
S1130CC0E92F0E94C20758F3BA1762077307840713
S1130CD0950720F079F4A6F50C94E4070EF4E0955A
S1130CE00B2EBA2FA02D0B01B90190010C01CA01E2
S1130CF0A0011124FF27591B99F0593F50F4503E8D
S1130D0068F11A16F040A22F232F342F4427585F7E
S1130D10F3CF469537952795A795F0405395C9F796
S1130D207EF41F16BA0B620B730B840BBAF091504E
S1130D30A1F0FF0FBB1F661F771F881FC2F70EC0ED
S1130D40BA0F621F731F841F48F4879577956795C0
S1130D50B795F7959E3F08F0B0CF9395880F08F0AC
S1130D609927EE0F9795879508950E94C9060C94CC
S1130D70B1070E94AA0758F00E94A30740F029F483
S1130D805F3F29F00C949A0751110C94E5070C94D9
S1130D90A0070E94C20768F39923B1F3552391F386
S1130DA0951B550BBB27AA2762177307840738F0D6
S1130DB09F5F5F4F220F331F441FAA1FA9F335D033
S1130DC00E2E3AF0E0E832D091505040E695001CE7
S1130DD0CAF72BD0FE2F29D0660F771F881FBB1FA1
S1130DE0261737074807AB07B0E809F0BB0B802D7F
S1130DF0BF01FF2793585F4F3AF09E3F510578F0AB
S1130E000C949A070C94E5075F3FE4F3983ED4F3FF
S1130E10869577956795B795F7959F5FC9F7880F7E
S1130E20911D9695879597F90895E1E0660F771FD0
S1130E30881FBB1F621773078407BA0720F0621B61
S1130E40730B840BBA0BEE1F88F7E09508950E948C
S1130E502E076894B1110C94E50708950E94CA07FF
S1130E6088F09F5798F0B92F9927B751B0F0E1F067
S1130E70660F771F881F991F1AF0BA95C9F714C017
S1130E80B13091F00E94E407B1E008950C94E407B6
S1130E90672F782F8827B85F39F0B93FCCF3869550
S1130EA077956795B395D9F73EF4909580957095AD
S1130EB061957F4F8F4F9F4F0895E89409C097FB2A
S1130EC03EF490958095709561957F4F8F4F9F4F1D
S1130ED09923A9F0F92F96E9BB279395F695879561
S1130EE077956795B795F111F8CFFAF4BB0F11F424
S1130EF060FF1BC06F5F7F4F8F4F9F4F16C08823CB
S1130F0011F096E911C0772321F09EE8872F762F00
S1130F1005C0662371F096E8862F70E060E02AF041
S1130F209A95660F771F881FDAF7880F969587952D
S1130F3097F9089597F99F6780E870E060E0089555
S1130F409FEF80EC089500240A94161617061806DD
S1130F500906089500240A941216130614060506B9
S1130F600895092E0394000C11F4882352F0BB0F4A
S1130F7040F4BF2B11F460FF04C06F5F7F4F8F4FAD
S1130F809F4F089557FD9058440F551F59F05F3FE8
S1130F9071F04795880F97FB991F61F09F3F79F097
S1130FA087950895121613061406551FF2CF469519
S1130FB0F1DF08C0161617061806991FF1CF86959B
S1130FC07105610508940895E894BB27662777277F
S1130FD0CB0197F908950E945D0808F48FEF0895F6
S1130FE00E9403080C94B1070E94A30738F00E94E2
S1130FF0AA0720F0952311F00C949A070C94A007EB
S113100011240C94E5070E94C20770F3959FC1F365
S1131010950F50E0551F629FF001729FBB27F00DA2
S1131020B11D639FAA27F00DB11DAA1F649F6627F7
S1131030B00DA11D661F829F2227B00DA11D621F46
S1131040739FB00DA11D621F839FA00D611D221F00
S1131050749F3327A00D611D231F849F600D211DE4
S1131060822F762F6A2F11249F5750409AF0F1F067
S113107088234AF0EE0FFF1FBB1F661F771F881FD0
S113108091505040A9F79E3F510580F00C949A0767
S11310900C94E5075F3FE4F3983ED4F38695779587
S11310A06795B795F795E7959F5FC1F7FE2B880F76
S11310B0911D9695879597F90895990F0008550FF6
S11310C0AA0BE0E8FEEF16161706E807F907C0F0CA
S11310D012161306E407F50798F0621B730B840BD2
S11310E0950B39F40A2661F0232B242B252B21F4AC
S11310F008950A2609F4A140A6958FEF811D811D4C
S11311000895FC01918D228D892F90E0805C9F4F82
S1131110821B91098F7399270895FC01918D828D0B
S1131120981731F0828DE80FF11D858D90E00895B8
S11311308FEF9FEF0895FC01918D828D981761F0D8
S1131140828DDF01A80FB11D5D968C91928D9F5FFA
S11311509F73928F90E008958FEF9FEF0895FC01A5
S1131160538D448D252F30E0842F90E0821B930B08
S1131170541710F0CF960895019708958DE19AE0E1
S1131180892B49F080E090E0892B29F00E941D0A08
S113119081110C9400000895FC01848DDF01A80FD7
S11311A0B11DA35ABF4F2C91848D90E001968F738B
S11311B09927848FA689B7892C93A089B1898C91AA
S11311C0837080648C93938D848D981306C00288F9
S11311D0F389E02D80818F7D80830895EF92FF92C3
S11311E00F931F93CF93DF93EC0181E0888F9B8D46
S11311F08C8D981305C0E889F989808185FD26C006
S1131200F62E0B8D10E00F5F1F4F0F731127E02E8A
S11312108C8DE8120CC00FB607FCFACFE889F98967
S1131220808185FFF5CFCE010E94CC08F1CF8B8D54
S1131230FE01E80FF11DE35AFF4FF0829FB7F894C7
S11312400B8FEA89FB89808180620AC09FB7F8947A
S1131250EE89FF896083E889F989808183708064DD
S113126080839FBF81E090E0DF91CF911F910F9128
S1131270FF90EF900895CF93DF93EC01888D88233E
S1131280C9F0EA89FB89808185FD05C0A889B989EF
S11312908C9186FD0FC00FB607FCF5CF808185FFCA
S11312A0F2CFA889B9898C9185FFEDCFCE010E9438
S11312B0CC08E7CFDF91CF910895CF92DF92EF92E0
S11312C0FF921F93CF93DF93EC016A017B01122FEE
S11312D0E889F98982E080834115514E61057105E1
S11312E0B1F060E079E08DE390E0A70196010E94FF
S11312F00D13DA01C9010197A109B109B695A795A2
S1131300979587959C01211580E13807A8F0E88915
S1131310F989108260E874E88EE190E0A7019601F3
S11313200E940D13DA01C9010197A109B109B6950B
S1131330A795979587959C01EC85FD853083EE856F
S1131340FF852083188EEC89FD891083EA89FB8947
S1131350808180618083EA89FB89808188608083C1
S1131360EA89FB89808180688083EA89FB8980819E
S11313708F7D8083DF91CF911F91FF90EF90DF905D
S1131380CF90089580E090E008951F920F920FB6D9
S11313900F9211242F938F939F93EF93FF93E091D8
S11313A08703F09188038081E0918D03F0918E038F
S11313B082FD12C09081809190038F5F8F73209182
S11313C09103821751F0E0919003F0E0E958FC4F4B
S11313D0958F8093900301C08081FF91EF919F913D
S11313E08F912F910F900FBE0F901F9018951F9201
S11313F00F920FB60F9211242F933F934F935F9345
S11314006F937F938F939F93AF93BF93EF93FF93C8
S113141087E793E00E94CC08FF91EF91BF91AF91D1
S11314209F918F917F916F915F914F913F912F91F8
S11314300F900FBE0F901F90189587E793E00E94BE
S1131440810821E0892B09F420E0822F0895E7E741
S1131450F3E01382128288EE93E0A0E0B0E084838C
S11314609583A683B78381E292E09183808385ECA0
S113147090E09587848784EC90E09787868780EC5A
S113148090E0918B808B81EC90E0938B828B82EC4B
S113149090E0958B848B86EC90E0978B868B118EF5
S11314A0128E138E148E089508950E94360D0E9494
S11314B0540A0E94B404CEEBD8E00E942A05209777
S11314C0E1F30E94BE08F9CFCF92DF92EF92FF9230
S11314D00F931F93CF93DF936C017A018B01C0E0CC
S11314E0D0E0CE15DF0581F0D8016D918D01D601D4
S11314F0ED91FC910190F081E02DC6010995892BB5
S113150011F02196EECF7E01C701DF91CF911F919B
S11315100F91FF90EF90DF90CF90089561157105C2
S113152079F0FB0101900020E9F73197AF01461BE8
S1131530570BDC01ED91FC910280F381E02D0994BD
S113154080E090E00895EF92FF920F931F93CF9362
S1131550DF938C017B01C0E0D0E0F701EC0FFD1FAD
S11315606491662361F0D801ED91FC910190F081C2
S1131570E02DC8010995892B11F02196EECFCE01FB
S1131580DF91CF911F910F91FF90EF9008950C94EC
S11315908E0ADC01ED91FC910190F081E02D09941B
S11315A06FE272E00C948E0A0F931F93CF93DF9334
S11315B0EC010E94A30A8C01CE010E94D00A800F84
S11315C0911FDF91CF911F910F9108950F931F9356
S11315D0CF93DF93EC010E948E0A8C01CE010E940E
S11315E0D00A800F911FDF91CF911F910F91089521
S11315F08F929F92AF92BF92EF92FF920F931F939D
S1131600CF93DF93CDB7DEB7A1970FB6F894DEBFC3
S11316100FBECDBF7C01FA01CB0119A2223008F420
S11316202AE08E010F5D1F4F822E912CA12CB12C2C
S1131630BF01A50194010E940D13F901CA010150D3
S113164011096A3010F4605D01C0695CD8016C93C3
S1131650232B242B252B61F7B801C7010E948E0A86
S1131660A1960FB6F894DEBF0FBECDBFDF91CF9128
S11316701F910F91FF90EF90BF90AF909F908F902C
S113168008952115310541F4DC01ED91FC9101909F
S1131690F081E02D642F09940C94F80A9A01462FE6
S11316A050E060E070E00C94410B9A01AB0160E003
S11316B070E00C94410B0F931F93CF93DF93EC01D5
S11316C00E94550B8C01CE010E94D00A800F911FFD
S11316D0DF91CF911F910F910895CF92DF92EF92F6
S11316E0FF920F931F93CF93DF932115310581F45C
S11316F0DC01ED91FC910190F081E02D642FDF91EC
S1131700CF911F910F91FF90EF90DF90CF900994AC
S11317102A30310501F577FF1DC06A017B01EC0118
S11317206DE20E94C90A8C0144275527BA014C195D
S11317305D096E097F092AE0CE010E94F80A800F34
S1131740911FDF91CF911F910F91FF90EF90DF9048
S1131750CF9008952AE0DF91CF911F910F91FF90D0
S1131760EF90DF90CF900C94F80A9A01AB01770FB9
S1131770660B770B0C946D0B0F931F93CF93DF9332
S1131780EC010E94B50B8C01CE010E94D00A800F9F
S1131790911FDF91CF911F910F9108957F928F92A6
S11317A09F92AF92BF92CF92DF92EF92FF920F93EC
S11317B01F93CF93DF938C016A017B01722E9A01F0
S11317C0AB01C701B6010E940813882319F062E334
S11317D072E027C046015701E894B7F82FEF3FEFB6
S11317E04FE75FE7C501B4010E94081381110DC0E2
S11317F02FEF3FEF4FE75FE7C501B4010E940313EA
S113180018161CF466E372E00CC02FEF3FEF4FE7AD
S11318105FE4C701B6010E94EB07181694F46AE36B
S113182072E0C801DF91CF911F910F91FF90EF906B
S1131830DF90CF90BF90AF909F908F907F900C944B
S11318408E0A2FEF3FEF4FE75FECC701B6010E940E
S1131850031387FDE4CF20E030E0A901C701B601FE
S11318600E94031387FF0AC06DE2C8010E94C90ADF
S1131870EC01F7FAF094F7F8F09402C0C0E0D0E07D
S1131880B12C60E070E080E09FE37B1441F020E045
S113189030E040E251E40E94B506B394F6CFA701CC
S11318A096010E9449066B017C010E942E074B01A0
S11318B05C012AE0AB01BC01C8010E94F80AC80F10
S11318C0D91F7720B9F1C501B4010E945D079B01BE
S11318D0AC01C701B6010E9448066B017C016EE2AF
S11318E0C8010E94C90AC80FD91F20E030E040E2B5
S11318F051E4C701B6010E94F0074B015C010E944C
S11319002E076B017C014AE050E0C8010E94550B90
S1131910C80FD91FB60180E090E00E945D079B01CB
S1131920AC01C501B4010E9448066B017C017A94A4
S11319307110DBCFCE01DF91CF911F910F91FF90FA
S1131940EF90DF90CF90BF90AF909F908F907F905B
S113195008950F931F93CF93DF93EC010E94CE0B56
S11319608C01CE010E94D00A800F911FDF91CF918C
S11319701F910F9108951F920F920FB60F92112489
S11319802F933F938F939F93AF93BF9380911504AD
S113199090911604A0911704B09118043091140486
S11319A023E0230F2D3720F40196A11DB11D05C09E
S11319B026E8230F0296A11DB11D209314048093E1
S11319C0150490931604A0931704B09318048091FF
S11319D0190490911A04A0911B04B0911C0401965F
S11319E0A11DB11D8093190490931A04A0931B04A4
S11319F0B0931C04BF91AF919F918F913F912F9110
S1131A000F900FBE0F901F9018952FB7F894609108
S1131A1015047091160480911704909118042FBF37
S1131A2008953FB7F8948091190490911A04A091F5
S1131A301B04B0911C0426B5A89B05C02F3F19F0C8
S1131A400196A11DB11D3FBFBA2FA92F982F88273A
S1131A50820F911DA11DB11DBC01CD0142E0660F95
S1131A60771F881F991F4A95D1F70895789484B5F4
S1131A70826084BD84B5816084BD85B5826085BD86
S1131A8085B5816085BDEEE6F0E08081816080836C
S1131A90E1E8F0E01082808182608083808181604F
S1131AA08083E0E8F0E0808181608083E1EBF0E016
S1131AB0808184608083E0EBF0E0808181608083BA
S1131AC0EAE7F0E0808184608083808182608083A3
S1131AD08081816080838081806880831092C100CE
S1131AE00895833081F028F4813099F08230A1F098
S1131AF008958730A9F08830B9F08430D1F480910A
S1131B0080008F7D03C0809180008F778093800058
S1131B10089584B58F7702C084B58F7D84BD089500
S1131B208091B0008F7703C08091B0008F7D809347
S1131B30B00008951F93CF93DF93282F30E0F9016D
S1131B40E150FF4F8491F901ED5EFE4FD491F9010C
S1131B50E95DFE4FC491CC23C1F0162F81110E9480
S1131B60710DEC2FF0E0EE0FFF1FE55CFE4FA59129
S1131B70B4919FB7F894111104C08C91D095D823D7
S1131B8002C0EC91DE2BDC939FBFDF91CF911F91BC
S1131B9008958091510490E020915204821B910990
S1131BA008959091520480915104981750F4E92FAC
S1131BB0F0E0ED5AFB4F208130E09F5F9093520498
S1131BC002C02FEF3FEFC9010895E09152048091C4
S1131BD05104E81730F4F0E0ED5AFB4F808190E0B7
S1131BE008958FEF9FEF08950895CF93DF93EC014D
S1131BF0E0912904F0912A043097F1F09091520475
S1131C00809151049817C0F090E0292F30E02617F6
S1131C10370754F4DE01A20FB31F4C91D901AD5A1A
S1131C20BB4F4C939F5FF1CF1092520460935104C9
S1131C30CB01DF91CF910994DF91CF910895E09189
S1131C402B04F0912C04309729F010922F04109259
S1131C502E0409940895CF92DF92EF92FF920F938E
S1131C601F93CF93DF937C01CB018A0120912D0434
S1131C70222389F0EB016B01C40ED51ECC15DD05C2
S1131C8069F06991D701ED91FC910190F081E02D0B
S1131C90C7010995F3CF642F0E94770FC801DF9124
S1131CA0CF911F910F91FF90EF90DF90CF90089507
S1131CB0CF93DF931F92CDB7DEB7698320912D04B4
S1131CC02223D1F020912E04203240F021E030E094
S1131CD0FC013383228380E090E015C080912F04BF
S1131CE0E82FF0E0E05DFB4F998190838F5F809354
S1131CF02F0480932E0405C061E0CE0101960E945A
S1131D00770F81E090E00F90DF91CF910895FC016F
S1131D101382128288EE93E0A0E0B0E0848395837E
S1131D20A683B78382E492E091838083089510921E
S1131D3052041092510410922F0410922E040E9407
S1131D40380F8FE19EE00E94A40F85EF9DE00C9474
S1131D509F0FCB01BA010C94630F81E080932D0493
S1131D606093500410922F0410922E0408950F9340
S1131D70062F21E040912E0460E374E0809150042A
S1131D800E94AE1010922F0410922E0410922D0473
S1131D900F9108954F925F926F927F92AF92BF928C
S1131DA0CF92EF92FF920F931F93CF93DF935C0137
S1131DB0F62ED42F28013901EE2021F10E94AD0E18
S1131DC0CE2DC43008F0C3E0C150C0F028E0C29F5B
S1131DD0C0011124A301920104C05695479537957B
S1131DE027958A95D2F7CA01B901D501ED91FC91E5
S1131DF00190F081E02DC5010995E6CF60E0C501B1
S1131E000E94B70E4D2FD13208F040E22C2D63E52D
S1131E1074E08F2D0E94C50F1092520480935104D8
S1131E20DF91CF911F910F91FF90EF90CF90BF90D2
S1131E30AF907F906F905F904F900895CF92EF9204
S1131E400F931F93C22EE12C00E010E098010E9432
S1131E50CA0E1F910F91EF90CF90089521E00C943A
S1131E601E0F61E00C94B70E8DE194E00C94870E84
S1131E701092E60481E08093E4041092E30461E0AC
S1131E8082E10E949A0D61E083E10E949A0DE9EBE0
S1131E90F0E080818E7F808380818D7F808388E4E1
S1131EA08093B80085E48093BC000895ECEBF0E0E7
S1131EB080818A7B808360E082E10E949A0D60E0E9
S1131EC083E10C949A0D9B01AC0160E074E284EF11
S1131ED090E00E940D13DA01C9014097A109B109EC
S1131EE0B695A795979587958093B80008954091E6
S1131EF09504262F30E0240F311D21323105DCF406
S1131F002091E6042430C9F4FC0180E090E08617B7
S1131F1058F4309195042191DC01A956BB4FA30FCD
S1131F20B11D2C930196F3CF80919504680F6093B3
S1131F30950480E0089581E0089582E008959093E7
S1131F40DA048093D90408959093DC048093DB042D
S1131F50089585EC8093BC001092E6040895CF9315
S1131F60DF9391E09093DE04882361F0C091B80080
S1131F70D091BA000E94560F0E94380FD093BA0035
S1131F80C093B800DF91CF9108954F925F926F9202
S1131F907F928F929F92AF92BF92CF92DF92EF92F5
S1131FA0FF920F931F93CF93DF93F82E162F072FD3
S1131FB0C42FE22E413208F0BEC00E94110D4B0125
S1131FC05C01D091E604DD2331F18091DF0490912E
S1131FD0E004A091E104B091E204892B8A2B8B2BBD
S1131FE081F30E94110D4090DF045090E004609052
S1131FF0E1047090E204DC01CB0188199909AA0973
S1132000BB09481659066A067B06D8F68091DD049A
S11320100E94AF0F90C081E08093E604E092E40454
S11320209FEF909373041092B8049C0F9093B7049D
S11320308093E5049091E5048F2D880F892B80937C
S1132040E5048091E304813089F51092E3040E9451
S1132050110D6B017C018091E5048093BB0080919C
S1132060DF049091E004A091E104B091E204892B93
S11320708A2B8B2BA9F00E94110D8090DF04909085
S1132080E004A090E104B090E204DC01CB018C19DF
S11320909D09AE09BF0988169906AA06BB0690F1E8
S11320A08091BC0083FDD7CF85EC01C085EE809381
S11320B0BC000E94110D6B017C018091E60481300B
S11320C031F58091DF049091E004A091E104B09196
S11320D0E204892B8A2B8B2B81F30E94110D8090B3
S11320E0DF049090E004A090E104B090E204DC01ED
S11320F0CB018C199D09AE09BF0988169906AA0659
S1132100BB06D8F68091DD040E94AF0F15C0809104
S1132110B8048C1710F4C091B804A9EBB4E0912F63
S1132120E12FF02F8E2F891B8C1718F48D9181933A
S1132130F9CFDC2F01C0D0E08D2FDF91CF911F911B
S11321400F91FF90EF90DF90CF90BF90AF909F9052
S11321508F907F906F905F904F9008954F925F9211
S11321606F927F928F929F92AF92BF92CF92DF92A3
S1132170EF92FF920F931F93CF93DF93413208F0B6
S1132180C6C0122FF42ED72EE62ED82F0E94110D82
S11321904B015C01C091E604CC2311F18091DF0472
S11321A09091E004A091E104B091E204892B8A2B80
S11321B08B2B81F30E94110D4090DF045090E004BA
S11321C06090E1047090E204DC01CB018819990964
S11321D0AA09BB09481659066A067B06D8F683C0C5
S11321E082E08093E6040093E4048FEF8093730409
S11321F01092B804F092B7049E2DA9EBB4E0EE2D32
S1132200FD2D8E2F891B8F1518F481918D93F9CF95
S11322101092E5049091E504DD0FD92BD093E504E9
S11322208091E304813089F51092E3040E94110D3A
S11322306B017C018091E5048093BB008091DF04F5
S11322409091E004A091E104B091E204892B8A2BDF
S11322508B2BA9F00E94110D8090DF049090E00474
S1132260A090E104B090E204DC01CB018C199D093B
S1132270AE09BF0988169906AA06BB06A0F180918B
S1132280BC0083FDD7CF85EC01C085EE8093BC00F4
S11322900E94110D6B017C01112359F18091E60418
S11322A0823039F58091DF049091E004A091E1043B
S11322B0B091E204892B8A2B8B2B71F30E94110DB0
S11322C08090DF049090E004A090E104B090E204D8
S11322D0DC01CB018C199D09AE09BF09881699064A
S11322E0AA06BB06C8F68091DD040E94AF0FC5E0C4
S11322F013C0809173048F3F79F08091730480320E
S113230041F080917304803331F0C4E005C0C1E032
S113231003C0C2E001C0C3E08C2FDF91CF911F91B5
S11323200F91FF90EF90DF90CF90BF90AF909F9070
S11323308F907F906F905F904F90089585ED80937C
S1132340BC008091DF049091E004A091E104B0917D
S1132350E2040796A11DB11D23E0B695A7959795B4
S113236087952A95D1F72091BC0024FF1CC0409189
S1132370DF045091E0046091E1047091E204452B84
S1132380462B472B81F30097A105B10541F025E3C6
S11323902A95F1F700000197A109B109E4CF8091D2
S11323A0DD040C94AF0F1092E60408951F920F926F
S11323B00FB60F9211242F933F934F935F936F9314
S11323C07F938F939F93AF93BF93EF93FF938091EA
S11323D0B900887F803609F49EC078F5883209F404
S11323E05DC090F4803109F456C038F4882309F4B0
S11323F0F5C0883009F44FC0F5C0883109F44EC0E7
S1132400803209F45FC0EEC0803409F46AC058F425
S1132410803309F457C0883309F0E4C0809373040F
S11324200E94A90FDFC0803509F44FC0883509F434
S11324305DC0883409F0D6C0D3C0883909F4C4C05B
S1132440A8F4883709F467C038F4883609F463C0FF
S1132450803709F460C0C6C0883809F4B5C0803933
S113246009F45FC0803809F0BDC05BC0803B09F44B
S113247083C038F4803A09F466C0883A09F47CC011
S1132480B1C0803C09F4A4C0883C09F4A1C0883BD5
S113249009F487C0A7C08091E50410C09091B804E6
S11324A08091B704981770F5E091B80481E08E0F1D
S11324B08093B804F0E0E754FB4F80818093BB0025
S11324C085EC83C0809373048BC0E091B80481E0F1
S11324D08E0F8093B8048091BB00F0E0E754FB4F6B
S11324E080839091B8048091B7046BC0E091B804E4
S11324F081E08E0F8093B8048091BB00F0E0E75434
S1132500FB4F80838091E40481116AC081E0809351
S1132510E30484EA5EC083E08093E60410927404CA
S1132520CFCF80917404803208F04EC0E0917404DF
S113253081E08E0F809374048091BB00F0E0EB582F
S1132540FB4F8083BDCF0E94A90F80917404803219
S113255030F4E0917404F0E0EB58FB4F108260918A
S1132560740470E0E091D904F091DA0485E794E012
S113257009951092740436C084E08093E6041092A6
S1132580960410929504E091DB04F091DC04099523
S113259080919504811105C081E080939504109287
S11325A09704E091960481E08E0F80939604F0E006
S11325B0E956FB4F80818093BB00909196048091F3
S11325C09504981708F47CCF85E88093BC000AC072
S11325D085EC8093BC001092E60404C0109273044E
S11325E00E949E11FF91EF91BF91AF919F918F91A6
S11325F07F916F915F914F913F912F910F900FBEFB
S11326000F901F9018950E945D0808F481E00895CA
S11326100E945D08880B990B0895A1E21A2EAA1B4B
S1132620BB1BFD010DC0AA1FBB1FEE1FFF1FA2177E
S1132630B307E407F50720F0A21BB30BE40BF50B7B
S1132640661F771F881F991F1A9469F76095709504
S1132650809590959B01AC01BD01CF010895EE0FCB
S1112660FF1F0590F491E02D0994F894FFCF2C
S113266E56025502540253025202510250021703EB
S113267EF702D702B7029702770257022747064995
S113268E4E4132333372657365742063686970002A
S113269E4572726F723A20747279696E6720746F24
S11326AE2073656E64206D6F7265207468656E208C
S11326BE74776F2062797465732E206F6E6C792037
S11326CE74776F206174206F6E636520616C6C6F1C
S11326DE7765642E006572726F7220696E20747253
S11326EE616E736D69744461746128292066756E18
S11326FE6374696F6E004572726F723A204E6F206A
S113270E6461746120746F207472616E736D697488
S113271E7400616C61726D206C696D697473004331
S113272E757272656E7420626974736E62757473F9
S113273E0073746174757320696E7075743A200039
S113274E7465737420636F6D6D756E6963617469FE
S113275E6F6E7300526561646261636B204D465205
S113276E5F4D4F44454C3A2000436F6D6D756E6955
S113277E636174696F6E206572726F72000000007F
S113278E00EE08640AAF083B0981089B088D080D0A
S113279E0A006E616E00696E66006F766600000058
S11327AE0000580E2B0EC209F40DC90DD10DE50D06
S9030000FC
