:100000000C94BD000C94E5000C94E5000C94E50004
:100010000C94E5000C94E5000C94E5000C94E500CC
:100020000C94E5000C94E5000C94E5000C94E500BC
:100030000C94E5000C94E5000C94E5000C94E500AC
:100040000C94F10D0C94E5000C94E90A0C941B0B34
:100050000C94E5000C94E5000C94E5000C94E5008C
:100060000C9495130C94E5007365742063616C69BE
:1000700062726174696F6E00726573657420616C81
:1000800061726D005556205741524E204C494D49E2
:100090005420726561646261636B3A20005556209A
:1000A0005741524E204C494D49543A20004F56205A
:1000B0005741524E204C494D49542072656164624B
:1000C00061636B3A20004F56205741524E204C49F5
:1000D0004D49543A20004F43205741524E204C493D
:1000E0004D495420726561646261636B3A20004F30
:1000F00043205741524E204C494D49543A20006606
:100100007265654D656D6F727928293D006C6F6F62
:1001100070696E6700667265654D656D6F727928EE
:10012000293D000000000800020100000304070050
:1001300000000000000000010204081020408001BF
:10014000020408102001020408102004040404041E
:100150000404040202020202020303030303030075
:10016000000000250028002B0000000000240027CC
:10017000002A000027064B0BF21011241FBECFEF00
:10018000D8E0DEBFCDBF12E0A0E0B1E0ECEEF9E2D6
:1001900002C005900D92A037B107D9F725E0A0E77E
:1001A000B2E001C01D92AF31B207E1F710E0CDEB34
:1001B000D0E004C02197FE010E94EE14CA3BD10793
:1001C000C9F70E94790B0C94F4140C94000060E0C1
:1001D000FC0185810C943C0FCF93C62FFC016081FC
:1001E00081E594E00E946B106C2F81E594E00E9401
:1001F000161081E594E0CF910C94EF10CF93DF932C
:10020000EC0168E770E08BEA93E00E94F80B63E092
:10021000CE01DF91CF910C94EC00CF93DF93EC01F2
:1002200069E071E08BEA93E00E940A0C62E1CE0182
:10023000DF91CF910C94EC001F93CF93DF93FC01DF
:10024000EB01142F9A85933018F064E171E004C03B
:1002500091110FC06AE771E08BEA93E00E940A0CEB
:1002600069E571E08BEA93E0DF91CF911F910C94E7
:100270000A0C608181E594E00E946B10612F81E59A
:1002800094E00E941610688181E594E00E941610A7
:100290008A85823029F4698181E594E00E941610F4
:1002A00081E594E0DF91CF911F910C94EF10EF92D4
:1002B000FF920F931F93CF93DF93EC017B01022FEB
:1002C0008FE0FE0111928A95E9F78AE08B87642F0F
:1002D000C7010E94EC00402FF701608181E594E0A6
:1002E0000E94EC1081E594E00E94870F892B79F041
:1002F0001A8581E594E00E948F0FFE01E10FF11D48
:1003000080831F5F1A871A3068F381E08C878A85A3
:10031000801718F481E08D8704C0081710F481E07D
:100320008E87CE01DF91CF911F910F91FF90EF90BB
:100330000895EF92FF920F931F93CF93DF93CDB762
:10034000DEB72F970FB6F894DEBF0FBECDBF8B017F
:10035000FB012285BC01CE0101967C010E94570160
:10036000F801628570E0A801D701C8019D012E192E
:100370003F092617370748F4FC013191CF012D9131
:100380003217A1F381E090E00BC0600F711F461798
:10039000570721F0FA011192AF01F9CF80E090E008
:1003A0002F960FB6F894DEBF0FBECDBFDF91CF9171
:1003B0001F910F91FF90EF900895EF92FF920F938E
:1003C0001F93CF93DF93CDB7DEB72F970FB6F89477
:1003D000DEBF0FBECDBF7C018E010F5F1F4F8FE0D0
:1003E000F80111928A95E9F78AE08C8769837A830C
:1003F00082E08B8740EDB801C7010E941C0140EDEF
:10040000B801C7010E9499012F960FB6F894DEBF7C
:100410000FBECDBFDF91CF911F910F91FF90EF9055
:100420000895CF92DF92EF92FF920F931F93CF9395
:10043000DF93CDB7DEB72F970FB6F894DEBF0FBEB0
:10044000CDBF7C016B0168E670E08BEA93E00E940F
:10045000F80B8E010F5F1F4F8FE0F80111928A9504
:10046000E9F78AE08C87C982DA8282E08B8744EDE3
:10047000B801C7010E941C0144EDB801C7010E94E8
:1004800099012F960FB6F894DEBF0FBECDBFDF9156
:10049000CF911F910F91FF90EF90DF90CF90089533
:1004A0004F925F926F927F92AF92BF92CF92DF9204
:1004B000EF92FF920F931F93CF93DF93CDB7DEB7E9
:1004C000AE970FB6F894DEBF0FBECDBF5C01CF8EE6
:1004D000D8A2E9A2FAA20BA31CA32DA33EA34FA36B
:1004E00058A769A77AA7CF8CD8A0E9A0FAA08BA1BA
:1004F0009CA1ADA1BEA18BA79CA7ADA7BEA74FA0F5
:1005000058A469A47AA466E971E08BEA93E00E949A
:100510000A0C20E030E0A901C701B6010E940F09D2
:1005200018160CF051C0D50111966D917C9112975F
:1005300080E090E00E948108A70196010E941409C2
:100540006B017C0120E030E0A9010E940F0920E04E
:1005500030E040E05FE387FD05C0C701B6010E94BF
:100560006D0704C0C701B6010E946C070E944B08CA
:100570008B017E01B0E1EB0EF11C8FE0F7011192CF
:100580008A95E9F78AE08B8F088B198B82E08A8F36
:100590006FEE70E08BEA93E00E94F80B4AE050E0C7
:1005A000B8018BEA93E00E94910C4AE4B701C501BF
:1005B0000E941C0122E04AE4B501CE0101960E948E
:1005C000570166ED70E0AFC020E030E0A9016BA5F7
:1005D0007CA58DA59EA50E940F0918160CF04EC093
:1005E00020E030E048E454E46BA57CA58DA59EA5F1
:1005F0000E9414096B017C0120E030E0A9010E94F7
:100600000F0920E030E040E05FE387FD05C0C7014F
:10061000B6010E946D0704C0C701B6010E946C07B5
:100620000E944B088B017E01F0E1EF0EF11C8FE080
:10063000D7011D928A95E9F78AE08B8F088B198B79
:1006400082E08A8F66EC70E08BEA93E00E94F80B00
:100650004AE050E0B8018BEA93E00E94910C47E534
:10066000B701C5010E941C0122E047E5B501CE019A
:1006700001960E9457016DEA70E055C020E030E01D
:10068000A901C301B2010E940F0918160CF05AC04B
:1006900020E030E048E454E4C301B2010E941409B0
:1006A0006B017C0120E030E0A9010E940F0920E0ED
:1006B00030E040E05FE387FD05C0C701B6010E945E
:1006C0006D0704C0C701B6010E946C070E944B0869
:1006D0008B017E01B0E1EB0EF11C8FE0F70111926E
:1006E0008A95E9F78AE08B8F088B198B82E08A8FD5
:1006F0006DE970E08BEA93E00E94F80B4AE050E06D
:10070000B8018BEA93E00E94910C48E5B701C5015E
:100710000E941C0122E048E5B501CE0101960E942D
:10072000570164E870E08BEA93E00E94F80B69815E
:100730007A814AE050E08BEA93E00E94F20C8AE072
:1007400090E000C0AE960FB6F894DEBF0FBECDBFEE
:10075000DF91CF911F910F91FF90EF90DF90CF909D
:10076000BF90AF907F906F905F904F900895CF9320
:10077000DF93CDB7DEB72F970FB6F894DEBF0FBE6D
:10078000CDBF22E048E8BC01CE0101960E9457018E
:1007900069817A81072E000C880B990B0E948308CF
:1007A00020E030E048E454E40E94D9072F960FB6C9
:1007B000F894DEBF0FBECDBFDF91CF910895CF93E8
:1007C000DF93CDB7DEB72F970FB6F894DEBF0FBE1D
:1007D000CDBF22E041EDBC01CE0101960E94570140
:1007E00069817A81072E000C880B990B0E9483087F
:1007F00020E030E048EC51E40E94140920E836E99A
:1008000048E15BE40E94D9072F960FB6F894DEBF4B
:100810000FBECDBFDF91CF910895CF92DF92EF92BF
:10082000FF920F931F93CF93DF93CDB7DEB72F9730
:100830000FB6F894DEBF0FBECDBF7C0122E049E8C1
:10084000BC01CE0101960E94570109811A8163EA19
:1008500071E08BEA93E00E94EB0B4AE050E0B801B4
:100860008BEA93E00E94F20CF7016181728180E0D3
:1008700090E00E9481089B01AC0160E070E080E89C
:100880009FE30E94D9076B017C01B801110F880B0F
:10089000990B0E9483089B01AC01C701B6010E941D
:1008A00014092F960FB6F894DEBF0FBECDBFDF91AF
:1008B000CF911F910F91FF90EF90DF90CF9008950F
:1008C000CF93DF93CDB7DEB72F970FB6F894DEBF87
:1008D0000FBECDBF21E04CE7BC01CE0101960E94C6
:1008E000570165EB71E08BEA93E00E94EB0B42E06D
:1008F00050E069818BEA93E02F960FB6F894DEBF43
:100900000FBECDBFDF91CF910C94790CAF92BF9207
:10091000DF92EF92FF920F931F93CF93DF93CDB7A8
:10092000DEB766970FB6F894DEBF0FBECDBF8C0161
:1009300064EC71E08BEA93E00E940A0C27E042E14C
:10094000B801CE0101960E94570187E0E2E0F1E094
:10095000DE01509601900D928A95E1F78E010F5FAE
:100960001F4F7E0180E1E80EF11C5E01E8E0AE0E53
:10097000B11C68ED71E08BEA93E00E94EB0BF8018B
:10098000D1908F014AE050E06D2D8BEA93E00E94F8
:10099000720CF70181917F01D81649F06DEE71E07C
:1009A0008BEA93E00E940A0C81E090E005C00A15F2
:1009B0001B05F9F680E090E066960FB6F894DEBF6E
:1009C0000FBECDBFDF91CF911F910F91FF90EF90A0
:1009D000DF90BF90AF900895CF92DF92EF92FF9299
:1009E0000F931F93CF93DF93EC010E948604CE01F7
:1009F0000E940D016B817C81CE010E941102813029
:100A00009105D9F0CE010E94FE0061E08D810E9427
:100A1000000FCE010E94E700CE80DF80E884F984D9
:100A20000A851B852C853D854E855F85688979897A
:100A3000CE010E94500280E090E0DF91CF911F91A3
:100A40000F91FF90EF90DF90CF9008950F93CF9389
:100A5000DF93CDB7DEB7DC016C9312965C934E93B7
:100A6000119714963C932E93139715960C93159704
:100A70002CE0FE013696169601900D922A95E1F72C
:100A80002AE0FC017296DF01322F1D923A95E9F7B8
:100A9000DC015C961C925C975D962C935D975E964C
:100AA0001C925E975F961C925F9790961C92DF91C6
:100AB000CF910F910C94EC0481E594E00E945510C5
:100AC00040E157E260E070E081E594E00E94671049
:100AD00026E040E855E260E070E08BEA93E00E9497
:100AE000810A61E072E08BEA93E00E940A0C609157
:100AF00000017091010186E393E00E94DD016091A5
:100B000000017091010185E193E00E94DD01609197
:100B100000017091010184EF92E00E94DD0160917B
:100B200000017091010183ED92E00E94DD0160916E
:100B300000017091010182EB92E00E94DD01609161
:100B400000017091010181E992E00E94DD01609154
:100B500000017091010180E792E00E94DD0165E1F2
:100B600071E08BEA93E00E94C70B0E946B0F4AE092
:100B700050E0BC018BEA93E00C94F20CCF92DF9230
:100B8000EF92FF926DE071E08BEA93E00E94F80B28
:100B90006FEF70E08BEA93E00E94C70B0E946B0F2F
:100BA0004AE050E0BC018BEA93E00E94F20C60E165
:100BB00072E08BEA93E00E940A0C85E193E00E94C8
:100BC000DF036B017C016AE172E08BEA93E00E9433
:100BD000EB0B25E030E0B701A6018BEA93E00E9421
:100BE000DF0D85E193E00E94B7036B017C0166E2B3
:100BF00072E08BEA93E00E94EB0B25E030E0B70156
:100C0000A6018BEA93E00E94DF0D85E193E00E944C
:100C10000D046B017C0162E372E08BEA93E00E94B9
:100C2000EB0B25E030E0B701A6018BEA93E00E94D0
:100C3000DF0D85E193E00E9460046CEB72E080E0E0
:100C400090E0FF90EF90DF90CF900C94600E0F93A8
:100C5000EFE9F3E040E050E060E070E4408351836E
:100C60006283738380E090E0A0E5B1E484839583A0
:100C7000A683B7831086118612861386E3E9F3E014
:100C8000408351836283738384839583A683B78370
:100C90001086118612861386E7E8F3E040835183BD
:100CA0006283738384839583A683B78310861186BA
:100CB00012861386EBE7F3E04083518362837383EC
:100CC00084839583A683B783108611861286138644
:100CD000EFE6F3E0408351836283738384839583DB
:100CE000A683B7831086118612861386E3E6F3E0A7
:100CF000408351836283738384839583A683B78300
:100D00001086118612861386E7E5F3E0408351834F
:100D10006283738384839583A683B7831086118649
:100D2000128613868DB79EB70C970FB6F8949EBFA8
:100D30000FBE8DBFADB7BEB711968CE0EFE9F3E003
:100D400001900D928A95E1F704E123E338E044E352
:100D500053E060E486E393E00E9426058DB79EB7DA
:100D60000C970FB6F8949EBF0FBE8DBFADB7BEB740
:100D700011968CE0E3E9F3E001900D928A95E1F79A
:100D800009E123E338E044E353E061E485E193E0E3
:100D90000E9426058DB79EB70C970FB6F8949EBF9C
:100DA0000FBE8DBFADB7BEB711968CE0E7E8F3E09C
:100DB00001900D928A95E1F707E123E338E044E3DF
:100DC00053E062E484EF92E00E9426058DB79EB75F
:100DD00084960FB6F8949EBF0FBE8DBF0C970FB6CA
:100DE000F8949EBF0FBE8DBFADB7BEB711968CE015
:100DF000EBE7F3E001900D928A95E1F701E123E33F
:100E000038E044E353E063E483ED92E00E9426057A
:100E10008DB79EB70C970FB6F8949EBF0FBE8DBFCF
:100E2000ADB7BEB711968CE0EFE6F3E001900D92FE
:100E30008A95E1F703E023E338E044E353E064E418
:100E400082EB92E00E9426058DB79EB70C970FB6F5
:100E5000F8949EBF0FBE8DBFADB7BEB711968CE0A4
:100E6000E3E6F3E001900D928A95E1F702E023E3D7
:100E700038E044E353E065E481E992E00E9426050E
:100E80008DB79EB784960FB6F8949EBF0FBE8DBFE8
:100E90000C970FB6F8949EBF0FBE8DBFADB7BEB70F
:100EA00011968CE0E7E5F3E001900D928A95E1F769
:100EB00004E023E338E044E353E066E480E792E0B3
:100EC0000E9426058DB79EB70C960FB6F8949EBF6C
:100ED0000FBE8DBF0F9108955058BB27AA270E94BF
:100EE00084070C94D5080E94C70838F00E94CE08E9
:100EF00020F039F49F3F19F426F40C94C4080EF442
:100F0000E095E7FB0C94BE08E92F0E94E60858F331
:100F1000BA17620773078407950720F079F4A6F5DE
:100F20000C9408090EF4E0950B2EBA2FA02D0B019E
:100F3000B90190010C01CA01A0011124FF27591B1E
:100F400099F0593F50F4503E68F11A16F040A22F24
:100F5000232F342F4427585FF3CF46953795279595
:100F6000A795F0405395C9F77EF41F16BA0B620B94
:100F7000730B840BBAF09150A1F0FF0FBB1F661FDB
:100F8000771F881FC2F70EC0BA0F621F731F841F1E
:100F900048F4879577956795B795F7959E3F08F044
:100FA000B0CF9395880F08F09927EE0F9795879506
:100FB00008950E94ED070C94D5080E94CE0858F0C1
:100FC0000E94C70840F029F45F3F29F00C94BE0846
:100FD00051110C9409090C94C4080E94E60868F3A6
:100FE0009923B1F3552391F3951B550BBB27AA27E2
:100FF00062177307840738F09F5F5F4F220F331F1C
:10100000441FAA1FA9F335D00E2E3AF0E0E832D0E3
:1010100091505040E695001CCAF72BD0FE2F29D0E6
:10102000660F771F881FBB1F261737074807AB07B8
:10103000B0E809F0BB0B802DBF01FF2793585F4F2D
:101040003AF09E3F510578F00C94BE080C940909C3
:101050005F3FE4F3983ED4F3869577956795B7950F
:10106000F7959F5FC9F7880F911D9695879597F91A
:101070000895E1E0660F771F881FBB1F6217730793
:101080008407BA0720F0621B730B840BBA0BEE1FA8
:1010900088F7E09508950E9452086894B1110C9465
:1010A000090908950E94EE0888F09F5798F0B92F1B
:1010B0009927B751B0F0E1F0660F771F881F991F8D
:1010C0001AF0BA95C9F714C0B13091F00E9408091E
:1010D000B1E008950C940809672F782F8827B85F2E
:1010E00039F0B93FCCF3869577956795B395D9F7E5
:1010F0003EF490958095709561957F4F8F4F9F4FEF
:101100000895E89409C097FB3EF4909580957095FA
:1011100061957F4F8F4F9F4F9923A9F0F92F96E943
:10112000BB279395F695879577956795B795F111B8
:10113000F8CFFAF4BB0F11F460FF1BC06F5F7F4F55
:101140008F4F9F4F16C0882311F096E911C0772367
:1011500021F09EE8872F762F05C0662371F096E870
:10116000862F70E060E02AF09A95660F771F881F3F
:10117000DAF7880F9695879597F9089597F99F67FD
:1011800080E870E060E008959FEF80EC089500240F
:101190000A941616170618060906089500240A94DC
:1011A00012161306140605060895092E0394000C62
:1011B00011F4882352F0BB0F40F4BF2B11F460FFF1
:1011C00004C06F5F7F4F8F4F9F4F089557FD90581A
:1011D000440F551F59F05F3F71F04795880F97FBFB
:1011E000991F61F09F3F79F08795089512161306B5
:1011F0001406551FF2CF4695F1DF08C016161706E4
:101200001806991FF1CF8695710561050894089518
:10121000E894BB2766277727CB0197F908950E94AA
:10122000810908F48FEF08950E9427090C94D508CE
:101230000E94C70838F00E94CE0820F0952311F0D4
:101240000C94BE080C94C40811240C9409090E9443
:10125000E60870F3959FC1F3950F50E0551F629F0C
:10126000F001729FBB27F00DB11D639FAA27F00DFF
:10127000B11DAA1F649F6627B00DA11D661F829F26
:101280002227B00DA11D621F739FB00DA11D621F0B
:10129000839FA00D611D221F749F3327A00D611D28
:1012A000231F849F600D211D822F762F6A2F11240A
:1012B0009F5750409AF0F1F088234AF0EE0FFF1F3D
:1012C000BB1F661F771F881F91505040A9F79E3F94
:1012D000510580F00C94BE080C9409095F3FE4F3BB
:1012E000983ED4F3869577956795B795F795E795EA
:1012F0009F5FC1F7FE2B880F911D9695879597F9F3
:101300000895990F0008550FAA0BE0E8FEEF161696
:101310001706E807F907C0F012161306E407F507E9
:1013200098F0621B730B840B950B39F40A2661F05D
:10133000232B242B252B21F408950A2609F4A14000
:10134000A6958FEF811D811D0895FC01918D228D41
:10135000892F90E0805C9F4F821B91098F739927A2
:101360000895FC01918D828D981731F0828DE80FE0
:10137000F11D858D90E008958FEF9FEF0895FC019A
:10138000918D828D981761F0828DDF01A80FB11DBC
:101390005D968C91928D9F5F9F73928F90E00895E0
:1013A0008FEF9FEF0895FC01538D448D252F30E082
:1013B000842F90E0821B930B541710F0CF96089562
:1013C0000197089581E49BE0892B49F080E090E04B
:1013D000892B29F00E94410B81110C940000089583
:1013E000FC01848DDF01A80FB11DA35ABF4F2C91C2
:1013F000848D90E001968F739927848FA689B78991
:101400002C93A089B1898C91837080648C93938D87
:10141000848D981306C00288F389E02D80818F7D2A
:1014200080830895EF92FF920F931F93CF93DF93E2
:10143000EC0181E0888F9B8D8C8D981305C0E88925
:10144000F989808185FD26C0F62E0B8D10E00F5F97
:101450001F4F0F731127E02E8C8DE8120CC00FB6B2
:1014600007FCFACFE889F989808185FFF5CFCE01A5
:101470000E94F009F1CF8B8DFE01E80FF11DE35AB8
:10148000FF4FF0829FB7F8940B8FEA89FB89808128
:1014900080620AC09FB7F894EE89FF896083E8896B
:1014A000F98980818370806480839FBF81E090E0B0
:1014B000DF91CF911F910F91FF90EF900895CF93FF
:1014C000DF93EC01888D8823C9F0EA89FB8980814C
:1014D00085FD05C0A889B9898C9186FD0FC00FB61E
:1014E00007FCF5CF808185FFF2CFA889B9898C915F
:1014F00085FFEDCFCE010E94F009E7CFDF91CF91BC
:101500000895CF92DF92EF92FF921F93CF93DF93D4
:10151000EC016A017B01122FE889F98982E080835E
:101520004115514E61057105B1F060E079E08DE340
:1015300090E0A70196010E94CC14DA01C90101973D
:10154000A109B109B695A795979587959C01211595
:1015500080E13807A8F0E889F989108260E874E82A
:101560008EE190E0A70196010E94CC14DA01C90136
:101570000197A109B109B695A795979587959C0103
:10158000EC85FD853083EE85FF852083188EEC8900
:10159000FD891083EA89FB89808180618083EA89E3
:1015A000FB89808188608083EA89FB8980818068EB
:1015B0008083EA89FB8980818F7D8083DF91CF9151
:1015C0001F91FF90EF90DF90CF90089580E090E022
:1015D00008951F920F920FB60F9211242F938F939D
:1015E0009F93EF93FF93E091BB03F091BC03808145
:1015F000E091C103F091C20382FD12C090818091FD
:10160000C4038F5F8F732091C503821751F0E0915F
:10161000C403F0E0E555FC4F958F8093C40301C0EF
:101620008081FF91EF919F918F912F910F900FBE2D
:101630000F901F9018951F920F920FB60F921124C2
:101640002F933F934F935F936F937F938F939F93CA
:10165000AF93BF93EF93FF938BEA93E00E94F0095F
:10166000FF91EF91BF91AF919F918F917F916F917A
:101670005F914F913F912F910F900FBE0F901F9050
:1016800018958BEA93E00E94A50921E0892B09F4C3
:1016900020E0822F0895EBEAF3E01382128288EEB5
:1016A00093E0A0E0B0E084839583A683B78380E4D1
:1016B00092E09183808385EC90E09587848784EC29
:1016C00090E09787868780EC90E0918B808B81EC0F
:1016D00090E0938B828B82EC90E0958B848B86ECF0
:1016E00090E0978B868B118E128E138E148E089538
:1016F00008950E949C0E0E94780B0E945C05C2EE29
:10170000D9E00E94BE052097E1F30E94E209F9CFDB
:10171000CF92DF92EF92FF920F931F93CF93DF93BD
:101720006C017A018B01C0E0D0E0CE15DF0581F0BD
:10173000D8016D918D01D601ED91FC910190F08160
:10174000E02DC6010995892B11F02196EECF7E017F
:10175000C701DF91CF911F910F91FF90EF90DF9024
:10176000CF9008956115710579F0FB01019000207B
:10177000E9F73197AF01461B570BDC01ED91FC9166
:101780000280F381E02D099480E090E00895EF92CB
:10179000FF920F931F93CF93DF938C017B01C0E0E7
:1017A000D0E0F701EC0FFD1F6491662361F0D801D2
:1017B000ED91FC910190F081E02DC8010995892BF4
:1017C00011F02196EECFCE01DF91CF911F910F91B5
:1017D000FF90EF9008950C94B20BDC01ED91FC9119
:1017E0000190F081E02D09946EE472E00C94B20B4C
:1017F0000F931F93CF93DF93EC010E94C70B8C01D3
:10180000CE010E94F40B800F911FDF91CF911F91A9
:101810000F9108950F931F93CF93DF93EC010E94D4
:10182000B20B8C01CE010E94F40B800F911FDF914F
:10183000CF911F910F9108958F929F92AF92BF9277
:10184000EF92FF920F931F93CF93DF93CDB7DEB745
:10185000A1970FB6F894DEBF0FBECDBF7C01FA0191
:10186000CB0119A2223008F42AE08E010F5D1F4F30
:10187000822E912CA12CB12CBF01A50194010E94B4
:10188000CC14F901CA01015011096A3010F4605DED
:1018900001C0695CD8016C93232B242B252B61F7A5
:1018A000B801C7010E94B20BA1960FB6F894DEBF33
:1018B0000FBECDBFDF91CF911F910F91FF90EF90A1
:1018C000BF90AF909F908F9008952115310541F4FE
:1018D000DC01ED91FC910190F081E02D642F0994E1
:1018E0000C941C0C9A01462F50E060E070E00C94C0
:1018F000650C0F931F93CF93DF93EC010E94720C42
:101900008C01CE010E94F40B800F911FDF91CF91CB
:101910001F910F9108959A01AB0160E070E00C9463
:10192000650C0F931F93CF93DF93EC010E948B0CF8
:101930008C01CE010E94F40B800F911FDF91CF919B
:101940001F910F910895CF92DF92EF92FF920F9324
:101950001F93CF93DF932115310581F4DC01ED91C5
:10196000FC910190F081E02D642FDF91CF911F91C8
:101970000F91FF90EF90DF90CF9009942A303105BE
:1019800001F577FF1DC06A017B01EC016DE20E9449
:10199000ED0B8C0144275527BA014C195D096E09DE
:1019A0007F092AE0CE010E941C0C800F911FDF915D
:1019B000CF911F910F91FF90EF90DF90CF900895FE
:1019C0002AE0DF91CF911F910F91FF90EF90DF9070
:1019D000CF900C941C0C9A01AB01770F660B770B20
:1019E0000C94A30C0F931F93CF93DF93EC010E94F1
:1019F000EB0C8C01CE010E94F40B800F911FDF9144
:101A0000CF911F910F9108957F928F929F92AF92E5
:101A1000BF92CF92DF92EF92FF920F931F93CF93DB
:101A2000DF938C016A017B01722E9A01AB01C70121
:101A3000B6010E94C714882319F061E572E027C03F
:101A400046015701E894B7F82FEF3FEF4FE75FE704
:101A5000C501B4010E94C71481110DC02FEF3FEFE3
:101A60004FE75FE7C501B4010E94C21418161CF4C9
:101A700065E572E00CC02FEF3FEF4FE75FE4C70171
:101A8000B6010E940F09181694F469E572E0C801C6
:101A9000DF91CF911F910F91FF90EF90DF90CF904A
:101AA000BF90AF909F908F907F900C94B20B2FEFD0
:101AB0003FEF4FE75FECC701B6010E94C21487FDFC
:101AC000E4CF20E030E0A901C701B6010E94C214B2
:101AD00087FF0AC06DE2C8010E94ED0BEC01F7FA26
:101AE000F094F7F8F09402C0C0E0D0E0B12C60E0D0
:101AF00070E080E09FE37B1441F020E030E040E2C2
:101B000051E40E94D907B394F6CFA70196010E9431
:101B10006D076B017C010E9452084B015C012AE0B9
:101B2000AB01BC01C8010E941C0CC80FD91F772053
:101B3000B9F1C501B4010E9481089B01AC01C70144
:101B4000B6010E946C076B017C016EE2C8010E9425
:101B5000ED0BC80FD91F20E030E040E251E4C7018F
:101B6000B6010E9414094B015C010E9452086B01EE
:101B70007C014AE050E0C8010E948B0CC80FD91FBD
:101B8000B60180E090E00E9481089B01AC01C50194
:101B9000B4010E946C076B017C017A947110DBCF59
:101BA000CE01DF91CF911F910F91FF90EF90DF90C9
:101BB000CF90BF90AF909F908F907F9008950F939C
:101BC0001F93CF93DF93EC010E94040D8C01CE0193
:101BD0000E94F40B800F911FDF91CF911F910F9105
:101BE00008951F920F920FB60F9211242F933F93D7
:101BF0008F939F93AF93BF938091490490914A0430
:101C0000A0914B04B0914C043091480423E0230F81
:101C10002D3720F40196A11DB11D05C026E8230F24
:101C20000296A11DB11D209348048093490490930E
:101C30004A04A0934B04B0934C0480914D049091BE
:101C40004E04A0914F04B09150040196A11DB11D06
:101C500080934D0490934E04A0934F04B09350048E
:101C6000BF91AF919F918F913F912F910F900FBE98
:101C70000F901F9018953FB7F89480914D04909164
:101C80004E04A0914F04B091500426B5A89B05C006
:101C90002F3F19F00196A11DB11D3FBFBA2FA92FEB
:101CA000982F8827820F911DA11DB11DBC01CD0168
:101CB00042E0660F771F881F991F4A95D1F7089554
:101CC0008F929F92AF92BF92CF92DF92EF92FF924C
:101CD0006B017C010E943B0E4B015C01C114D104DD
:101CE000E104F10401F10E94F6100E943B0EDC01B8
:101CF000CB0188199909AA09BB09883E9340A1051F
:101D0000B10560F321E0C21AD108E108F10888EEBC
:101D1000880E83E0981EA11CB11CC114D104E104FB
:101D2000F10419F7DBCFFF90EF90DF90CF90BF90D9
:101D3000AF909F908F900895789484B5826084BD11
:101D400084B5816084BD85B5826085BD85B58160BF
:101D500085BDEEE6F0E0808181608083E1E8F0E01F
:101D60001082808182608083808181608083E0E84E
:101D7000F0E0808181608083E1EBF0E0808184602D
:101D80008083E0EBF0E0808181608083EAE7F0E02F
:101D90008081846080838081826080838081816093
:101DA00080838081806880831092C1000895833091
:101DB00081F028F4813099F08230A1F008958730C5
:101DC000A9F08830B9F08430D1F4809180008F7D03
:101DD00003C0809180008F7780938000089584B540
:101DE0008F7702C084B58F7D84BD08958091B00047
:101DF0008F7703C08091B0008F7D8093B0000895ED
:101E0000CF93DF9390E0FC01E95CFE4F2491FC014D
:101E1000E55BFE4F8491882361F190E0880F991F64
:101E2000FC01E759FE4FC591D491FC01E15AFE4FE8
:101E3000A591B491611109C09FB7F894888120954C
:101E400082238883EC912E230BC0623061F49FB70C
:101E5000F8948881322F309583238883EC912E2B40
:101E60002C939FBF06C08FB7F894E8812E2B288350
:101E70008FBFDF91CF9108951F93CF93DF93282FCA
:101E800030E0F901ED5DFE4F8491F901E95CFE4F10
:101E9000D491F901E55BFE4FC491CC23C1F0162F1C
:101EA00081110E94D70EEC2FF0E0EE0FFF1FE15AD8
:101EB000FE4FA591B4919FB7F894111104C08C9175
:101EC000D095D82302C0EC91DE2BDC939FBFDF912D
:101ED000CF911F910895CF93DF9300D0CDB7DEB798
:101EE00020911B0530911C05CE010196211531056D
:101EF00019F48F51954002C0821B930B9A838983FA
:101F000089819A810F900F90DF91CF9108958091F0
:101F1000850490E020918604821B91090895909198
:101F2000860480918504981750F4E92FF0E0E95772
:101F3000FB4F208130E09F5F9093860402C02FEF1B
:101F40003FEFC9010895E091860480918504E81768
:101F500030F4F0E0E957FB4F808190E008958FEF77
:101F60009FEF08950895CF93DF93EC01E0915D0416
:101F7000F0915E043097F1F0909186048091850491
:101F80009817C0F090E0292F30E02617370754F457
:101F9000DE01A20FB31F4C91D901A957BB4F4C933F
:101FA0009F5FF1CF1092860460938504CB01DF918F
:101FB000CF910994DF91CF910895E0915F04F09162
:101FC0006004309729F0109263041092620409941F
:101FD0000895CF92DF92EF92FF920F931F93CF93CA
:101FE000DF937C01CB018A0120916104222389F0D7
:101FF000EB016B01C40ED51ECC15DD0569F06991AE
:10200000D701ED91FC910190F081E02DC701099578
:10201000F3CF642F0E943611C801DF91CF911F9139
:102020000F91FF90EF90DF90CF900895CF93DF93C3
:102030001F92CDB7DEB76983209161042223D1F0CE
:1020400020916204203240F021E030E0FC01338333
:10205000228380E090E015C080916304E82FF0E0D7
:10206000EC59FB4F998190838F5F80936304809339
:10207000620405C061E0CE0101960E94361181E044
:1020800090E00F90DF91CF910895FC0113821282AE
:1020900088EE93E0A0E0B0E084839583A683B783C5
:1020A00081E692E0918380830895109286041092D5
:1020B000850410926304109262040E94F7108DED63
:1020C0009FE00E94631183EB9FE00C945E11CB01B3
:1020D000BA010C94221181E080936104609384041E
:1020E000109263041092620408950F93062F21E06A
:1020F0004091620464E674E0809184040E946D1251
:102100001092630410926204109261040F9108957A
:102110004F925F926F927F92AF92BF92CF92EF9267
:10212000FF920F931F93CF93DF935C01F62ED42F72
:1021300028013901EE2021F10E946B10CE2DC43010
:1021400008F0C3E0C150C0F028E0C29FC0011124D4
:10215000A301920104C056954795379527958A9516
:10216000D2F7CA01B901D501ED91FC910190F0813E
:10217000E02DC5010995E6CF60E0C5010E9475100C
:102180004D2FD13208F040E22C2D67E874E08F2DFE
:102190000E9484111092860480938504DF91CF9170
:1021A0001F910F91FF90EF90CF90BF90AF907F90D5
:1021B0006F905F904F900895CF92EF920F931F937F
:1021C000C22EE12C00E010E098010E9488101F91BF
:1021D0000F91EF90CF90089521E00C94DC1061E016
:1021E0000C94751081E594E00C94451008951092BC
:1021F0001A0581E0809318051092170561E082E1CD
:102200000E943C0F61E083E10E943C0FE9EBF0E0AB
:1022100080818E7F808380818D7F808388E480931E
:10222000B80085E48093BC000895ECEBF0E0808179
:102230008A7B808360E082E10E943C0F60E083E162
:102240000C943C0F9B01AC0160E074E284EF90E0E1
:102250000E94CC14DA01C9014097A109B109B695D1
:10226000A795979587958093B80008954091C904E4
:10227000262F30E0240F311D21323105DCF420916E
:102280001A052430C9F4FC0180E090E0861758F468
:102290003091C9042191DC01A553BB4FA30FB11D9F
:1022A0002C930196F3CF8091C904680F6093C90401
:1022B00080E0089581E0089582E0089590930E05EE
:1022C00080930D0508959093100580930F05089550
:1022D00085EC8093BC0010921A050895CF93DF938C
:1022E00091E090931205882361F0C091B800D091DD
:1022F000BA000E9415110E94F710D093BA00C09343
:10230000B800DF91CF9108954F925F926F927F92C4
:102310008F929F92AF92BF92CF92DF92EF92FF92F5
:102320000F931F93CF93DF93F82E162F072FC42FF1
:10233000E22E413208F0BEC00E943B0E4B015C0110
:10234000D0911A05DD2331F1809113059091140588
:10235000A0911505B0911605892B8A2B8B2B81F343
:102360000E943B0E40901305509014056090150597
:1023700070901605DC01CB0188199909AA09BB09DF
:10238000481659066A067B06D8F6809111050E9408
:102390006E1190C081E080931A05E09218059FEFBE
:1023A0009093A7041092EC049C0F9093EB048093FD
:1023B0001905909119058F2D880F892B8093190588
:1023C00080911705813089F5109217050E943B0E08
:1023D0006B017C01809119058093BB0080911305EE
:1023E00090911405A0911505B0911605892B8A2BA3
:1023F0008B2BA9F00E943B0E809013059090140542
:10240000A0901505B0901605DC01CB018C199D0933
:10241000AE09BF0988169906AA06BB0690F18091FD
:10242000BC0083FDD7CF85EC01C085EE8093BC0056
:102430000E943B0E6B017C0180911A05813031F5C1
:102440008091130590911405A0911505B091160582
:10245000892B8A2B8B2B81F30E943B0E80901305D6
:1024600090901405A0901505B0901605DC01CB01E5
:102470008C199D09AE09BF0988169906AA06BB06E4
:10248000D8F6809111050E946E1115C08091EC0460
:102490008C1710F4C091EC04ADEEB4E0912FE12F55
:1024A000F02F8E2F891B8C1718F48D918193F9CF03
:1024B000DC2F01C0D0E08D2FDF91CF911F910F91C4
:1024C000FF90EF90DF90CF90BF90AF909F908F9054
:1024D0007F906F905F904F9008954F925F926F92B0
:1024E0007F928F929F92AF92BF92CF92DF92EF92A4
:1024F000FF920F931F93CF93DF93413208F0C6C032
:10250000122FF42ED72EE62ED82F0E943B0E4B0111
:102510005C01C0911A05CC2311F1809113059091B3
:102520001405A0911505B0911605892B8A2B8B2BCC
:1025300081F30E943B0E409013055090140560906B
:10254000150570901605DC01CB0188199909AA09B7
:10255000BB09481659066A067B06D8F683C082E096
:1025600080931A05009318058FEF8093A7041092AB
:10257000EC04F092EB049E2DADEEB4E0EE2DFD2DBB
:102580008E2F891B8F1518F481918D93F9CF10929E
:10259000190590911905DD0FD92BD093190580915C
:1025A0001705813089F5109217050E943B0E6B01CB
:1025B0007C01809119058093BB0080911305909157
:1025C0001405A0911505B0911605892B8A2B8B2B2C
:1025D000A9F00E943B0E8090130590901405A090E6
:1025E0001505B0901605DC01CB018C199D09AE09CB
:1025F000BF0988169906AA06BB06A0F18091BC0007
:1026000083FDD7CF85EC01C085EE8093BC000E948E
:102610003B0E6B017C01112359F180911A05823028
:1026200039F58091130590911405A0911505B0918D
:102630001605892B8A2B8B2B71F30E943B0E809001
:10264000130590901405A0901505B0901605DC01B7
:10265000CB018C199D09AE09BF0988169906AA06F7
:10266000BB06C8F6809111050E946E11C5E013C02B
:102670008091A7048F3F79F08091A704803241F0C8
:102680008091A704803331F0C4E005C0C1E003C0ED
:10269000C2E001C0C3E08C2FDF91CF911F910F9159
:1026A000FF90EF90DF90CF90BF90AF909F908F9072
:1026B0007F906F905F904F90089585ED8093BC0060
:1026C0008091130590911405A0911505B091160500
:1026D0000796A11DB11D23E0B695A79597958795FF
:1026E0002A95D1F72091BC0024FF1CC0409113050E
:1026F000509114056091150570911605452B462BD8
:10270000472B81F30097A105B10541F025E32A95F8
:10271000F1F700000197A109B109E4CF80911105FB
:102720000C946E1110921A0508951F920F920FB615
:102730000F9211242F933F934F935F936F937F9347
:102740008F939F93AF93BF93EF93FF938091B900C3
:10275000887F803609F49EC078F5883209F45DC020
:1027600090F4803109F456C038F4882309F4F5C098
:10277000883009F44FC0F5C0883109F44EC080326A
:1027800009F45FC0EEC0803409F46AC058F48033A5
:1027900009F457C0883309F0E4C08093A7040E946D
:1027A0006811DFC0803509F44FC0883509F45DC079
:1027B000883409F0D6C0D3C0883909F4C4C0A8F45D
:1027C000883709F467C038F4883609F463C0803765
:1027D00009F460C0C6C0883809F4B5C0803909F46E
:1027E0005FC0803809F0BDC05BC0803B09F483C086
:1027F00038F4803A09F466C0883A09F47CC0B1C064
:10280000803C09F4A4C0883C09F4A1C0883B09F4C9
:1028100087C0A7C08091190510C09091EC048091E9
:10282000EB04981770F5E091EC0481E08E0F809333
:10283000EC04F0E0E351FB4F80818093BB0085EC1A
:1028400083C08093A7048BC0E091EC0481E08E0FDD
:102850008093EC048091BB00F0E0E351FB4F808358
:102860009091EC048091EB046BC0E091EC0481E06A
:102870008E0F8093EC048091BB00F0E0E351FB4F9E
:1028800080838091180581116AC081E080931705CB
:1028900084EA5EC083E080931A051092A804CFCF2B
:1028A0008091A804803208F04EC0E091A80481E035
:1028B0008E0F8093A8048091BB00F0E0E755FB4F9A
:1028C0008083BDCF0E9468118091A804803230F4CB
:1028D000E091A804F0E0E755FB4F10826091A80456
:1028E00070E0E0910D05F0910E0589EA94E00995FC
:1028F0001092A80436C084E080931A051092CA048E
:102900001092C904E0910F05F0911005099580918E
:10291000C904811105C081E08093C9041092CB04E1
:10292000E091CA0481E08E0F8093CA04F0E0E55381
:10293000FB4F80818093BB009091CA048091C904B1
:10294000981708F47CCF85E88093BC000AC085EC1A
:102950008093BC0010921A0504C01092A7040E9434
:102960005D13FF91EF91BF91AF919F918F917F91F7
:102970006F915F914F913F912F910F900FBE0F90EC
:102980001F9018950E94810908F481E008950E9423
:102990008109880B990B0895A1E21A2EAA1BBB1B73
:1029A000FD010DC0AA1FBB1FEE1FFF1FA217B3071B
:1029B000E407F50720F0A21BB30BE40BF50B661F31
:1029C000771F881F991F1A9469F7609570958095F5
:1029D00090959B01AC01BD01CF010895EE0FFF1F43
:0C29E0000590F491E02D0994F894FFCFCD
:1029EC00274706494E413233337265736574206351
:1029FC00686970004572726F723A20747279696EF0
:102A0C006720746F2073656E64206D6F726520741F
:102A1C0068656E2074776F2062797465732E206FF1
:102A2C006E6C792074776F206174206F6E636520F3
:102A3C00616C6C6F7765642E006572726F722069C1
:102A4C006E207472616E736D6974446174612829AF
:102A5C002066756E6374696F6E004572726F723AA0
:102A6C00204E6F206461746120746F207472616EEB
:102A7C00736D69747400616C61726D206C696D6941
:102A8C0074730043757272656E7420626974736E30
:102A9C00627574730073746174757320696E7075EC
:102AAC00743A20007465737420636F6D6D756E6974
:102ABC00636174696F6E7300526561646261636B0C
:102ACC00204D46525F4D4F44454C3A2000436F6DAC
:102ADC006D756E69636174696F6E206572726F7269
:102AEC0000496E697469616C697A6174696F6E0012
:102AFC004C6F6F70696E67203200566F6C74616733
:102B0C006520533A2000566F6C74616765204C3A0F
:102B1C00200043757272656E743A2000000000004C
:102B2C00120A880BD3095F0AA509BF09B1090D0A5E
:102B3C00006E616E00696E66006F766600000000C4
:102B4C00001610E90FE60AB20F870F8F0FA30F00C4
:00000001FF
