S00B00007372632E73726563D1
S11300000C94AB000C94D3000C94D3000C94D30048
S11300100C94D3000C94D3000C94D3000C94D30010
S11300200C94D3000C94D3000C94D3000C94D30000
S11300300C94D3000C94D3000C94D3000C94D300F0
S11300400C94890B0C94D3000C949A080C94CC084F
S11300500C94D3000C94D3000C94D3000C94D300D0
S11300600C94E0100C94D3007365742063616C6984
S113007062726174696F6E00726573657420616C7D
S113008061726D005556205741524E204C494D49DE
S11300905420726561646261636B3A200055562096
S11300A05741524E204C494D49543A20004F562056
S11300B05741524E204C494D495420726561646247
S11300C061636B3A20004F56205741524E204C49F1
S11300D04D49543A20004F43205741524E204C4939
S11300E04D495420726561646261636B3A20004F2C
S11300F043205741524E204C494D49543A20000068
S113010000000800020100000304070000000000D2
S113011000000001020408102040800102040810BD
S1130120200102040810200404040404040404024A
S1130130020202020203030303030300000000257A
S11301400028002B0000000000240027002A0000E3
S1130150B304FC083E0E11241FBECFEFD8E0DEBF6F
S1130160CDBF12E0A0E0B1E0E2E8F4E202C0059005
S11301700D92A034B107D9F724E0A0E4B2E001C0A5
S11301801D92A333B207E1F710E0CBEAD0E004C03C
S11301902197FE010E943912C83AD107C9F70E947B
S11301A02A090C943F120C9400000F93CF93DF9311
S11301B0CDB7DEB7DC016C9312965C934E93119726
S11301C014963C932E93139715960C9315972CE045
S11301D0FE013696169601900D922A95E1F72AE0D3
S11301E0FC017296DF01322F1D923A95E9F7DC018A
S11301F05C961C925C975D962C935D975E961C9220
S11302005E975F961C925F9790961C92DF91CF91B8
S11302100F910895CF93C62FFC01608189E693E086
S11302200E94B70D6C2F89E693E00E94620D89E667
S113023093E0CF910C943B0ECF93DF93EC0168E7EE
S113024070E083EC92E00E94A90963E0CE01DF91A3
S1130250CF910C940A01CF93DF93EC0166E071E037
S113026083EC92E00E94BB0962E1CE01DF91CF9161
S11302700C940A011F93CF93DF93FC01EB01142F1D
S11302809A85933018F061E171E004C091110FC0B8
S113029067E771E083EC92E00E94BB0966E571E0D8
S11302A083EC92E0DF91CF911F910C94BB096081A4
S11302B089E693E00E94B70D612F89E693E00E94DE
S11302C0620D688189E693E00E94620D8A8582301E
S11302D029F4698189E693E00E94620D89E693E03E
S11302E0DF91CF911F910C943B0EEF92FF920F93ED
S11302F01F93CF93DF93EC017B01022F8FE0FE016C
S113030011928A95E9F78AE08B87642FC7010E94CE
S11303100A01402FF701608189E693E00E94380EBC
S113032089E693E00E94D30C892B79F01A8589E63B
S113033093E00E94DB0CFE01E10FF11D80831F5F3F
S11303401A871A3068F381E08C878A85801718F43D
S113035081E08D8704C0081710F481E08E87CE01F8
S1130360DF91CF911F910F91FF90EF900895EF923D
S1130370FF920F931F93CF93DF93CDB7DEB72F97E1
S11303800FB6F894DEBF0FBECDBF8B01FB012285F3
S1130390BC01CE0101967C010E947501F8016285C1
S11303A070E0A801D701C8019D012E193F09261745
S11303B0370748F4FC013191CF012D913217A1F395
S11303C081E090E00BC0600F711F4617570721F0C2
S11303D0FA011192AF01F9CF80E090E02F960FB6A9
S11303E0F894DEBF0FBECDBFDF91CF911F910F9167
S11303F0FF90EF900895EF92FF920F931F93CF9386
S1130400DF93CDB7DEB72F970FB6F894DEBF0FBEDC
S1130410CDBF7C018E010F5F1F4F8FE0F801119259
S11304208A95E9F78AE08C8769837A8382E08B87EF
S113043040EDB801C7010E943A0140EDB801C7017F
S11304400E94B7012F960FB6F894DEBF0FBECDBF42
S1130450DF91CF911F910F91FF90EF900895CF926C
S1130460DF92EF92FF920F931F93CF93DF93CDB759
S1130470DEB72F970FB6F894DEBF0FBECDBF7C0159
S11304806B0168E670E083EC92E00E94A9098E019A
S11304900F5F1F4F8FE0F80111928A95E9F78AE008
S11304A08C87C982DA8282E08B8744EDB801C70168
S11304B00E943A0144EDB801C7010E94B7012F968A
S11304C00FB6F894DEBF0FBECDBFDF91CF911F9161
S11304D00F91FF90EF90DF90CF9008954F925F922D
S11304E06F927F92AF92BF92CF92DF92EF92FF9280
S11304F00F931F93CF93DF93CDB7DEB7AE970FB6AD
S1130500F894DEBF0FBECDBF5C01CF8ED8A2E9A2A6
S1130510FAA20BA31CA32DA33EA34FA358A769A71C
S11305207AA7CF8CD8A0E9A0FAA08BA19CA1ADA1F9
S1130530BEA18BA79CA7ADA7BEA74FA058A469A432
S11305407AA463E971E083EC92E00E94BB0920E0A5
S113055030E0A901C701B6010E94C00618160CF0CC
S113056051C0D50111966D917C91129780E090E075
S11305700E943206A70196010E94C5066B017C0108
S113058020E030E0A9010E94C00620E030E040E015
S11305905FE387FD05C0C701B6010E941E0504C0C4
S11305A0C701B6010E941D050E94FC058B017E0156
S11305B0B0E1EB0EF11C8FE0F70111928A95E9F797
S11305C08AE08B8F088B198B82E08A8F6FEE70E044
S11305D083EC92E00E94A9094AE050E0B80183EC60
S11305E092E00E94290A4AE4B701C5010E943A0137
S11305F022E04AE4B501CE0101960E94750166ED40
S113060070E0AFC020E030E0A9016BA57CA58DA50A
S11306109EA50E94C00618160CF04EC020E030E0E3
S113062048E454E46BA57CA58DA59EA50E94C5064F
S11306306B017C0120E030E0A9010E94C00620E0AB
S113064030E040E05FE387FD05C0C701B6010E94CA
S11306501E0504C0C701B6010E941D050E94FC05C9
S11306608B017E01F0E1EF0EF11C8FE0D7011D92AA
S11306708A95E9F78AE08B8F088B198B82E08A8F41
S113068066EC70E083EC92E00E94A9094AE050E035
S1130690B80183EC92E00E94290A47E5B701C5013D
S11306A00E943A0122E047E5B501CE0101960E947D
S11306B075016DEA70E055C020E030E0A901C30186
S11306C0B2010E94C00618160CF05AC020E030E0B7
S11306D048E454E4C301B2010E94C5066B017C01E5
S11306E020E030E0A9010E94C00620E030E040E0B4
S11306F05FE387FD05C0C701B6010E941E0504C063
S1130700C701B6010E941D050E94FC058B017E01F4
S1130710B0E1EB0EF11C8FE0F70111928A95E9F735
S11307208AE08B8F088B198B82E08A8F6DE970E0E9
S113073083EC92E00E94A9094AE050E0B80183ECFE
S113074092E00E94290A48E5B701C5010E943A01D6
S113075022E048E5B501CE0101960E94750164E8E6
S113076070E083EC92E00E94A90969817A814AE0F1
S113077050E083EC92E00E948A0A8AE090E000C094
S1130780AE960FB6F894DEBF0FBECDBFDF91CF910A
S11307901F910F91FF90EF90DF90CF90BF90AF909B
S11307A07F906F905F904F900895CF92DF92EF9279
S11307B0FF920F931F93CF93DF93EC010E942B01C1
S11307C06B817C81CE010E942F0281309105C1F0A2
S11307D0CE010E941C0161E08D810E94680CCE80D4
S11307E0DF80E884F9840A851B852C853D854E8548
S11307F05F8568897989CE010E946E0280E090E06D
S1130800DF91CF911F910F91FF90EF90DF90CF90E8
S11308100895CF92DF92EF92FF920F931F93CF939D
S1130820DF93CDB7DEB72F970FB6F894DEBF0FBEB8
S1130830CDBF7C0122E049E8BC01CE0101960E94B3
S1130840750109811A8160EA71E083EC92E00E94EB
S11308509C094AE050E0B80183EC92E00E948A0AC5
S1130860F7016181728180E090E00E9432069B0171
S1130870AC0160E070E080E89FE30E948A056B01B0
S11308807C01B801110F880B990B0E9434069B015F
S1130890AC01C701B6010E94C5062F960FB6F894A5
S11308A0DEBF0FBECDBFDF91CF911F910F91FF909F
S11308B0EF90DF90CF900895CF93DF9389E693E094
S11308C00E94A10D40E157E260E070E089E693E008
S11308D00E94B30D82E692E00E94D50361E089E0B4
S11308E00E94680C61E089E00E94A40CC3E8D2E095
S11308F00E94D30B699379938993999382E0CB3ABD
S1130900D807B1F726E040E855E260E070E083ECF8
S113091092E00E9432086EEF71E083EC92E00E9454
S1130920BB09C0E0D1E06091040170910501899197
S113093099910E94FB0181E0CE30D807A1F7DF91A5
S1130940CF91089561E0809140020E94A40C82E658
S113095092E00E940904AB01BC0122E030E083EC88
S113096092E00C94770B0F93E7EBF2E040E050E059
S113097060E070E4408351836283738380E090E09D
S1130980A0E5B1E484839583A683B783108611869A
S113099012861386EBEAF2E0408351836283738309
S11309A084839583A683B783108611861286138663
S11309B08DB79EB70C970FB6F8949EBF0FBE8DBF30
S11309C0ADB7BEB711968CE0E7EBF2E001900D9263
S11309D08A95E1F703E023E338E044E353E060E47D
S11309E082E692E00E94D5008DB79EB70C970FB6B1
S11309F0F8949EBF0FBE8DBFADB7BEB711968CE005
S1130A00EBEAF2E001900D928A95E1F705E023E329
S1130A1038E044E353E061E481E492E00E94D500CD
S1130A2083E0809340028DB79EB748960FB6F89442
S1130A309EBF0FBE8DBF0F9108955058BB27AA27A4
S1130A400E9435050C9486060E94780638F00E94B0
S1130A507F0620F039F49F3F19F426F40C947506B0
S1130A600EF4E095E7FB0C946F06E92F0E949706BD
S1130A7058F3BA17620773078407950720F079F4CF
S1130A80A6F50C94B9060EF4E0950B2EBA2FA02D02
S1130A900B01B90190010C01CA01A0011124FF2727
S1130AA0591B99F0593F50F4503E68F11A16F04022
S1130AB0A22F232F342F4427585FF3CF4695379521
S1130AC02795A795F0405395C9F77EF41F16BA0BE6
S1130AD0620B730B840BBAF09150A1F0FF0FBB1F94
S1130AE0661F771F881FC2F70EC0BA0F621F731FDD
S1130AF0841F48F4879577956795B795F7959E3F3A
S1130B0008F0B0CF9395880F08F09927EE0F9795CA
S1130B10879508950E949E050C9486060E947F0680
S1130B2058F00E94780640F029F45F3F29F00C94B5
S1130B306F0651110C94BA060C9475060E94970620
S1130B4068F39923B1F3552391F3951B550BBB27F8
S1130B50AA2762177307840738F09F5F5F4F220F3D
S1130B60331F441FAA1FA9F335D00E2E3AF0E0E834
S1130B7032D091505040E695001CCAF72BD0FE2F7E
S1130B8029D0660F771F881FBB1F26173707480712
S1130B90AB07B0E809F0BB0B802DBF01FF279358CA
S1130BA05F4F3AF09E3F510578F00C946F060C9419
S1130BB0BA065F3FE4F3983ED4F38695779567953C
S1130BC0B795F7959F5FC9F7880F911D96958795FF
S1130BD097F90895E1E0660F771F881FBB1F62171E
S1130BE073078407BA0720F0621B730B840BBA0BDC
S1130BF0EE1F88F7E09508950E9403066894B111EA
S1130C000C94BA0608950E949F0688F09F5798F0A6
S1130C10B92F9927B751B0F0E1F0660F771F881FFD
S1130C20991F1AF0BA95C9F714C0B13091F00E9417
S1130C30B906B1E008950C94B906672F782F882778
S1130C40B85F39F0B93FCCF3869577956795B3953E
S1130C50D9F73EF490958095709561957F4F8F4FAD
S1130C609F4F0895E89409C097FB3EF490958095B2
S1130C70709561957F4F8F4F9F4F9923A9F0F92F5E
S1130C8096E9BB279395F695879577956795B795DC
S1130C90F111F8CFFAF4BB0F11F460FF1BC06F5FC2
S1130CA07F4F8F4F9F4F16C0882311F096E911C0D4
S1130CB0772321F09EE8872F762F05C0662371F0F5
S1130CC096E8862F70E060E02AF09A95660F771F09
S1130CD0881FDAF7880F9695879597F9089597F9FD
S1130CE09F6780E870E060E008959FEF80EC0895CE
S1130CF000240A94161617061806090608950024F7
S1130D000A9412161306140605060895092E039470
S1130D10000C11F4882352F0BB0F40F4BF2B11F4E4
S1130D2060FF04C06F5F7F4F8F4F9F4F089557FD43
S1130D309058440F551F59F05F3F71F04795880F45
S1130D4097FB991F61F09F3F79F0879508951216DC
S1130D5013061406551FF2CF4695F1DF08C0161688
S1130D6017061806991FF1CF869571056105089439
S1130D700895E894BB2766277727CB0197F9089550
S1130D800E94320708F48FEF08950E94D8060C944D
S1130D9086060E94780638F00E947F0620F095238C
S1130DA011F00C946F060C94750611240C94BA0679
S1130DB00E94970670F3959FC1F3950F50E0551F5D
S1130DC0629FF001729FBB27F00DB11D639FAA279C
S1130DD0F00DB11DAA1F649F6627B00DA11D661FEB
S1130DE0829F2227B00DA11D621F739FB00DA11D0C
S1130DF0621F839FA00D611D221F749F3327A00DC6
S1130E00611D231F849F600D211D822F762F6A2F61
S1130E1011249F5750409AF0F1F088234AF0EE0FC6
S1130E20FF1FBB1F661F771F881F91505040A9F7F3
S1130E309E3F510580F00C946F060C94BA065F3FF8
S1130E40E4F3983ED4F3869577956795B795F7952F
S1130E50E7959F5FC1F7FE2B880F911D96958795A7
S1130E6097F90895990F0008550FAA0BE0E8FEEFD3
S1130E7016161706E807F907C0F012161306E4075A
S1130E80F50798F0621B730B840B950B39F40A2653
S1130E9061F0232B242B252B21F408950A2609F431
S1130EA0A140A6958FEF811D811D0895FC01918DB0
S1130EB0228D892F90E0805C9F4F821B91098F7354
S1130EC099270895FC01918D828D981731F0828DB8
S1130ED0E80FF11D858D90E008958FEF9FEF089541
S1130EE0FC01918D828D981761F0828DDF01A80F2E
S1130EF0B11D5D968C91928D9F5F9F73928F90E050
S1130F0008958FEF9FEF0895FC01538D448D252F95
S1130F1030E0842F90E0821B930B541710F0CF968F
S1130F2008950197089582EF98E0892B49F080E0B5
S1130F3090E0892B29F00E94F20881110C940000A2
S1130F400895FC01848DDF01A80FB11DA35ABF4F82
S1130F502C91848D90E001968F739927848FA689B4
S1130F60B7892C93A089B1898C91837080648C9308
S1130F70938D848D981306C00288F389E02D8081B7
S1130F808F7D80830895EF92FF920F931F93CF93E9
S1130F90DF93EC0181E0888F9B8D8C8D981305C0C5
S1130FA0E889F989808185FD26C0F62E0B8D10E035
S1130FB00F5F1F4F0F731127E02E8C8DE8120CC0AA
S1130FC00FB607FCFACFE889F989808185FFF5CF50
S1130FD0CE010E94A107F1CF8B8DFE01E80FF11D18
S1130FE0E35AFF4FF0829FB7F8940B8FEA89FB898D
S1130FF0808180620AC09FB7F894EE89FF8960837C
S1131000E889F98980818370806480839FBF81E04F
S113101090E0DF91CF911F910F91FF90EF90089591
S1131020CF93DF93EC01888D8823C9F0EA89FB898B
S1131030808185FD05C0A889B9898C9186FD0FC082
S11310400FB607FCF5CF808185FFF2CFA889B98957
S11310508C9185FFEDCFCE010E94A107E7CFDF91F0
S1131060CF910895CF92DF92EF92FF921F93CF9387
S1131070DF93EC016A017B01122FE889F98982E090
S113108080834115514E61057105B1F060E079E04E
S11310908DE390E0A70196010E941712DA01C901BD
S11310A00197A109B109B695A795979587959C01D4
S11310B0211580E13807A8F0E889F989108260E8F1
S11310C074E88EE190E0A70196010E941712DA01FC
S11310D0C9010197A109B109B695A7959795879577
S11310E09C01EC85FD853083EE85FF852083188E79
S11310F0EC89FD891083EA89FB8980818061808382
S1131100EA89FB89808188608083EA89FB89808100
S113111080688083EA89FB8980818F7D8083DF9169
S1131120CF911F91FF90EF90DF90CF90089580E0D2
S113113090E008951F920F920FB60F9211242F93EF
S11311408F939F93EF93FF93E091D302F091D40296
S11311508081E091D902F091DA0282FD12C090817F
S11311608091DC028F5F8F732091DD02821751F032
S1131170E091DC02F0E0ED53FD4F958F8093DC02AB
S113118001C08081FF91EF919F918F912F910F90DA
S11311900FBE0F901F9018951F920F920FB60F92CB
S11311A011242F933F934F935F936F937F938F9368
S11311B09F93AF93BF93EF93FF9383EC92E00E94CE
S11311C0A107FF91EF91BF91AF919F918F917F9173
S11311D06F915F914F913F912F910F900FBE0F90A0
S11311E01F90189583EC92E00E94560721E0892B0A
S11311F009F420E0822F0895E3ECF2E013821282D6
S113120088EE93E0A0E0B0E084839583A683B7835F
S113121081E192E09183808385EC90E095878487D7
S113122084EC90E09787868780EC90E0918B808BAC
S113123081EC90E0938B828B82EC90E0958B848B95
S113124086EC90E0978B868B118E128E138E148E03
S1131250089508950E94040C0E9429090E945C04C8
S1131260C3E9D7E00E94A2042097E1F30E94930708
S1131270F9CFCF92DF92EF92FF920F931F93CF9308
S1131280DF936C017A018B01C0E0D0E0CE15DF055D
S113129081F0D8016D918D01D601ED91FC91019001
S11312A0F081E02DC6010995892B11F02196EECF2E
S11312B07E01C701DF91CF911F910F91FF90EF90B5
S11312C0DF90CF9008956115710579F0FB010190CD
S11312D00020E9F73197AF01461B570BDC01ED9174
S11312E0FC910280F381E02D099480E090E0089560
S11312F0EF92FF920F931F93CF93DF938C017B01A7
S1131300C0E0D0E0F701EC0FFD1F6491662361F0AB
S1131310D801ED91FC910190F081E02DC80109956F
S1131320892B11F02196EECFCE01DF91CF911F9141
S11313300F91FF90EF9008950C946309DC01ED91F7
S1131340FC910190F081E02D09946FE172E00C941E
S113135063090F931F93CF93DF93EC010E947809E5
S11313608C01CE010E94A509800F911FDF91CF91BE
S11313701F910F9108950F931F93CF93DF93EC0167
S11313800E9463098C01CE010E94A509800F911F60
S1131390DF91CF911F910F9108958F929F92AF92F9
S11313A0BF92EF92FF920F931F93CF93DF93CDB72A
S11313B0DEB7A1970FB6F894DEBF0FBECDBF7C0198
S11313C0FA01CB0119A2223008F42AE08E010F5D44
S11313D01F4F822E912CA12CB12CBF01A501940189
S11313E00E941712F901CA01015011096A3010F460
S11313F0605D01C0695CD8016C93232B242B252BE1
S113140061F7B801C7010E946309A1960FB6F89469
S1131410DEBF0FBECDBFDF91CF911F910F91FF9023
S1131420EF90BF90AF909F908F9008952115310554
S113143041F4DC01ED91FC910190F081E02D642FE9
S113144009940C94CD099A01AB0160E070E00C940E
S1131450160A0F931F93CF93DF93EC010E94230A84
S11314608C01CE010E94A509800F911FDF91CF91BD
S11314701F910F910895CF92DF92EF92FF920F93F5
S11314801F93CF93DF932115310581F4DC01ED9196
S1131490FC910190F081E02D642FDF91CF911F9199
S11314A00F91FF90EF90DF90CF9009942A3031058F
S11314B001F577FF1DC06A017B01EC016DE20E941A
S11314C09E098C0144275527BA014C195D096E0900
S11314D07F092AE0CE010E94CD09800F911FDF9180
S11314E0CF911F910F91FF90EF90DF90CF900895CF
S11314F02AE0DF91CF911F910F91FF90EF90DF9041
S1131500CF900C94CD099A01AB01770F660B770B42
S11315100C943B0A0F931F93CF93DF93EC010E942B
S1131520830A8C01CE010E94A509800F911FDF91CF
S1131530CF911F910F9108957F928F929F92AF92B6
S1131540BF92CF92DF92EF92FF920F931F93CF93AC
S1131550DF938C016A017B01722E9A01AB01C701F2
S1131560B6010E941212882319F062E272E027C0C9
S113157046015701E894B7F82FEF3FEF4FE75FE7D5
S1131580C501B4010E94121281110DC02FEF3FEF6B
S11315904FE75FE7C501B4010E940D1218161CF451
S11315A066E272E00CC02FEF3FEF4FE75FE4C70144
S11315B0B6010E94C006181694F46AE272E0C801EB
S11315C0DF91CF911F910F91FF90EF90DF90CF901B
S11315D0BF90AF909F908F907F900C9463092FEFF2
S11315E03FEF4FE75FECC701B6010E940D1287FD84
S11315F0E4CF20E030E0A901C701B6010E940D123A
S113160087FF0AC06DE2C8010E949E09EC01F7FA47
S1131610F094F7F8F09402C0C0E0D0E0B12C60E0A0
S113162070E080E09FE37B1441F020E030E040E292
S113163051E40E948A05B394F6CFA70196010E9453
S11316401E056B017C010E9403064B015C012AE02C
S1131650AB01BC01C8010E94CD09C80FD91F772076
S1131660B9F1C501B4010E9432069B01AC01C70166
S1131670B6010E941D056B017C016EE2C8010E9447
S11316809E09C80FD91F20E030E040E251E4C701B1
S1131690B6010E94C5064B015C010E9403066B0162
S11316A07C014AE050E0C8010E94230AC80FD91FF8
S11316B0B60180E090E00E9432069B01AC01C501B6
S11316C0B4010E941D056B017C017A947110DBCF7B
S11316D0CE01DF91CF911F910F91FF90EF90DF909A
S11316E0CF90BF90AF909F908F907F9008950F936D
S11316F01F93CF93DF93EC010E949C0A8C01CE01CF
S11317000E94A509800F911FDF91CF911F910F9126
S113171008951F920F920FB60F9211242F933F93A7
S11317208F939F93AF93BF938091610390916203D2
S1131730A0916303B09164033091600323E0230F0D
S11317402D3720F40196A11DB11D05C026E8230FF5
S11317500296A11DB11D20936003809361039093B1
S11317606203A0936303B093640380916503909133
S11317706603A0916703B09168030196A11DB11D92
S11317808093650390936603A0936703B093680303
S1131790BF91AF919F918F913F912F910F900FBE69
S11317A00F901F9018952FB7F89460916103709172
S11317B0620380916303909164032FBF08953FB740
S11317C0F8948091650390916603A0916703B091AA
S11317D0680326B5A89B05C02F3F19F00196A11DEB
S11317E0B11D3FBFBA2FA92F982F8827820F911DB3
S11317F0A11DB11DBC01CD0142E0660F771F881FFA
S1131800991F4A95D1F70895789484B5826084BD70
S113181084B5816084BD85B5826085BD85B58160F0
S113182085BDEEE6F0E0808181608083E1E8F0E050
S11318301082808182608083808181608083E0E87F
S1131840F0E0808181608083E1EBF0E0808184605E
S11318508083E0EBF0E0808181608083EAE7F0E060
S113186080818460808380818260808380818160C4
S113187080838081806880831092C10008958330C2
S113188081F028F4813099F08230A1F008958730F6
S1131890A9F08830B9F08430D1F4809180008F7D34
S11318A003C0809180008F7780938000089584B571
S11318B08F7702C084B58F7D84BD08958091B00078
S11318C08F7703C08091B0008F7D8093B00008951E
S11318D0CF93DF9390E0FC01ED5EFE4F2491FC0179
S11318E0E95DFE4F8491882361F190E0880F991F90
S11318F0FC01EB5BFE4FC591D491FC01E55CFE4F0E
S1131900A591B491611109C09FB7F894888120957D
S113191082238883EC912E230BC0623061F49FB73D
S1131920F8948881322F309583238883EC912E2B71
S11319302C939FBF06C08FB7F894E8812E2B288381
S11319408FBFDF91CF9108951F93CF93DF93282FFB
S113195030E0F901E150FF4F8491F901ED5EFE4F53
S1131960D491F901E95DFE4FC491CC23C1F0162F47
S113197081110E943F0CEC2FF0E0EE0FFF1FE55C9D
S1131980FE4FA591B4919FB7F894111104C08C91A6
S1131990D095D82302C0EC91DE2BDC939FBFDF915E
S11319A0CF911F91089580919D0390E020919E0313
S11319B0821B9109089590919E0380919D0398172D
S11319C050F4E92FF0E0E156FC4F208130E09F5FB6
S11319D090939E0302C02FEF3FEFC9010895E09159
S11319E09E0380919D03E81730F4F0E0E156FC4F2C
S11319F0808190E008958FEF9FEF08950895CF932D
S1131A00DF93EC01E0917503F09176033097F1F0E8
S1131A1090919E0380919D039817C0F090E0292F28
S1131A2030E02617370754F4DE01A20FB31F4C91A0
S1131A30D901A156BC4F4C939F5FF1CF10929E03E6
S1131A4060939D03CB01DF91CF910994DF91CF91F6
S1131A500895E0917703F0917803309729F010927C
S1131A607B0310927A0309940895CF92DF92EF9248
S1131A70FF920F931F93CF93DF937C01CB018A01D5
S1131A8020917903222389F0EB016B01C40ED51E4A
S1131A90CC15DD0569F06991D701ED91FC910190B8
S1131AA0F081E02DC7010995F3CF642F0E94810EC8
S1131AB0C801DF91CF911F910F91FF90EF90DF90BC
S1131AC0CF900895CF93DF931F92CDB7DEB769838C
S1131AD0209179032223D1F020917A03203240F01F
S1131AE021E030E0FC013383228380E090E015C0E4
S1131AF080917B03E82FF0E0E458FC4F99819083B8
S1131B008F5F80937B0380937A0305C061E0CE01ED
S1131B1001960E94810E81E090E00F90DF91CF91B9
S1131B200895FC011382128288EE93E0A0E0B0E0F5
S1131B3084839583A683B78382E392E09183808331
S1131B40089510929E0310929D0310927B031092AD
S1131B507A030E94420E89E29DE00E94AE0E8FEF4E
S1131B609CE00C94A90ECB01BA010C946D0E81E09B
S1131B708093790360939C0310927B0310927A0301
S1131B8008950F93062F21E040917A036CE773E0E8
S1131B9080919C030E94B80F10927B0310927A03E9
S1131BA0109279030F9108954F925F926F927F92F2
S1131BB0AF92BF92CF92EF92FF920F931F93CF9366
S1131BC0DF935C01F62ED42F28013901EE2021F198
S1131BD00E94B70DCE2DC43008F0C3E0C150C0F050
S1131BE028E0C29FC0011124A301920104C05695AC
S1131BF04795379527958A95D2F7CA01B901D5013A
S1131C00ED91FC910190F081E02DC5010995E6CF9D
S1131C1060E0C5010E94C10D4D2FD13208F040E2B1
S1131C202C2D6FE973E08F2D0E94CF0E10929E032E
S1131C3080939D03DF91CF911F910F91FF90EF90BF
S1131C40CF90BF90AF907F906F905F904F9008952A
S1131C50CF92EF920F931F93C22EE12C00E010E07D
S1131C6098010E94D40D1F910F91EF90CF90089589
S1131C7021E00C94280E61E00C94C10D89E693E0F8
S1131C800C94910D1092320481E0809330041092F0
S1131C902F0461E082E10E94A40C61E083E10E94D0
S1131CA0A40CE9EBF0E080818E7F808380818D7FBE
S1131CB0808388E48093B80085E48093BC00089511
S1131CC0ECEBF0E080818A7B808360E082E10E941B
S1131CD0A40C60E083E10C94A40C9B01AC0160E0D3
S1131CE074E284EF90E00E941712DA01C901409770
S1131CF0A109B109B695A795979587958093B800E2
S1131D0008954091E103262F30E0240F311D213244
S1131D103105DCF4209132042430C9F4FC0180E064
S1131D2090E0861758F43091E1032191DC01AD5124
S1131D30BC4FA30FB11D2C930196F3CF8091E10307
S1131D40680F6093E10380E0089581E0089582E0E4
S1131D50089590932604809325040895909328046D
S1131D6080932704089585EC8093BC00109232047C
S1131D700895CF93DF9391E090932A04882361F030
S1131D80C091B800D091BA000E94600E0E94420E29
S1131D90D093BA00C093B800DF91CF9108954F92C9
S1131DA05F926F927F928F929F92AF92BF92CF92E7
S1131DB0DF92EF92FF920F931F93CF93DF93F82E4E
S1131DC0162F072FC42FE22E413208F0BEC00E9406
S1131DD0DF0B4B015C01D0913204DD2331F18091A2
S1131DE02B0490912C04A0912D04B0912E04892BE6
S1131DF08A2B8B2B81F30E94DF0B40902B04509095
S1131E002C0460902D0470902E04DC01CB01881901
S1131E109909AA09BB09481659066A067B06D8F629
S1131E20809129040E94B90E90C081E0809332040D
S1131E30E09230049FEF9093BF03109204049C0F30
S1131E409093030480933104909131048F2D880F73
S1131E50892B8093310480912F04813089F510926D
S1131E602F040E94DF0B6B017C018091310480936D
S1131E70BB0080912B0490912C04A0912D04B0916F
S1131E802E04892B8A2B8B2BA9F00E94DF0B8090C8
S1131E902B0490902C04A0902D04B0902E04DC010F
S1131EA0CB018C199D09AE09BF0988169906AA06AB
S1131EB0BB0690F18091BC0083FDD7CF85EC01C0B7
S1131EC085EE8093BC000E94DF0B6B017C01809146
S1131ED03204813031F580912B0490912C04A0912F
S1131EE02D04B0912E04892B8A2B8B2B81F30E9415
S1131EF0DF0B80902B0490902C04A0902D04B090C4
S1131F002E04DC01CB018C199D09AE09BF0988168A
S1131F109906AA06BB06D8F6809129040E94B90E38
S1131F2015C0809104048C1710F4C0910404A5E03A
S1131F30B4E0912FE12FF02F8E2F891B8C1718F40A
S1131F408D918193F9CFDC2F01C0D0E08D2FDF91EB
S1131F50CF911F910F91FF90EF90DF90CF90BF90A2
S1131F60AF909F908F907F906F905F904F90089567
S1131F704F925F926F927F928F929F92AF92BF9295
S1131F80CF92DF92EF92FF920F931F93CF93DF9341
S1131F90413208F0C6C0122FF42ED72EE62ED82FC9
S1131FA00E94DF0B4B015C01C0913204CC2311F180
S1131FB080912B0490912C04A0912D04B0912E04B7
S1131FC0892B8A2B8B2B81F30E94DF0B40902B04EF
S1131FD050902C0460902D0470902E04DC01CB01F1
S1131FE088199909AA09BB09481659066A067B0685
S1131FF0D8F683C082E080933204009330048FEFDC
S11320008093BF0310920404F09203049E2DA5E074
S1132010B4E0EE2DFD2D8E2F891B8F1518F48191C0
S11320208D93F9CF1092310490913104DD0FD92BA7
S1132030D093310480912F04813089F510922F04BC
S11320400E94DF0B6B017C01809131048093BB0003
S113205080912B0490912C04A0912D04B0912E0416
S1132060892B8A2B8B2BA9F00E94DF0B80902B04E9
S113207090902C04A0902D04B0902E04DC01CB0190
S11320808C199D09AE09BF0988169906AA06BB06D4
S1132090A0F18091BC0083FDD7CF85EC01C085EE13
S11320A08093BC000E94DF0B6B017C01112359F16A
S11320B080913204823039F580912B0490912C0464
S11320C0A0912D04B0912E04892B8A2B8B2B71F3B4
S11320D00E94DF0B80902B0490902C04A0902D0480
S11320E0B0902E04DC01CB018C199D09AE09BF0907
S11320F088169906AA06BB06C8F6809129040E9490
S1132100B90EC5E013C08091BF038F3F79F0809171
S1132110BF03803241F08091BF03803331F0C4E0CB
S113212005C0C1E003C0C2E001C0C3E08C2FDF9151
S1132130CF911F910F91FF90EF90DF90CF90BF90C0
S1132140AF909F908F907F906F905F904F90089585
S113215085ED8093BC0080912B0490912C04A09178
S11321602D04B0912E040796A11DB11D23E0B69550
S1132170A795979587952A95D1F72091BC0024FFC0
S11321801CC040912B0450912C0460912D0470913B
S11321902E04452B462B472B81F30097A105B1054F
S11321A041F025E32A95F1F700000197A109B1094F
S11321B0E4CF809129040C94B90E1092320408954E
S11321C01F920F920FB60F9211242F933F934F93A8
S11321D05F936F937F938F939F93AF93BF93EF938B
S11321E0FF938091B900887F803609F49EC078F50A
S11321F0883209F45DC090F4803109F456C038F493
S1132200882309F4F5C0883009F44FC0F5C088313B
S113221009F44EC0803209F45FC0EEC0803409F482
S11322206AC058F4803309F457C0883309F0E4C015
S11322308093BF030E94B30EDFC0803509F44FC002
S1132240883509F45DC0883409F0D6C0D3C0883914
S113225009F4C4C0A8F4883709F467C038F4883690
S113226009F463C0803709F460C0C6C0883809F433
S1132270B5C0803909F45FC0803809F0BDC05BC0C7
S1132280803B09F483C038F4803A09F466C0883A84
S113229009F47CC0B1C0803C09F4A4C0883C09F4B2
S11322A0A1C0883B09F487C0A7C08091310410C045
S11322B09091040480910304981770F5E09104044C
S11322C081E08E0F80930404F0E0EB5FFB4F80818C
S11322D08093BB0085EC83C08093BF038BC0E091E7
S11322E0040481E08E0F809304048091BB00F0E02D
S11322F0EB5FFB4F808390910404809103046BC0D7
S1132300E091040481E08E0F809304048091BB006B
S1132310F0E0EB5FFB4F80838091300481116AC051
S113232081E080932F0484EA5EC083E080933204CA
S11323301092C003CFCF8091C003803208F04EC00A
S1132340E091C00381E08E0F8093C0038091BB00B5
S1132350F0E0EF53FC4F8083BDCF0E94B30E809119
S1132360C003803230F4E091C003F0E0EF53FC4F3F
S113237010826091C00370E0E0912504F09126047E
S113238081EC93E009951092C00336C084E08093F9
S113239032041092E2031092E103E0912704F091D9
S11323A0280409958091E103811105C081E080939F
S11323B0E1031092E303E091E20381E08E0F809346
S11323C0E203F0E0ED51FC4F80818093BB009091DB
S11323D0E2038091E103981708F47CCF85E88093A9
S11323E0BC000AC085EC8093BC001092320404C087
S11323F01092BF030E94A810FF91EF91BF91AF917B
S11324009F918F917F916F915F914F913F912F9108
S11324100F900FBE0F901F9018950E94320708F47A
S113242081E008950E943207880B990B0895A1E278
S11324301A2EAA1BBB1BFD010DC0AA1FBB1FEE1F3A
S1132440FF1FA217B307E407F50720F0A21BB30B85
S1132450E40BF50B661F771F881F991F1A9469F701
S113246060957095809590959B01AC01BD01CF015D
S11324700895EE0FFF1F0590F491E02D0994F89450
S1052480FFCF88
S1132482620241022747726573657420636869704A
S1132492004572726F723A20747279696E672074A1
S11324A26F2073656E64206D6F7265207468656E4B
S11324B22074776F2062797465732E206F6E6C7945
S11324C22074776F206174206F6E636520616C6C79
S11324D26F7765642E006572726F7220696E207464
S11324E272616E736D697444617461282920667522
S11324F26E6374696F6E004572726F723A204E6F2A
S1132502206461746120746F207472616E736D69EA
S1132512747400616C61726D206C696D697473000E
S113252243757272656E7420626974736E62757437
S1132532730073746174757320696E7075743A20D4
S1132542007465737420636F6D6D756E6963617475
S1132552696F6E7300526561646261636B204D46FC
S1132562525F4D4F44454C3A2000436F6D6D756E7A
S113257269636174696F6E206572726F7200496E6D
S1132582697469616C697A6174696F6E0000000034
S113259200C3073909840710085607700762070D3C
S11325A20A006E616E00696E66006F766600000056
S11325B20000620D350D9708FE0CD30CDB0CEF0CFA
S9030000FC
