:100000000C94BD000C94E5000C94E5000C94E50004
:100010000C94E5000C94E5000C94E5000C94E500CC
:100020000C94E5000C94E5000C94E5000C94E500BC
:100030000C94E5000C94E5000C94E5000C94E500AC
:100040000C94B80D0C94E5000C94B00A0C94E20AE0
:100050000C94E5000C94E5000C94E5000C94E5008C
:100060000C945C130C94E5007365742063616C69F7
:1000700062726174696F6E00726573657420616C81
:1000800061726D005556205741524E204C494D49E2
:100090005420726561646261636B3A20005556209A
:1000A0005741524E204C494D49543A20004F56205A
:1000B0005741524E204C494D49542072656164624B
:1000C00061636B3A20004F56205741524E204C49F5
:1000D0004D49543A20004F43205741524E204C493D
:1000E0004D495420726561646261636B3A20004F30
:1000F00043205741524E204C494D49543A20006606
:100100007265654D656D6F727928293D006C6F6F62
:1001100070696E6700667265654D656D6F727928EE
:10012000293D000000000800020100000304070050
:1001300000000000000000010204081020408001BF
:10014000020408102001020408102004040404041E
:100150000404040202020202020303030303030075
:10016000000000250028002B0000000000240027CC
:10017000002A00008A06120BB91011241FBECFEF0F
:10018000D8E0DEBFCDBF12E0A0E0B1E0EAE7F9E2DF
:1001900002C005900D92A836B107D9F724E0A8E671
:1001A000B2E001C01D92AC3BB207E1F710E0CDEB2D
:1001B000D0E004C02197FE010E94B514CA3BD107CC
:1001C000C9F70E94400B0C94BB140C940000CF9311
:1001D000C62FFC0160818EEE93E00E9432106C2FDE
:1001E0008EEE93E00E94DD0F8EEE93E0CF910C94A3
:1001F000B610CF93DF93EC0168E770E088E493E0FA
:100200000E94BF0B63E0CE01DF91CF910C94E70019
:10021000CF93DF93EC0162E071E088E493E00E9409
:10022000D10B62E1CE01DF91CF910C94E7001F93D7
:10023000CF93DF93FC01EB01142F9A85933018F0D4
:100240006DE071E004C091110FC063E771E088E4D4
:1002500093E00E94D10B62E571E088E493E0DF91C6
:10026000CF911F910C94D10B60818EEE93E00E9490
:100270003210612F8EEE93E00E94DD0F68818EEECA
:1002800093E00E94DD0F8A85823029F469818EEE29
:1002900093E00E94DD0F8EEE93E0DF91CF911F91EE
:1002A0000C94B610EF92FF920F931F93CF93DF93AE
:1002B000CDB7DEB72F970FB6F894DEBF0FBECDBF18
:1002C0008C017B0168E670E088E493E00E94BF0B3C
:1002D000BE016F5F7F4F8FE0FB0111928A95E9F7B6
:1002E0008AE08C87E982FA8282E08B8744EDC8013C
:1002F0000E9417012F960FB6F894DEBF0FBECDBF38
:10030000DF91CF911F910F91FF90EF900895CF93C0
:10031000DF93EC010E9408016B817C81CE010E9479
:100320005201CE010E94F90080E090E0DF91CF9170
:100330000895CF93DF93FC0160835283418334831C
:1003400023838AE0DF011596ED01982F19929A9583
:10035000E9F71786808B118A128A138ACF01DF9101
:10036000CF910C948701EF92FF920F931F93CF933D
:10037000DF93EC017B01022F8FE0FE0111928A9541
:10038000E9F78AE08B87642FC7010E94E700402FBE
:10039000F70160818EEE93E00E94B3108EEE93E041
:1003A0000E944E0F892B79F01A858EEE93E00E9401
:1003B000560FFE01E10FF11D80831F5F1A871A306F
:1003C00068F381E08C878A85801718F481E08D8737
:1003D00004C0081710F481E08E87CE01DF91CF9121
:1003E0001F910F91FF90EF900895EF92FF920F935E
:1003F0001F93CF93DF93CDB7DEB72F970FB6F89447
:10040000DEBF0FBECDBF8B01FB012285BC01CE013B
:1004100001967C010E94B301F801628570E0A80199
:10042000D701C8019D012E193F092617370748F447
:10043000FC013191CF012D913217A1F381E090E0C1
:100440000BC0600F711F4617570721F0FA01119278
:10045000AF01F9CF80E090E02F960FB6F894DEBFA1
:100460000FBECDBFDF91CF911F910F91FF90EF9005
:100470000895EF92FF920F931F93CF93DF93CDB721
:10048000DEB72F970FB6F894DEBF0FBECDBF7C014D
:100490008E010F5F1F4F8FE0F80111928A95E9F7E7
:1004A0008AE08C8769837A8382E08B8740EDB8018C
:1004B000C7010E94170140EDB801C7010E94F50174
:1004C0002F960FB6F894DEBF0FBECDBFDF91CF9150
:1004D0001F910F91FF90EF9008954F925F926F924E
:1004E0007F92AF92BF92CF92DF92EF92FF920F93E3
:1004F0001F93CF93DF93CDB7DEB7AE970FB6F894C7
:10050000DEBF0FBECDBF5C01CF8ED8A2E9A2FAA29A
:100510000BA31CA32DA33EA34FA358A769A77AA79B
:10052000CF8CD8A0E9A0FAA08BA19CA1ADA1BEA1BF
:100530008BA79CA7ADA7BEA74FA058A469A47AA477
:100540006FE871E088E493E00E94D10B20E030E096
:10055000A901C701B6010E94D60818160CF051C0B7
:10056000D50111966D917C91129780E090E00E94E8
:100570004808A70196010E94DB086B017C0120E07E
:1005800030E0A9010E94D60820E030E040E05FE3BF
:1005900087FD05C0C701B6010E94340704C0C7012A
:1005A000B6010E9433070E9412088B017E01B0E160
:1005B000EB0EF11C8FE0F70111928A95E9F78AE0C2
:1005C0008B8F088B198B82E08A8F6FEE70E088E446
:1005D00093E00E94BF0B4AE050E0B80188E493E04A
:1005E0000E94580C4AE4B701C5010E94170122E09D
:1005F0004AE4B501CE0101960E94B30166ED70E0B8
:10060000AFC020E030E0A9016BA57CA58DA59EA51B
:100610000E94D60818160CF04EC020E030E048E4E6
:1006200054E46BA57CA58DA59EA50E94DB086B01FB
:100630007C0120E030E0A9010E94D60820E030E0F3
:1006400040E05FE387FD05C0C701B6010E943407A3
:1006500004C0C701B6010E9433070E9412088B0133
:100660007E01F0E1EF0EF11C8FE0D7011D928A951B
:10067000E9F78AE08B8F088B198B82E08A8F66EC12
:1006800070E088E493E00E94BF0B4AE050E0B801BC
:1006900088E493E00E94580C47E5B701C5010E9429
:1006A000170122E047E5B501CE0101960E94B30192
:1006B0006DEA70E055C020E030E0A901C301B2014D
:1006C0000E94D60818160CF05AC020E030E048E42A
:1006D00054E4C301B2010E94DB086B017C0120E0FD
:1006E00030E0A9010E94D60820E030E040E05FE35E
:1006F00087FD05C0C701B6010E94340704C0C701C9
:10070000B6010E9433070E9412088B017E01B0E1FE
:10071000EB0EF11C8FE0F70111928A95E9F78AE060
:100720008B8F088B198B82E08A8F6DE970E088E4EB
:1007300093E00E94BF0B4AE050E0B80188E493E0E8
:100740000E94580C48E5B701C5010E94170122E03C
:1007500048E5B501CE0101960E94B30164E870E05E
:1007600088E493E00E94BF0B69817A814AE050E0FF
:1007700088E493E00E94B90C8AE090E000C0AE9655
:100780000FB6F894DEBF0FBECDBFDF91CF911F91A2
:100790000F91FF90EF90DF90CF90BF90AF907F9040
:1007A0006F905F904F900895CF93DF93CDB7DEB7F2
:1007B0002F970FB6F894DEBF0FBECDBF22E048E8FA
:1007C000BC01CE0101960E94B30169817A81072E96
:1007D000000C880B990B0E944A0820E030E048E4A6
:1007E00054E40E94A0072F960FB6F894DEBF0FBE08
:1007F000CDBFDF91CF910895CF93DF93CDB7DEB713
:100800002F970FB6F894DEBF0FBECDBF22E041EDAB
:10081000BC01CE0101960E94B30169817A81072E45
:10082000000C880B990B0E944A0820E030E048EC4D
:1008300051E40E94DB0820E836E948E15BE40E94CD
:10084000A0072F960FB6F894DEBF0FBECDBFDF9185
:10085000CF910895CF92DF92EF92FF920F931F9363
:10086000CF93DF93CDB7DEB72F970FB6F894DEBFE7
:100870000FBECDBF7C0122E049E8BC01CE0101964C
:100880000E94B30109811A816CE971E088E493E068
:100890000E94B20B4AE050E0B80188E493E00E9465
:1008A000B90CF7016181728180E090E00E944808F4
:1008B0009B01AC0160E070E080E89FE30E94A0072C
:1008C0006B017C01B801110F880B990B0E944A083B
:1008D0009B01AC01C701B6010E94DB082F960FB641
:1008E000F894DEBF0FBECDBFDF91CF911F910F9166
:1008F000FF90EF90DF90CF900895CF93DF93CDB727
:10090000DEB72F970FB6F894DEBF0FBECDBF21E044
:100910004CE7BC01CE0101960E94B3016EEA71E082
:1009200088E493E00E94B20B42E050E0698188E4E1
:1009300093E02F960FB6F894DEBF0FBECDBFDF91C8
:10094000CF910C94400CCF92DF92EF92FF920F93D5
:100950001F938EEE93E00E941C1040E157E260E08E
:1009600070E08EEE93E00E942E1026E040E855E203
:1009700060E070E088E493E00E94480A6AEF71E06A
:1009800088E493E00E94D10B80EE92E00E94870100
:10099000C0903C03D0903D03E0903E03F0903F03B5
:1009A0000091400310914103209142033091430391
:1009B0004091440350914503609146037091470371
:1009C00080EE92E00E946D02609100017091010141
:1009D00080EE92E00E94390261E083E00E94C70E3F
:1009E00061E083E00E94030F8CEC92E00E9487019B
:1009F000C0903003D0903103E0903203F090330385
:100A00000091340310913503209136033091370360
:100A1000409138035091390360913A0370913B0340
:100A20008CEC92E00E946D026091000170910101D6
:100A30008CEC92E00E94390261E085E00E94C70ED2
:100A400061E085E00E94030F88EB92E00E9487013D
:100A5000C0902403D0902503E0902603F090270354
:100A6000009128031091290320912A0330912B0330
:100A700040912C0350912D0360912E0370912F0310
:100A800088EB92E00E946D0260910001709101017B
:100A900088EB92E00E94390261E086E00E94C70E76
:100AA00061E086E00E94030F84EA92E00E948701E1
:100AB000C0901803D0901903E0901A03F0901B0324
:100AC00000911C0310911D0320911E0330911F0300
:100AD00040912003509121036091220370912303E0
:100AE00084EA92E00E946D02609100017091010120
:100AF00084EA92E00E94390261E08AE00E94C70E17
:100B000061E08AE00E94030F80E992E00E94870181
:100B1000C0900C03D0900D03E0900E03F0900F03F3
:100B200000911003109111032091120330911303CF
:100B300040911403509115036091160370911703AF
:100B400080E992E00E946D026091000170910101C4
:100B500080E992E00E94390261E08FE00E94C70EB6
:100B600061E08FE00E94030F8CE792E00E94870112
:100B7000C0900003D0900103E0900203F0900303C3
:100B8000009104031091050320910603309107039F
:100B9000409108035091090360910A0370910B037F
:100BA0008CE792E00E946D0260910001709101015A
:100BB0008CE792E00E94390261E080E10E94C70E5A
:100BC00061E080E10E94030F88E692E00E948701C5
:100BD000C090F402D090F502E090F602F090F70297
:100BE0000091F8021091F9022091FA023091FB0273
:100BF0004091FC025091FD026091FE027091FF0253
:100C000088E692E00E946D026091000170910101FE
:100C100088E692E00E94390265E171E088E493E0A1
:100C20000E948E0B0E94320F4AE050E0BC0188E423
:100C300093E01F910F91FF90EF90DF90CF900C9475
:100C4000B90CCF92DF92EF92FF926DE071E088E4F1
:100C500093E00E94BF0B6FEF70E088E493E00E9486
:100C60008E0B0E94320F4AE050E0BC0188E493E012
:100C70000E94B90C69E072E088E493E00E94D10B15
:100C80008CEC92E00E94FC036B017C0163E172E05A
:100C900088E493E00E94B20B25E030E0B701A601A2
:100CA00088E493E00E94A60D8CEC92E00E94D403AD
:100CB0006B017C016FE172E088E493E00E94B20B6B
:100CC00025E030E0B701A60188E493E00E94A60D7C
:100CD0008CEC92E00E942A046B017C016BE272E0D2
:100CE00088E493E00E94B20B25E030E0B701A60152
:100CF00088E493E00E94A60D8CEC92E00E947D04B3
:100D00006CEB72E080E090E0FF90EF90DF90CF908E
:100D10000C94270EECE3F3E040E050E060E070E478
:100D2000408351836283738380E090E0A0E5B1E467
:100D300084839583A683B7831086118612861386D3
:100D4000E0E3F3E04083518362837383848395837C
:100D5000A683B7831086118612861386E4E2F3E039
:100D6000408351836283738384839583A683B7838F
:100D70001086118612861386E8E1F3E040835183E2
:100D80006283738384839583A683B78310861186D9
:100D900012861386ECE0F3E0408351836283738311
:100DA00084839583A683B783108611861286138663
:100DB000E0E0F3E04083518362837383848395830F
:100DC000A683B7831086118612861386E4EFF2E0BD
:100DD000408351836283738384839583A683B7831F
:100DE000108611861286138623E338E044E353E02D
:100DF00060E480EE92E00E94990123E338E044E34E
:100E000053E061E48CEC92E00E94990123E338E026
:100E100044E353E062E488EB92E00E94990123E30B
:100E200038E044E353E063E484EA92E00E949901ED
:100E300023E338E044E353E064E480E992E00E9475
:100E4000990123E338E044E353E065E48CE792E062
:100E50000E94990123E338E044E353E066E488E626
:100E600092E00C9499015058BB27AA270E944B0787
:100E70000C949C080E948E0838F00E94950820F07F
:100E800039F49F3F19F426F40C948B080EF4E09586
:100E9000E7FB0C948508E92F0E94AD0858F3BA17B8
:100EA000620773078407950720F079F4A6F50C9480
:100EB000CF080EF4E0950B2EBA2FA02D0B01B9012F
:100EC00090010C01CA01A0011124FF27591B99F0C0
:100ED000593F50F4503E68F11A16F040A22F232FCC
:100EE000342F4427585FF3CF469537952795A7951C
:100EF000F0405395C9F77EF41F16BA0B620B730BC3
:100F0000840BBAF09150A1F0FF0FBB1F661F771F33
:100F1000881FC2F70EC0BA0F621F731F841F48F4E8
:100F2000879577956795B795F7959E3F08F0B0CF71
:100F30009395880F08F09927EE0F97958795089558
:100F40000E94B4070C949C080E94950858F00E94D7
:100F50008E0840F029F45F3F29F00C948508511168
:100F60000C94D0080C948B080E94AD0868F3992368
:100F7000B1F3552391F3951B550BBB27AA27621795
:100F80007307840738F09F5F5F4F220F331F441FA2
:100F9000AA1FA9F335D00E2E3AF0E0E832D09150D6
:100FA0005040E695001CCAF72BD0FE2F29D0660FC3
:100FB000771F881FBB1F261737074807AB07B0E806
:100FC00009F0BB0B802DBF01FF2793585F4F3AF00C
:100FD0009E3F510578F00C9485080C94D0085F3F33
:100FE000E4F3983ED4F3869577956795B795F79592
:100FF0009F5FC9F7880F911D9695879597F908957A
:10100000E1E0660F771F881FBB1F62177307840715
:10101000BA0720F0621B730B840BBA0BEE1F88F724
:10102000E09508950E9419086894B1110C94D008B5
:1010300008950E94B50888F09F5798F0B92F992716
:10104000B751B0F0E1F0660F771F881F991F1AF0B3
:10105000BA95C9F714C0B13091F00E94CF08B1E041
:1010600008950C94CF08672F782F8827B85F39F040
:10107000B93FCCF3869577956795B395D9F73EF44C
:1010800090958095709561957F4F8F4F9F4F0895F4
:10109000E89409C097FB3EF4909580957095619512
:1010A0007F4F8F4F9F4F9923A9F0F92F96E9BB27C8
:1010B0009395F695879577956795B795F111F8CF44
:1010C000FAF4BB0F11F460FF1BC06F5F7F4F8F4FAF
:1010D0009F4F16C0882311F096E911C0772321F0A5
:1010E0009EE8872F762F05C0662371F096E8862F3D
:1010F00070E060E02AF09A95660F771F881FDAF794
:10110000880F9695879597F9089597F99F6780E8D6
:1011100070E060E008959FEF80EC089500240A9449
:101120001616170618060906089500240A941216C2
:101130001306140605060895092E0394000C11F4F5
:10114000882352F0BB0F40F4BF2B11F460FF04C0A2
:101150006F5F7F4F8F4F9F4F089557FD9058440FFB
:10116000551F59F05F3F71F04795880F97FB991F06
:1011700061F09F3F79F087950895121613061406C3
:10118000551FF2CF4695F1DF08C016161706180650
:10119000991FF1CF86957105610508940895E8942B
:1011A000BB2766277727CB0197F908950E94480946
:1011B00008F48FEF08950E94EE080C949C080E949A
:1011C0008E0838F00E94950820F0952311F00C94B9
:1011D00085080C948B0811240C94D0080E94AD084B
:1011E00070F3959FC1F3950F50E0551F629FF0017A
:1011F000729FBB27F00DB11D639FAA27F00DB11D93
:10120000AA1F649F6627B00DA11D661F829F22271B
:10121000B00DA11D621F739FB00DA11D621F839FA2
:10122000A00D611D221F749F3327A00D611D231F78
:10123000849F600D211D822F762F6A2F11249F57C6
:1012400050409AF0F1F088234AF0EE0FFF1FBB1FC9
:10125000661F771F881F91505040A9F79E3F510588
:1012600080F00C9485080C94D0085F3FE4F3983E1E
:10127000D4F3869577956795B795F795E7959F5F32
:10128000C1F7FE2B880F911D9695879597F90895C4
:10129000990F0008550FAA0BE0E8FEEF1616170687
:1012A000E807F907C0F012161306E407F50798F0EF
:1012B000621B730B840B950B39F40A2661F0232B08
:1012C000242B252B21F408950A2609F4A140A69584
:1012D0008FEF811D811D0895FC01918D228D892F35
:1012E00090E0805C9F4F821B91098F73992708952E
:1012F000FC01918D828D981731F0828DE80FF11DE0
:10130000858D90E008958FEF9FEF0895FC01918DFA
:10131000828D981761F0828DDF01A80FB11D5D9657
:101320008C91928D9F5F9F73928F90E008958FEFC5
:101330009FEF0895FC01538D448D252F30E0842FBD
:1013400090E0821B930B541710F0CF9608950197ED
:10135000089588E09BE0892B49F080E090E0892B9C
:1013600029F00E94080B81110C9400000895FC01E3
:10137000848DDF01A80FB11DA35ABF4F2C91848D1E
:1013800090E001968F739927848FA689B7892C9353
:10139000A089B1898C91837080648C93938D848DA6
:1013A000981306C00288F389E02D80818F7D8083A9
:1013B0000895EF92FF920F931F93CF93DF93EC0169
:1013C00081E0888F9B8D8C8D981305C0E889F98901
:1013D000808185FD26C0F62E0B8D10E00F5F1F4F1C
:1013E0000F731127E02E8C8DE8120CC00FB607FC8E
:1013F000FACFE889F989808185FFF5CFCE010E9477
:10140000B709F1CF8B8DFE01E80FF11DE35AFF4FB5
:10141000F0829FB7F8940B8FEA89FB898081806204
:101420000AC09FB7F894EE89FF896083E889F9893B
:1014300080818370806480839FBF81E090E0DF9132
:10144000CF911F910F91FF90EF900895CF93DF936D
:10145000EC01888D8823C9F0EA89FB89808185FDAC
:1014600005C0A889B9898C9186FD0FC00FB607FC0D
:10147000F5CF808185FFF2CFA889B9898C9185FF4E
:10148000EDCFCE010E94B709E7CFDF91CF9108954C
:10149000CF92DF92EF92FF921F93CF93DF93EC01F5
:1014A0006A017B01122FE889F98982E08083411566
:1014B000514E61057105B1F060E079E08DE390E097
:1014C000A70196010E949314DA01C9010197A109AD
:1014D000B109B695A795979587959C01211580E14F
:1014E0003807A8F0E889F989108260E874E88EE18D
:1014F00090E0A70196010E949314DA01C9010197B7
:10150000A109B109B695A795979587959C01EC859A
:10151000FD853083EE85FF852083188EEC89FD895B
:101520001083EA89FB89808180618083EA89FB8955
:10153000808188608083EA89FB89808180688083DC
:10154000EA89FB8980818F7D8083DF91CF911F9114
:10155000FF90EF90DF90CF90089580E090E00895A5
:101560001F920F920FB60F9211242F938F939F9378
:10157000EF93FF93E0915803F09159038081E0913C
:101580005E03F0915F0382FD12C090818091610340
:101590008F5F8F7320916203821751F0E091610396
:1015A000F0E0E85BFC4F958F8093610301C0808180
:1015B000FF91EF919F918F912F910F900FBE0F9000
:1015C0001F9018951F920F920FB60F9211242F9310
:1015D0003F934F935F936F937F938F939F93AF93BB
:1015E000BF93EF93FF9388E493E00E94B709FF91C4
:1015F000EF91BF91AF919F918F917F916F915F918B
:101600004F913F912F910F900FBE0F901F90189503
:1016100088E493E00E946C0921E0892B09F420E022
:10162000822F0895E8E4F3E01382128288EE93E0BB
:10163000A0E0B0E084839583A683B78389E392E03A
:101640009183808385EC90E09587848784EC90E09B
:101650009787868780EC90E0918B808B81EC90E07F
:10166000938B828B82EC90E0958B848B86EC90E060
:10167000978B868B118E128E138E148E089508957B
:101680000E94630E0E943F0B0E94A304C9EAD9E0A6
:101690000E9421062097E1F30E94A909F9CFCF9279
:1016A000DF92EF92FF920F931F93CF93DF936C0122
:1016B0007A018B01C0E0D0E0CE15DF0581F0D801C2
:1016C0006D918D01D601ED91FC910190F081E02D9D
:1016D000C6010995892B11F02196EECF7E01C70135
:1016E000DF91CF911F910F91FF90EF90DF90CF90FE
:1016F00008956115710579F0FB0101900020E9F76B
:101700003197AF01461B570BDC01ED91FC91028034
:10171000F381E02D099480E090E00895EF92FF922C
:101720000F931F93CF93DF938C017B01C0E0D0E038
:10173000F701EC0FFD1F6491662361F0D801ED9174
:10174000FC910190F081E02DC8010995892B11F0E1
:101750002196EECFCE01DF91CF911F910F91FF9097
:10176000EF9008950C94790BDC01ED91FC910190C0
:10177000F081E02D099467E472E00C94790B0F93EB
:101780001F93CF93DF93EC010E948E0B8C01CE014F
:101790000E94BB0B800F911FDF91CF911F910F9182
:1017A00008950F931F93CF93DF93EC010E94790B61
:1017B0008C01CE010E94BB0B800F911FDF91CF9156
:1017C0001F910F9108958F929F92AF92BF92EF92C7
:1017D000FF920F931F93CF93DF93CDB7DEB7A197FF
:1017E0000FB6F894DEBF0FBECDBF7C01FA01CB016E
:1017F00019A2223008F42AE08E010F5D1F4F822EBD
:10180000912CA12CB12CBF01A50194010E9493142D
:10181000F901CA01015011096A3010F4605D01C07C
:10182000695CD8016C93232B242B252B61F7B8011D
:10183000C7010E94790BA1960FB6F894DEBF0FBEC8
:10184000CDBFDF91CF911F910F91FF90EF90BF908F
:10185000AF909F908F9008952115310541F4DC01E0
:10186000ED91FC910190F081E02D642F09940C948E
:10187000E30B9A01462F50E060E070E00C942C0CD2
:101880000F931F93CF93DF93EC010E94390C8C01CF
:10189000CE010E94BB0B800F911FDF91CF911F9152
:1018A0000F9108959A01AB0160E070E00C942C0C4C
:1018B0000F931F93CF93DF93EC010E94520C8C0186
:1018C000CE010E94BB0B800F911FDF91CF911F9122
:1018D0000F910895CF92DF92EF92FF920F931F9393
:1018E000CF93DF932115310581F4DC01ED91FC915B
:1018F0000190F081E02D642FDF91CF911F910F9126
:10190000FF90EF90DF90CF9009942A30310501F5D8
:1019100077FF1DC06A017B01EC016DE20E94B40BF0
:101920008C0144275527BA014C195D096E097F09BE
:101930002AE0CE010E94E30B800F911FDF91CF912F
:101940001F910F91FF90EF90DF90CF9008952AE0C4
:10195000DF91CF911F910F91FF90EF90DF90CF908B
:101960000C94E30B9A01AB01770F660B770B0C9489
:101970006A0C0F931F93CF93DF93EC010E94B20C7C
:101980008C01CE010E94BB0B800F911FDF91CF9184
:101990001F910F9108957F928F929F92AF92BF9265
:1019A000CF92DF92EF92FF920F931F93CF93DF932B
:1019B0008C016A017B01722E9A01AB01C701B6014D
:1019C0000E948E14882319F06AE472E027C0460151
:1019D0005701E894B7F82FEF3FEF4FE75FE7C501F6
:1019E000B4010E948E1481110DC02FEF3FEF4FE71D
:1019F0005FE7C501B4010E94891418161CF46EE457
:101A000072E00CC02FEF3FEF4FE75FE4C701B60174
:101A10000E94D608181694F462E572E0C801DF91BE
:101A2000CF911F910F91FF90EF90DF90CF90BF90DB
:101A3000AF909F908F907F900C94790B2FEF3FEF9A
:101A40004FE75FECC701B6010E94891487FDE4CF20
:101A500020E030E0A901C701B6010E94891487FF88
:101A60000AC06DE2C8010E94B40BEC01F7FAF094D1
:101A7000F7F8F09402C0C0E0D0E0B12C60E070E074
:101A800080E09FE37B1441F020E030E040E251E44D
:101A90000E94A007B394F6CFA70196010E943407D5
:101AA0006B017C010E9419084B015C012AE0AB012B
:101AB000BC01C8010E94E30BC80FD91F7720B9F100
:101AC000C501B4010E9448089B01AC01C701B601E1
:101AD0000E9433076B017C016EE2C8010E94B40BC7
:101AE000C80FD91F20E030E040E251E4C701B60141
:101AF0000E94DB084B015C010E9419086B017C010C
:101B00004AE050E0C8010E94520CC80FD91FB6012C
:101B100080E090E00E9448089B01AC01C501B4013F
:101B20000E9433076B017C017A947110DBCFCE01E8
:101B3000DF91CF911F910F91FF90EF90DF90CF90A9
:101B4000BF90AF909F908F907F9008950F931F93B9
:101B5000CF93DF93EC010E94CB0C8C01CE010E944D
:101B6000BB0B800F911FDF91CF911F910F910895B3
:101B70001F920F920FB60F9211242F933F938F93C2
:101B80009F93AF93BF938091E6039091E703A09159
:101B9000E803B091E9033091E50323E0230F2D37EB
:101BA00020F40196A11DB11D05C026E8230F029661
:101BB000A11DB11D2093E5038093E6039093E703F5
:101BC000A093E803B093E9038091EA039091EB03BB
:101BD000A091EC03B091ED030196A11DB11D80937E
:101BE000EA039093EB03A093EC03B093ED03BF9152
:101BF000AF919F918F913F912F910F900FBE0F90BA
:101C00001F9018953FB7F8948091EA039091EB03E9
:101C1000A091EC03B091ED0326B5A89B05C02F3F22
:101C200019F00196A11DB11D3FBFBA2FA92F982F02
:101C30008827820F911DA11DB11DBC01CD0142E07D
:101C4000660F771F881F991F4A95D1F708958F92C5
:101C50009F92AF92BF92CF92DF92EF92FF926B0171
:101C60007C010E94020E4B015C01C114D104E1040D
:101C7000F10401F10E94BD100E94020EDC01CB01B3
:101C800088199909AA09BB09883E9340A105B105A5
:101C900060F321E0C21AD108E108F10888EE880E4D
:101CA00083E0981EA11CB11CC114D104E104F1040D
:101CB00019F7DBCFFF90EF90DF90CF90BF90AF9000
:101CC0009F908F900895789484B5826084BD84B588
:101CD000816084BD85B5826085BD85B5816085BD27
:101CE000EEE6F0E0808181608083E1E8F0E0108240
:101CF000808182608083808181608083E0E8F0E081
:101D0000808181608083E1EBF0E08081846080836A
:101D1000E0EBF0E0808181608083EAE7F0E08081A1
:101D20008460808380818260808380818160808301
:101D30008081806880831092C1000895833081F093
:101D400028F4813099F08230A1F008958730A9F00D
:101D50008830B9F08430D1F4809180008F7D03C049
:101D6000809180008F7780938000089584B58F776D
:101D700002C084B58F7D84BD08958091B0008F77B7
:101D800003C08091B0008F7D8093B0000895CF9301
:101D9000DF9390E0FC01E95CFE4F2491FC01E55BE0
:101DA000FE4F8491882361F190E0880F991FFC0118
:101DB000E759FE4FC591D491FC01E15AFE4FA59120
:101DC000B491611109C09FB7F8948881209582234E
:101DD0008883EC912E230BC0623061F49FB7F89496
:101DE0008881322F309583238883EC912E2B2C937E
:101DF0009FBF06C08FB7F894E8812E2B28838FBF32
:101E0000DF91CF9108951F93CF93DF93282F30E078
:101E1000F901ED5DFE4F8491F901E95CFE4FD4912B
:101E2000F901E55BFE4FC491CC23C1F0162F81115F
:101E30000E949E0EEC2FF0E0EE0FFF1FE15AFE4FC6
:101E4000A591B4919FB7F894111104C08C91D095CD
:101E5000D82302C0EC91DE2BDC939FBFDF91CF91A2
:101E60001F910895CF93DF9300D0CDB7DEB72091B7
:101E7000B8043091B904CE0101962115310519F449
:101E80008C5B944002C0821B930B9A838983898167
:101E90009A810F900F90DF91CF9108958091220445
:101EA00090E020912304821B9109089590912304CE
:101EB00080912204981750F4E92FF0E0EC5DFB4F7D
:101EC000208130E09F5F9093230402C02FEF3FEF0B
:101ED000C9010895E091230480912204E81730F4A9
:101EE000F0E0EC5DFB4F808190E008958FEF9FEF75
:101EF00008950895CF93DF93EC01E091FA03F091F8
:101F0000FB033097F1F090912304809122049817FD
:101F1000C0F090E0292F30E02617370754F4DE0197
:101F2000A20FB31F4C91D901AC5DBB4F4C939F5F87
:101F3000F1CF1092230460932204CB01DF91CF9163
:101F40000994DF91CF910895E091FC03F091FD0396
:101F5000309729F0109200041092FF03099408951D
:101F6000CF92DF92EF92FF920F931F93CF93DF9365
:101F70007C01CB018A012091FE03222389F0EB0131
:101F80006B01C40ED51ECC15DD0569F06991D70132
:101F9000ED91FC910190F081E02DC7010995F3CFFF
:101FA000642F0E94FD10C801DF91CF911F910F9106
:101FB000FF90EF90DF90CF900895CF93DF931F9223
:101FC000CDB7DEB769832091FE032223D1F02091A3
:101FD000FF03203240F021E030E0FC013383228314
:101FE00080E090E015C080910004E82FF0E0EF5F02
:101FF000FB4F998190838F5F809300048093FF0350
:1020000005C061E0CE0101960E94FD1081E090E0E4
:102010000F90DF91CF910895FC011382128288EE18
:1020200093E0A0E0B0E084839583A683B7838AE53C
:1020300092E09183808308951092230410922204E9
:10204000109200041092FF030E94BE1084EA9FE0E9
:102050000E942A118AE79FE00C942511CB01BA0156
:102060000C94E91081E08093FE03609321041092A8
:1020700000041092FF0308950F93062F21E0409172
:10208000FF0361E074E0809121040E9434121092F9
:1020900000041092FF031092FE030F9108954F92D7
:1020A0005F926F927F92AF92BF92CF92EF92FF9228
:1020B0000F931F93CF93DF935C01F62ED42F28014B
:1020C0003901EE2021F10E943210CE2DC43008F0EB
:1020D000C3E0C150C0F028E0C29FC0011124A30199
:1020E000920104C056954795379527958A95D2F762
:1020F000CA01B901D501ED91FC910190F081E02D6B
:10210000C5010995E6CF60E0C5010E943C104D2F46
:10211000D13208F040E22C2D64E274E08F2D0E9451
:102120004B111092230480932204DF91CF911F91D1
:102130000F91FF90EF90CF90BF90AF907F906F90F6
:102140005F904F900895CF92EF920F931F93C22EFE
:10215000E12C00E010E098010E944F101F910F91B8
:10216000EF90CF90089521E00C94A31061E00C94BF
:102170003C108EEE93E00C940C1008951092B7046E
:1021800081E08093B5041092B40461E082E10E9482
:10219000030F61E083E10E94030FE9EBF0E080812F
:1021A0008E7F808380818D7F808388E48093B800D8
:1021B00085E48093BC000895ECEBF0E080818A7B9D
:1021C000808360E082E10E94030F60E083E10C9471
:1021D000030F9B01AC0160E074E284EF90E00E9489
:1021E0009314DA01C9014097A109B109B695A795E1
:1021F000979587958093B800089540916604262F9F
:1022000030E0240F311D21323105DCF42091B70478
:102210002430C9F4FC0180E090E0861758F4309136
:1022200066042191DC01A859BB4FA30FB11D2C936B
:102230000196F3CF80916604680F6093660480E096
:10224000089581E0089582E008959093AB0480930F
:10225000AA0408959093AD048093AC04089585EC8E
:102260008093BC001092B7040895CF93DF9391E060
:102270009093AF04882361F0C091B800D091BA0068
:102280000E94DC100E94BE10D093BA00C093B80028
:10229000DF91CF9108954F925F926F927F928F92CC
:1022A0009F92AF92BF92CF92DF92EF92FF920F93E5
:1022B0001F93CF93DF93F82E162F072FC42FE22EF4
:1022C000413208F0BEC00E94020E4B015C01D09169
:1022D000B704DD2331F18091B0049091B104A09155
:1022E000B204B091B304892B8A2B8B2B81F30E940B
:1022F000020E4090B0045090B1046090B20470900F
:10230000B304DC01CB0188199909AA09BB09481655
:1023100059066A067B06D8F68091AE040E943511F4
:1023200090C081E08093B704E092B5049FEF909352
:102330004404109289049C0F909388048093B604FF
:102340009091B6048F2D880F892B8093B6048091CD
:10235000B404813089F51092B4040E94020E6B011E
:102360007C018091B6048093BB008091B004909171
:10237000B104A091B204B091B304892B8A2B8B2BAA
:10238000A9F00E94020E8090B0049090B104A09039
:10239000B204B090B304DC01CB018C199D09AE09E5
:1023A000BF0988169906AA06BB0690F18091BC0069
:1023B00083FDD7CF85EC01C085EE8093BC000E94E1
:1023C000020E6B017C018091B704813031F5809160
:1023D000B0049091B104A091B204B091B304892BE0
:1023E0008A2B8B2B81F30E94020E8090B004909078
:1023F000B104A090B204B090B304DC01CB018C19FD
:102400009D09AE09BF0988169906AA06BB06D8F62B
:102410008091AE040E94351115C0809189048C17FB
:1024200010F4C0918904AAE8B4E0912FE12FF02FB5
:102430008E2F891B8C1718F48D918193F9CFDC2F87
:1024400001C0D0E08D2FDF91CF911F910F91FF90B0
:10245000EF90DF90CF90BF90AF909F908F907F9044
:102460006F905F904F9008954F925F926F927F921E
:102470008F929F92AF92BF92CF92DF92EF92FF9294
:102480000F931F93CF93DF93413208F0C6C0122FF2
:10249000F42ED72EE62ED82F0E94020E4B015C019F
:1024A000C091B704CC2311F18091B0049091B10494
:1024B000A091B204B091B304892B8A2B8B2B81F3AA
:1024C0000E94020E4090B0045090B1046090B2049B
:1024D0007090B304DC01CB0188199909AA09BB09E2
:1024E000481659066A067B06D8F683C082E08093B8
:1024F000B7040093B5048FEF8093440410928904CD
:10250000F09288049E2DAAE8B4E0EE2DFD2D8E2FCA
:10251000891B8F1518F481918D93F9CF1092B60411
:102520009091B604DD0FD92BD093B6048091B404FA
:10253000813089F51092B4040E94020E6B017C0177
:102540008091B6048093BB008091B0049091B10457
:10255000A091B204B091B304892B8A2B8B2BA9F0E4
:102560000E94020E8090B0049090B104A090B2043A
:10257000B090B304DC01CB018C199D09AE09BF09F1
:1025800088169906AA06BB06A0F18091BC0083FDBF
:10259000D7CF85EC01C085EE8093BC000E94020E6F
:1025A0006B017C01112359F18091B704823039F518
:1025B0008091B0049091B104A091B204B091B304A1
:1025C000892B8A2B8B2B71F30E94020E8090B00412
:1025D0009090B104A090B204B090B304DC01CB01A0
:1025E0008C199D09AE09BF0988169906AA06BB0673
:1025F000C8F68091AE040E943511C5E013C08091E9
:1026000044048F3F79F080914404803241F08091FE
:102610004404803331F0C4E005C0C1E003C0C2E02F
:1026200001C0C3E08C2FDF91CF911F910F91FF90DC
:10263000EF90DF90CF90BF90AF909F908F907F9062
:102640006F905F904F90089585ED8093BC008091CE
:10265000B0049091B104A091B204B091B304079674
:10266000A11DB11D23E0B695A795979587952A954D
:10267000D1F72091BC0024FF1CC04091B0045091C0
:10268000B1046091B2047091B304452B462B472BE3
:1026900081F30097A105B10541F025E32A95F1F7F3
:1026A00000000197A109B109E4CF8091AE040C9418
:1026B00035111092B70408951F920F920FB60F9222
:1026C00011242F933F934F935F936F937F938F9337
:1026D0009F93AF93BF93EF93FF938091B900887F4F
:1026E000803609F49EC078F5883209F45DC090F414
:1026F000803109F456C038F4882309F4F5C08830D5
:1027000009F44FC0F5C0883109F44EC0803209F495
:102710005FC0EEC0803409F46AC058F4803309F415
:1027200057C0883309F0E4C0809344040E942F11FD
:10273000DFC0803509F44FC0883509F45DC08834A6
:1027400009F0D6C0D3C0883909F4C4C0A8F48837CA
:1027500009F467C038F4883609F463C0803709F497
:1027600060C0C6C0883809F4B5C0803909F45FC0BC
:10277000803809F0BDC05BC0803B09F483C038F4E9
:10278000803A09F466C0883A09F47CC0B1C0803C44
:1027900009F4A4C0883C09F4A1C0883B09F487C0AF
:1027A000A7C08091B60410C09091890480918804DC
:1027B000981770F5E091890481E08E0F8093890469
:1027C000F0E0E657FB4F80818093BB0085EC83C02F
:1027D000809344048BC0E091890481E08E0F809344
:1027E00089048091BB00F0E0E657FB4F8083909115
:1027F0008904809188046BC0E091890481E08E0F88
:10280000809389048091BB00F0E0E657FB4F808302
:102810008091B50481116AC081E08093B40484EA98
:102820005EC083E08093B70410924504CFCF8091BF
:102830004504803208F04EC0E091450481E08E0FDF
:10284000809345048091BB00F0E0EA5BFB4F8083FE
:10285000BDCF0E942F1180914504803230F4E09169
:102860004504F0E0EA5BFB4F10826091450470E0A4
:10287000E091AA04F091AB0486E494E009951092EB
:10288000450436C084E08093B70410926704109228
:102890006604E091AC04F091AD0409958091660462
:1028A000811105C081E08093660410926804E09174
:1028B000670481E08E0F80936704F0E0E859FB4FD6
:1028C00080818093BB009091670480916604981783
:1028D00008F47CCF85E88093BC000AC085EC809327
:1028E000BC001092B70404C0109244040E94241348
:1028F000FF91EF91BF91AF919F918F917F916F91D8
:102900005F914F913F912F910F900FBE0F901F90AD
:1029100018950E94480908F481E008950E9448092A
:10292000880B990B0895A1E21A2EAA1BBB1BFD016F
:102930000DC0AA1FBB1FEE1FFF1FA217B307E4079E
:10294000F50720F0A21BB30BE40BF50B661F771FF6
:10295000881F991F1A9469F76095709580959095D6
:102960009B01AC01BD01CF010895EE0FFF1F059043
:0A297000F491E02D0994F894FFCFD4
:10297A0027477265736574206368697000457272CF
:10298A006F723A20747279696E6720746F2073656A
:10299A006E64206D6F7265207468656E2074776F3F
:1029AA002062797465732E206F6E6C792074776F4C
:1029BA00206174206F6E636520616C6C6F7765644B
:1029CA002E006572726F7220696E207472616E7366
:1029DA006D69744461746128292066756E6374692F
:1029EA006F6E004572726F723A204E6F2064617486
:1029FA006120746F207472616E736D697474006102
:102A0A006C61726D206C696D6974730043757272C2
:102A1A00656E7420626974736E6275747300737480
:102A2A006174757320696E7075743A2000746573E9
:102A3A007420636F6D6D756E69636174696F6E730F
:102A4A0000526561646261636B204D46525F4D4F6F
:102A5A0044454C3A2000436F6D6D756E696361742D
:102A6A00696F6E206572726F7200496E697469616E
:102A7A006C697A6174696F6E004C6F6F70696E670A
:102A8A00203200566F6C7461676520533A200056F5
:102A9A006F6C74616765204C3A20004375727265E9
:102AAA006E743A200000000000D9094F0B9A0926DB
:102ABA000A6C09860978090D0A006E616E00696E52
:102ACA0066006F76660000000000DD0FB00FAD0AE9
:082ADA00790F4E0F560F6A0F31
:00000001FF
