S012000070646D5F736B657463682E73726563F0
S11300000C94AC000C94E91F0C9410200C94D400B4
S11300100C94D4000C94D4000C94D4000C94D4000C
S11300200C94D4000C94D4000C94D4000C94D400FC
S11300300C94D4000C94D4000C94D4000C94D400EC
S11300400C94B60C0C94D4000C94A6090C94D80906
S11300500C94D4000C94D4000C94D4000C94D400CC
S11300600C94D5220C94D4007365742063616C697C
S113007062726174696F6E00726573657420616C7D
S113008061726D005556205741524E204C494D49DE
S11300905420726561646261636B3A200055562096
S11300A05741524E204C494D49543A20004F562056
S11300B05741524E204C494D495420726561646247
S11300C061636B3A20004F56205741524E204C49F1
S11300D04D49543A20004F43205741524E204C4939
S11300E04D495420726561646261636B3A20004F2C
S11300F043205741524E204C494D49543A20000068
S113010000000800020100000304070000000000D2
S113011000000001020408102040800102040810BD
S1130120200102040810200404040404040404024A
S1130130020202020203030303030300000000257A
S11301400028002B0000000000240027002A0000E3
S11301505006080AE81E590711241FBECFEFD8E045
S1130160DEBFCDBF12E0A0E0B1E0E0E4FCE402C0F9
S113017005900D92A83DB107D9F726E0A8EDB2E0AD
S113018001C01D92A234B207E1F710E0CBEAD0E03F
S113019004C02197FE010E94EC24C83AD107C9F794
S11301A00E94360A0C9413260C940000CF93DF931C
S11301B0CDB7DEB7DC016C9312965C934E93119726
S11301C014963C932E9313972CE0FE0135961596C6
S11301D001900D922A95E1F72AE0FC017196DF0166
S11301E0322F1D923A95E9F7DC015B961C925B97DE
S11301F05C962C935C975D961C925D975E961C9220
S11302005E975F961C92DF91CF910895CF93C62F8E
S1130210FC01608184E795E00E94611E6C2F84E7F5
S113022095E00E940C1E84E795E0CF910C94E51EA6
S1130230CF93DF93EC0168E770E089EC94E00E94CF
S1130240BD0A63E0CE01DF91CF910C940601CF93F8
S1130250DF93EC0168E271E089EC94E00E94CF0A3C
S113026062E1CE01DF91CF910C9406011F93CF93ED
S1130270DF93FC01EB01142F9A85933018F063E3AC
S113028071E004C091110FC069E971E089EC94E058
S11302900E94CF0A68E771E089EC94E0DF91CF9186
S11302A01F910C94CF0A608184E795E00E94611E3F
S11302B0612F84E795E00E940C1E688184E795E035
S11302C00E940C1E8A85823029F4698184E795E0B6
S11302D00E940C1E84E795E0DF91CF911F910C944E
S11302E0E51EEF92FF920F931F93CF93DF93EC01E0
S11302F07B01022F8FE0FE0111928A95E9F78AE0D3
S11303008B87642FC7010E940601402FF70160818B
S113031084E795E00E94E21E84E795E00E947D1D3B
S1130320892B79F01A8584E795E00E94851DFE01EA
S1130330E10FF11D80831F5F1A871A3068F381E093
S11303408C878A85801718F481E08D8704C008178C
S113035010F481E08E87CE01DF91CF911F910F9130
S1130360FF90EF900895EF92FF920F931F93CF9316
S1130370DF93CDB7DEB72F970FB6F894DEBF0FBE6D
S1130380CDBF8B01FB012285BC01CE0101967C010E
S11303900E947101F801628570E0A801D701C801CB
S11303A09D012E193F092617370740F4FC013191AE
S11303B0CF012D913217A1F381E00AC0600F711FA4
S11303C04617570721F0FA011192AF01F9CF80E0E7
S11303D02F960FB6F894DEBF0FBECDBFDF91CF913D
S11303E01F910F91FF90EF900895EF92FF920F935A
S11303F01F93CF93DF93CDB7DEB72F970FB6F89443
S1130400DEBF0FBECDBF7C018E010F5F1F4F8FE09B
S1130410F80111928A95E9F78AE08C8769837A83D7
S113042082E08B8740EDB801C7010E94360140EDA0
S1130430B801C7010E94B30190E02F960FB6F8945B
S1130440DEBF0FBECDBFDF91CF911F910F91FF9003
S1130450EF900895CF92DF92EF92FF920F931F9344
S1130460CF93DF93CDB7DEB72F970FB6F894DEBFE7
S11304700FBECDBF7C016B0168E670E089EC94E0AF
S11304800E94BD0A8E010F5F1F4F8FE0F801119289
S11304908A95E9F78AE08C87C982DA8282E08B87C1
S11304A044EDB801C7010E94360144EDB801C7010B
S11304B00E94B30190E02F960FB6F894DEBF0FBEF2
S11304C0CDBFDF91CF911F910F91FF90EF90DF90FF
S11304D0CF9008954F925F926F927F92AF92BF92A6
S11304E0CF92DF92EF92FF920F931F93CF93DF93FC
S11304F0CDB7DEB7AE970FB6F894DEBF0FBECDBF53
S11305005C01CF8ED8A2E9A2FAA20BA31CA32DA34F
S11305103EA34FA358A769A77AA7CF8CD8A0E9A078
S1130520FAA08BA19CA1ADA1BEA18BA79CA7ADA74E
S1130530BEA74FA058A469A47AA465EB71E089EC26
S113054094E00E94CF0A20E030E0A901C701B6017F
S11305500E940D0918160CF051C0D50111966D9129
S11305607C91129780E090E00E947F08A701960199
S11305700E9412096B017C0120E030E0A9010E9475
S11305800D0920E030E040E05FE387FD05C0C701CE
S1130590B6010E946B0704C0C701B6010E946A0736
S11305A00E9449088B017E01B0E1EB0EF11C8FE043
S11305B0F70111928A95E9F78AE08B8F088B198BE2
S11305C082E08A8F6FEE70E089EC94E00E94BD0AAD
S11305D04AE050E0B80189EC94E00E94440B4AE4FC
S11305E0B701C5010E94360122E04AE4B501CE01FB
S11305F001960E94710166ED70E0AFC020E030E02A
S1130600A9016BA57CA58DA59EA50E940D091816B0
S11306100CF04EC020E030E048E454E46BA57CA527
S11306208DA59EA50E9412096B017C0120E030E09B
S1130630A9010E940D0920E030E040E05FE387FD5E
S113064005C0C701B6010E946B0704C0C701B6010B
S11306500E946A070E9449088B017E01F0E1EF0EB7
S1130660F11C8FE0D7011D928A95E9F78AE08B8F00
S1130670088B198B82E08A8F66EC70E089EC94E039
S11306800E94BD0A4AE050E0B80189EC94E00E945F
S1130690440B47E5B701C5010E94360122E047E556
S11306A0B501CE0101960E9471016DEA70E055C05A
S11306B020E030E0A901C301B2010E940D0918161F
S11306C00CF05AC020E030E048E454E4C301B20125
S11306D00E9412096B017C0120E030E0A9010E9414
S11306E00D0920E030E040E05FE387FD05C0C7016D
S11306F0B6010E946B0704C0C701B6010E946A07D5
S11307000E9449088B017E01B0E1EB0EF11C8FE0E1
S1130710F70111928A95E9F78AE08B8F088B198B80
S113072082E08A8F6DE970E089EC94E00E94BD0A52
S11307304AE050E0B80189EC94E00E94440B48E59B
S1130740B701C5010E94360122E048E5B501CE019A
S113075001960E94710164E870E089EC94E00E94C3
S1130760BD0A69817A814AE050E089EC94E00E94F4
S1130770B70B8AE090E000C0AE960FB6F894DEBFE7
S11307800FBECDBFDF91CF911F910F91FF90EF90DE
S1130790DF90CF90BF90AF907F906F905F904F901D
S11307A00895CF92DF92EF92FF920F931F93CF930E
S11307B0DF93EC010E9427016B817C81CE010E94B2
S11307C02A0281309105A1F0CE010E941801CD804A
S11307D0DE80EF80F88409851A852B853C854D855C
S11307E05E856F857889CE010E946A0280E090E080
S11307F0DF91CF911F910F91FF90EF90DF90CF90F9
S11308000895CF92DF92EF92FF920F931F93CF93AD
S1130810DF93CDB7DEB72F970FB6F894DEBF0FBEC8
S1130820CDBF7C0122E049E8BC01CE0101960E94C3
S1130830710109811A8162EC71E089EC94E00E94F3
S1130840B00A4AE050E0B80189EC94E00E94B70B8A
S1130850F7016181728180E090E00E947F089B0132
S1130860AC0160E070E080E89FE30E94D7076B0171
S11308707C01B801110F880B990B0E9481089B0120
S1130880AC01C701B6010E9412092F960FB6F89465
S1130890DEBF0FBECDBFDF91CF911F910F91FF90AF
S11308A0EF90DF90CF900895AF92BF92DF92EF92D6
S11308B0FF920F931F93CF93DF93CDB7DEB7669765
S11308C00FB6F894DEBF0FBECDBF8C0163EE71E0AE
S11308D089EC94E00E94CF0A27E042E1B801CE01FE
S11308E001960E94710187E0E1E2F1E0DE01509699
S11308F001900D928A95E1F78E010F5F1F4F7E01E3
S113090080E1E80EF11C5E01E8E0AE0EB11C67EF79
S113091071E089EC94E00E94B00AF801D1908F0153
S11309204AE050E06D2D89EC94E00E94370BF7010A
S113093081917F01D81649F06CE072E089EC94E073
S11309400E94CF0A81E090E005C00A151B05F9F664
S113095080E090E066960FB6F894DEBF0FBECDBF80
S1130960DF91CF911F910F91FF90EF90DF90BF9097
S1130970AF90089585E794E00C948E13FC011082E7
S1130980118212821382148283E085831682178275
S1130990DF011896E85BFF4F1D92AE17BF07E1F722
S11309A00895CF92DF92EF92FF920F931F93CF930C
S11309B0DF93CDB7DEB7A8970FB6F894DEBF0FBEAE
S11309C0CDBF9DE088E10FB6F894A89580936000B0
S11309D00FBE9093600084E795E00E944B1E40E1B7
S11309E057E260E070E084E795E00E945D1E0DE050
S11309F011E09BE1C92E91E0D92E7801F701819194
S1130A0091917F010E94D103CE14DF04B9F7609164
S1130A101B0170911C01F801819191918F010E9439
S1130A20F501C016D10699F70E942B1D88EEC82E39
S1130A3083E0D82EE12CF12C08E020E231EA47E0F3
S1130A4050E064E0CE0101960E947C181A8E81E089
S1130A5090E09C8F8B8F9EA38DA360E272E089EC63
S1130A6094E00E94B00ACE0101960E94EA1CAB01F8
S1130A70BC012AE030E089EC94E00E942A0B66E392
S1130A8072E089EC94E00E94CF0A4AEB54E0BE0184
S1130A906F5F7F4F85E794E00E941A186B017C0119
S1130AA0672B682B692B71F06DE372E089EC94E09D
S1130AB00E94B00A20E130E0B701A60189EC94E07D
S1130AC00E94560BE5E3F4E080E081938F5F80346D
S1130AD0E1F7EDEEF3E080E081938F5F8830E1F79A
S1130AE08093EC0380E48093340481E08093EA03F0
S1130AF083E08093320480E095E0A0E0B0E080934E
S1130B00E5039093E603A093E703B093E80381E041
S1130B1095E0A0E0B0E080932D0490932E04A09380
S1130B202F04B0933004A8960FB6F894DEBF0FBE1E
S1130B30CDBFDF91CF911F910F91FF90EF90DF9088
S1130B40CF9008950F931F93CF93DF930E94000DCE
S1130B500091BD031091BE032091BF033091C003E7
S1130B60DC01CB01801B910BA20BB30B81319742AB
S1130B70A105B10508F1CDE0D1E00BE011E08991C8
S1130B8099910E945404019739F4D801ED91FC9194
S1130B9060E080810E94D10D0E5F1F4FB1E0CB3128
S1130BA0DB0769F70E94000D6093BD037093BE03D9
S1130BB08093BF039093C003DF91CF911F910F9156
S1130BC008950F931F930E94000D0091D802109175
S1130BD0D9022091DA023091DB02DC01CB01801BC7
S1130BE0910BA20BB30B0091060110910701209108
S1130BF0080130910901081719072A073B07A0F4D7
S1130C0061E080910A01811160E060930A018AE049
S1130C100E94D10D0E94000D6093D8027093D902F6
S1130C208093DA029093DB021F910F91089560E0A4
S1130C308091DC020E94D10D0E94A2058DE993E00F
S1130C400E940104AB01BC0122E030E089EC94E095
S1130C500E94A40C85E794E00E94C60F8823E1F06B
S1130C6065EE73E085E794E00E94E30F64E572E0CB
S1130C7089EC94E00E94B00A8091ED03813021F464
S1130C8061E089E00E94D10D8091ED03823021F46E
S1130C9060E089E00E94D10D0E94E105A8950895C5
S1130CA0EDEBF4E040E050E060E070E44083518319
S1130CB06283738380E090E0A0E5B1E4848395834C
S1130CC0A683B7831086118612861386E1EBF4E0BF
S1130CD0408351836283738384839583A683B7831C
S1130CE0108611861286138622E043E755E067E0FA
S1130CF085E794E00E94870F8DE294E00E94BE0491
S1130D0085EE93E00E94BE048DB79EB70C970FB694
S1130D10F8949EBF0FBE8DBFADB7BEB711968CE0E1
S1130D20EDEBF4E001900D928A95E1F723E338E0CE
S1130D3044E353E060E48DE993E00E94D6008DB76C
S1130D409EB70C970FB6F8949EBF0FBE8DBFADB77C
S1130D50BEB711968CE0E1EBF4E001900D928A9518
S1130D60E1F723E338E044E353E061E48DE793E003
S1130D700E94D6008DB79EB70C970FB6F8949EBF0D
S1130D800FBE8DBFADB7BEB711968CE0E1EBF4E0BA
S1130D9001900D928A95E1F723E338E044E353E0B0
S1130DA061E48DE593E00E94D6008DB79EB78496EA
S1130DB00FB6F8949EBF0FBE8DBF0C970FB6F89474
S1130DC09EBF0FBE8DBFADB7BEB711968CE0E1EBF1
S1130DD0F4E001900D928A95E1F723E338E044E3CF
S1130DE053E061E48DE393E00E94D6008DB79EB793
S1130DF00C970FB6F8949EBF0FBE8DBFADB7BEB7AC
S1130E0011968CE0E1EBF4E001900D928A95E1F704
S1130E1023E338E044E353E061E48DE193E00E948E
S1130E20D6008DB79EB70C970FB6F8949EBF0FBE31
S1130E308DBFADB7BEB711968CE0E1EBF4E0019045
S1130E400D928A95E1F723E338E044E353E061E44B
S1130E508DEF92E00E94D6008DB79EB784960FB6B0
S1130E60F8949EBF0FBE8DBF0C970FB6F8949EBF2B
S1130E700FBE8DBFADB7BEB711968CE0E1EBF4E0C9
S1130E8001900D928A95E1F723E338E044E353E0BF
S1130E9061E48DED92E00E94D60083E08093DC0251
S1130EA08DB79EB70C960FB6F8949EBF0FBE8DBF3C
S1130EB0089580919B0490919C04009711F00E94E6
S1130EC04B0A8091850490918604009711F00C944C
S1130ED04B0A08955058BB27AA270E9482070C94F6
S1130EE0D3080E94C50838F00E94CC0820F039F4D9
S1130EF09F3F19F426F40C94C2080EF4E095E7FB26
S1130F000C94BC08E92F0E94E40858F3BA1762074E
S1130F1073078407950720F079F4A6F50C94060965
S1130F200EF4E0950B2EBA2FA02D0B01B901900100
S1130F300C01CA01A0011124FF27591B99F0593F44
S1130F4050F4503E68F11A16F040A22F232F342F8C
S1130F504427585FF3CF469537952795A795F040DA
S1130F605395C9F77EF41F16BA0B620B730B840BEF
S1130F70BAF09150A1F0FF0FBB1F661F771F881FA7
S1130F80C2F70EC0BA0F621F731F841F48F48795FF
S1130F9077956795B795F7959E3F08F0B0CF9395F1
S1130FA0880F08F09927EE0F9795879508950E946A
S1130FB0EB070C94D3080E94CC0858F00E94C50893
S1130FC040F029F45F3F29F00C94BC0851110C94B3
S1130FD007090C94C2080E94E40868F39923B1F34A
S1130FE0552391F3951B550BBB27AA27621773074B
S1130FF0840738F09F5F5F4F220F331F441FAA1FDF
S1131000A9F335D00E2E3AF0E0E832D0915050409A
S1131010E695001CCAF72BD0FE2F29D0660F771F48
S1131020881FBB1F261737074807AB07B0E809F02E
S1131030BB0B802DBF01FF2793585F4F3AF09E3FB3
S1131040510578F00C94BC080C9407095F3FE4F355
S1131050983ED4F3869577956795B795F7959F5FF6
S1131060C9F7880F911D9695879597F90895E1E042
S1131070660F771F881FBB1F621773078407BA07A1
S113108020F0621B730B840BBA0BEE1F88F7E095FC
S113109008950E9450086894B1110C9407090895AA
S11310A00E94EC0888F09F5798F0B92F9927B75100
S11310B0B0F0E1F0660F771F881F991F1AF0BA95F8
S11310C0C9F714C0B13091F00E940609B1E0089547
S11310D00C940609672F782F8827B85F39F0B93F39
S11310E0CCF3869577956795B395D9F73EF49095AB
S11310F08095709561957F4F8F4F9F4F0895E89429
S113110009C097FB3EF490958095709561957F4F4B
S11311108F4F9F4F9923A9F0F92F96E9BB279395F9
S1131120F695879577956795B795F111F8CFFAF409
S1131130BB0F11F460FF1BC06F5F7F4F8F4F9F4F3A
S113114016C0882311F096E911C0772321F09EE898
S1131150872F762F05C0662371F096E8862F70E0FE
S113116060E02AF09A95660F771F881FDAF7880FD8
S11311709695879597F9089597F99F6780E870E0A9
S113118060E008959FEF80EC089500240A941616F9
S1131190170618060906089500240A941216130661
S11311A0140605060895092E0394000C11F48823EF
S11311B052F0BB0F40F4BF2B11F460FF04C06F5F0B
S11311C07F4F8F4F9F4F089557FD9058440F551FE1
S11311D059F05F3F71F04795880F97FB991F61F0B5
S11311E09F3F79F087950895121613061406551F2C
S11311F0F2CF4695F1DF08C0161617061806991F98
S1131200F1CF86957105610508940895E894BB278C
S113121066277727CB0197F908950E947F0908F480
S11312208FEF08950E9425090C94D3080E94C508E5
S113123038F00E94CC0820F0952311F00C94BC08DF
S11312400C94C20811240C9407090E94E40870F35A
S1131250959FC1F3950F50E0551F629FF001729F57
S1131260BB27F00DB11D639FAA27F00DB11DAA1F66
S1131270649F6627B00DA11D661F829F2227B00DB3
S1131280A11D621F739FB00DA11D621F839FA00D3E
S1131290611D221F749F3327A00D611D231F849F8E
S11312A0600D211D822F762F6A2F11249F575040E5
S11312B09AF0F1F088234AF0EE0FFF1FBB1F661F60
S11312C0771F881F91505040A9F79E3F510580F029
S11312D00C94BC080C9407095F3FE4F3983ED4F3E4
S11312E0869577956795B795F795E7959F5FC1F7CD
S11312F0FE2B880F911D9695879597F90895990F60
S11313000008550FAA0BE0E8FEEF16161706E807CB
S1131310F907C0F012161306E407F50798F0621BEC
S1131320730B840B950B39F40A2661F0232B242BC1
S1131330252B21F408950A2609F4A140A6958FEFE0
S1131340811D811D089580E090E008951F920F9201
S11313500FB60F9211242F938F939F93EF93FF93C4
S1131360E091D904F091DA048081E091DF04F091F6
S1131370E00482FD12C090818091E2048F5F8F733C
S11313802091E304821751F0E091E204F0E0E75386
S1131390FB4F958F8093E20401C08081FF91EF9110
S11313A09F918F912F910F900FBE0F901F901895C2
S11313B01F920F920FB60F9211242F933F934F93C6
S11313C05F936F937F938F939F93AF93BF93EF93A9
S11313D0FF9389EC94E00E94371FFF91EF91BF9136
S11313E0AF919F918F917F916F915F914F913F91B9
S11313F02F910F900FBE0F901F90189589EC94E0D9
S11314000E94EC1E21E0892B09F420E0822F08952C
S1131410E9ECF4E01382128288EE93E0A0E0B0E0FD
S113142084839583A683B7838AEC92E09183808337
S113143085EC90E09587848784EC90E09787868795
S113144080EC90E0918B808B81EC90E0938B828B8D
S113145082EC90E0958B848B86EC90E0978B868B66
S1131460118E128E138E148E089508950E94310DDC
S11314700E94350A0E94D104C9E2DFE10E941706E6
S11314802097E1F30E94291FF9CF0C94F2240C94C5
S1131490F2240C948A250C948A25CF92DF92EF9241
S11314A0FF920F931F93CF93DF936C017A018B010B
S11314B0C0E0D0E0CE15DF0581F0D8016D918D013B
S11314C0D601ED91FC910190F081E02DC6010995C2
S11314D0892B11F02196EECF7E01C701DF91CF91C8
S11314E01F910F91FF90EF90DF90CF9008956115B9
S11314F0710579F0FB0101900020E9F73197AF0104
S1131500461B570BDC01ED91FC910280F381E02D29
S1131510099480E090E00895EF92FF920F931F9357
S1131520CF93DF938C017B01C0E0D0E0F701EC0F97
S1131530FD1F6491662361F0D801ED91FC91019047
S1131540F081E02DC8010995892B11F02196EECF89
S1131550CE01DF91CF911F910F91FF90EF900895ED
S11315600C94770ADC01ED91FC910190F081E02D5F
S113157009946FE572E00C94770A0F931F93CF934D
S1131580DF93EC010E948C0A8C01CE010E94B90AFF
S1131590800F911FDF91CF911F910F9108950F93A9
S11315A01F93CF93DF93EC010E94770A8C01CE0145
S11315B00E94B90A800F911FDF91CF911F910F9163
S11315C008958F929F92AF92BF92EF92FF920F93E2
S11315D01F93CF93DF93CDB7DEB7A1970FB6F894DF
S11315E0DEBF0FBECDBF7C01FA01CB0119A22230B0
S11315F008F42AE08E010F5D1F4F822E912CA12C3E
S1131600B12CBF01A50194010E941C24F901CA0157
S1131610015011096A3010F4605D01C0695CD801A1
S11316206C93232B242B252B61F7B801C7010E944F
S1131630770AA1960FB6F894DEBF0FBECDBFDF9137
S1131640CF911F910F91FF90EF90BF90AF909F901B
S11316508F9008952115310541F4DC01ED91FC9141
S11316600190F081E02D642F09940C94E10A9A0111
S1131670462F50E060E070E00C942A0B9A01AB0115
S113168060E070E00C942A0B0F931F93CF93DF93C9
S1131690EC010E943E0B8C01CE010E94B90A800F1E
S11316A0911FDF91CF911F910F9108950F931F9375
S11316B0CF93DF93EC010E942A0B8C01CE010E9490
S11316C0B90A800F911FDF91CF911F910F91089557
S11316D0CF92DF92EF92FF920F931F93CF93DF93FA
S11316E02115310581F4DC01ED91FC910190F0812B
S11316F0E02D642FDF91CF911F910F91FF90EF9018
S1131700DF90CF9009942A30310501F577FF1DC091
S11317106A017B01EC016DE20E94B20A8C0144274C
S11317205527BA014C195D096E097F092AE0CE01DB
S11317300E94E10A800F911FDF91CF911F910F91B9
S1131740FF90EF90DF90CF9008952AE0DF91CF9142
S11317501F910F91FF90EF90DF90CF900C94E10ACE
S11317609A01AB01770F660B770B0C94680B0F9300
S11317701F93CF93DF93EC010E94B00B8C01CE0139
S11317800E94B90A800F911FDF91CF911F910F9191
S113179008957F928F929F92AF92BF92CF92DF92E1
S11317A0EF92FF920F931F93CF93DF938C016A0103
S11317B07B01722E9A01AB01C701B6010E94072476
S11317C0882319F062E672E027C046015701E894C5
S11317D0B7F82FEF3FEF4FE75FE7C501B4010E9471
S11317E0072481110DC02FEF3FEF4FE75FE7C501DD
S11317F0B4010E94022418161CF466E672E00CC0C0
S11318002FEF3FEF4FE75FE4C701B6010E940D09D8
S1131810181694F46AE672E0C801DF91CF911F9123
S11318200F91FF90EF90DF90CF90BF90AF909F907B
S11318308F907F900C94770A2FEF3FEF4FE75FEC88
S1131840C701B6010E94022487FDE4CF20E030E006
S1131850A901C701B6010E94022487FF0AC06DE2F4
S1131860C8010E94B20AEC01F7FAF094F7F8F09478
S113187002C0C0E0D0E0B12C60E070E080E09FE303
S11318807B1441F020E030E040E251E40E94D707AD
S1131890B394F6CFA70196010E946B076B017C01FC
S11318A00E9450084B015C012AE0AB01BC01C80155
S11318B00E94E10AC80FD91F7720B9F1C501B4010C
S11318C00E947F089B01AC01C701B6010E946A0710
S11318D06B017C016EE2C8010E94B20AC80FD91FD5
S11318E020E030E040E251E4C701B6010E94120951
S11318F04B015C010E9450086B017C014AE050E0FE
S1131900C8010E943E0BC80FD91FB60180E090E0C9
S11319100E947F089B01AC01C501B4010E946A07C3
S11319206B017C017A947110DBCFCE01DF91CF91F2
S11319301F910F91FF90EF90DF90CF90BF90AF90E9
S11319409F908F907F9008950F931F93CF93DF9371
S1131950EC010E94C90B8C01CE010E94B90A800FD0
S1131960911FDF91CF911F910F9108951F920F92B4
S11319700FB60F9211242F933F938F939F93AF939E
S1131980BF938091670590916805A0916905B09116
S11319906A053091660523E0230F2D3720F4019664
S11319A0A11DB11D05C026E8230F0296A11DB11D7E
S11319B0209366058093670590936805A093690555
S11319C0B0936A0580916B0590916C05A0916D05AB
S11319D0B0916E050196A11DB11D80936B05909386
S11319E06C05A0936D05B0936E05BF91AF919F9167
S11319F08F913F912F910F900FBE0F901F901895CC
S1131A002FB7F89460916705709168058091690516
S1131A1090916A052FBF08953FB7F89480916B05A4
S1131A2090916C05A0916D05B0916E0526B5A89BAB
S1131A3005C02F3F19F00196A11DB11D3FBFBA2F5C
S1131A40A92F982F8827820F911DA11DB11DBC01BC
S1131A50CD0142E0660F771F881F991F4A95D1F781
S1131A600895789484B5826084BD84B5816084BD12
S1131A7085B5826085BD85B5816085BDEEE6F0E003
S1131A80808181608083E1E8F0E01082808182605F
S1131A908083808181608083E0E8F0E080818160E0
S1131AA08083E1EBF0E0808184608083E0EBF0E010
S1131AB0808181608083EAE7F0E0808184608083B4
S1131AC0808182608083808181608083808180685E
S1131AD080831092C1000895833081F028F481300E
S1131AE099F08230A1F008958730A9F08830B9F0D8
S1131AF08430D1F4809180008F7D03C08091800078
S1131B008F7780938000089584B58F7702C084B561
S1131B108F7D84BD08958091B0008F7703C080913C
S1131B20B0008F7D8093B0000895CF93DF9390E051
S1131B30FC01ED5EFE4F2491FC01E95DFE4F8491B2
S1131B40882361F190E0880F991FFC01EB5BFE4F45
S1131B50C591D491FC01E55CFE4FA591B49161114E
S1131B6009C09FB7F8948881209582238883EC91DB
S1131B702E230BC0623061F49FB7F8948881322F12
S1131B80309583238883EC912E2B2C939FBF06C022
S1131B908FB7F894E8812E2B28838FBFDF91CF91E4
S1131BA008951F93CF93DF93282F30E0F901E1507C
S1131BB0FF4F8491F901ED5EFE4FD491F901E95D87
S1131BC0FE4FC491CC23C1F0162F81110E946C0DDD
S1131BD0EC2FF0E0EE0FFF1FE55CFE4FA591B491F2
S1131BE09FB7F894111104C08C91D095D82302C0EA
S1131BF0EC91DE2BDC939FBFDF91CF911F91089571
S1131C00FA01E20FF11D6083718382839383089547
S1131C10FC01E60FF11D208131816281862F90E065
S1131C20A0E0B0E0DC0199278827932B822B238145
S1131C30BC01CD01922B08958831E9F058F480312C
S1131C4071F1843199F08C3059F469E070E080E0EE
S1131C5090E008958033C9F08034E1F0803281F05F
S1131C60682F6F7070E080E090E008956BE070E0A2
S1131C7080E090E008956CE070E080E090E00895EA
S1131C806DE070E080E090E008956EE070E080E048
S1131C9090E008956FE070E080E090E008956AE0DD
S1131CA070E080E090E00895CF93DF93EC014A85E3
S1131CB05B8588E4849F9001859F300D1124A88161
S1131CC0B981A20FB31FFB0101900D928A95E1F730
S1131CD08A859B85AC85BD850196A11DB11D8A872A
S1131CE09B87AC87BD874A815B816C817D8184172A
S1131CF09507A607B70721F41A861B861C861D863E
S1131D008E859F85A889B9890196A11DB11D8E87ED
S1131D109F87A88BB98B4A895B896C897D89481711
S1131D2059076A077B0720F48A8B9B8BAC8BBD8B8E
S1131D30DF91CF910895CF93DF93EC014E815F81C2
S1131D4088E4849F9001859F300D1124E881F981F6
S1131D50E20FF31FDB0101900D928A95E1F78E8566
S1131D609F85A889B9890197A109B1098E879F87A1
S1131D70A88BB98B8E819F81A885B9850196A11DF9
S1131D80B11D8E839F83A887B9874A815B816C814B
S1131D907D8184179507A607B70721F41E821F8249
S1131DA018861986DF91CF910895FC0120812EBDFC
S1131DB09B012150310941F051810DB407FEFDCF43
S1131DC04EB55EBD4193F5CF61507109FC01E60F3C
S1131DD0F71F0DB407FEFDCF8EB5808308958F9253
S1131DE09F92AF92BF92CF92DF92EF92FF920F93A6
S1131DF01F93CF93DF93EC016A017B01453C81E0A3
S1131E00580738F428E4249FC001259F900D11241D
S1131E1002C08FEF9FEF0E94470A4C0156018C01CC
S1131E20A114B10449F0C8010E94BE04085B1F4F0D
S1131E3081E0A81AB108F4CF88829982CA82DB8231
S1131E40EC82FD821E821F82188619861A861B86E2
S1131E501C861D861E861F86188A198A1A8A1B8A62
S1131E601C8A1D8ADF91CF911F910F91FF90EF90F3
S1131E70DF90CF90BF90AF909F908F900895209166
S1131E807105222399F04FB7F89420917105213000
S1131E9059F42DB320936F053DB32091700520951F
S1131EA023232DBB4FBF02C040936F058CBD9DBD46
S1131EB008950CB405FC0DC09EBD00000DB407FED2
S1131EC0FDCF9EB58EBD00000DB407FEFDCF8EB5CF
S1131ED008958EBD00000DB407FEFDCF8EB59EBDE6
S1131EE000000DB407FEFDCF9EB5089580917105E5
S1131EF0882361F09FB7F8942091710580916F0554
S1131F00213019F48DBB9FBF08958FBF0895FC0144
S1131F101182108280E58283138255834483668311
S1131F2027831086118612861386148615861686D4
S1131F301786118A108A128A138A148A158A168AB5
S1131F40178A108E118E128E138E148E158E168E85
S1131F50178E10A211A212A213A214A215A217A2E4
S1131F6016A210A611A612A613A614A615A616A6A6
S1131F7017A610AA11AA12AA13AA14AA15AA16AA75
S1131F8017AA10AE11AE12AE13AE08950F931F939D
S1131F90CF938C01FC01828193810E943F0FF894BE
S1131FA0C1E0F801868D978DA0A1B1A1892B8A2B60
S1131FB08B2B09F4C0E078940E94760F8C2FCF917C
S1131FC01F910F910895EF92FF921F93CF93DF9388
S1131FD0EC017B018A819B810E943F0FF8948E8DD6
S1131FE09F8DA8A1B9A111E00097A105B10509F43D
S1131FF010E0892B8A2B8B2B29F0B701CE01409658
S11320000E949B0E78940E94760F812FDF91CF91CE
S11320101F91FF90EF90089560E0FC0186810C947D
S1132020D10D61E0FC0186810C94D10DEF92FF92F9
S11320300F931F93CF93DF9300D000D000D0CDB780
S1132040DEB77C01FB01CA01B9018E010F5F1F4F8E
S113205026E0D8011D922A95E9F79F013F7030626E
S113206039832A8322E0A8010E94000EC7010E943E
S11320700C1066E070E0C8010E94D50EC7010E94F2
S1132080111026960FB6F894DEBF0FBECDBFDF91B8
S1132090CF911F910F91FF90EF9008950F931F938D
S11320A0CF93DF9300D01F92CDB7DEB78C017F7042
S11320B0706279836A834B830E940C1063E070E042
S11320C0CE0101960E94D50EC8010E9411100F90F6
S11320D00F900F90DF91CF911F910F910895EF9280
S11320E0FF920F931F93CF93DF9300D000D000D0C3
S11320F0CDB7DEB77C018E010F5F1F4F86E0F8017C
S113210011928A95E9F77F70706379836A83C701B6
S11321100E940C1066E070E0C8010E94D50EC70151
S11321200E94111062E0C8010E94080E26960FB6A4
S1132130F894DEBF0FBECDBFDF91CF911F910F91F9
S1132140FF90EF9008952F923F924F925F926F927B
S11321507F928F929F92AF92BF92CF92DF92EF9233
S1132160FF920F931F93CF93DF93CDB7DEB7C05584
S1132170D1090FB6F894DEBF0FBECDBF5C018B0151
S113218060E770E00E946F109B013C5F2D963FAFAB
S11321902EAF2D97D8014D905D906D907C90139744
S11321A014969C909920D1F0D301C20132E1B695E6
S11321B0A795979587953A95D1F79770AA27BB2746
S11321C0E3E06E2277244BE0440C551C661C771C1C
S11321D04A95D1F7482A592A6A2A7B2AD8011796A0
S11321E02C90822D0E941C0E6B017C01992011F011
S11321F06894C4F8F8018581823061F0833029F055
S113220081110DC06894C5F80AC0D5011A968C9145
S1132210811103C06894C7F802C0B0ECCB2A312CFA
S1132220E3E02E0E311C3594279435942794C10194
S1132230032C000CAA0BBB0B61968CAF9DAFAEAF09
S1132240BFAF6197DE0111964D018AE4FD01119241
S11322508A95E9F72D966EAD7FAD2D977F707062EC
S113226079836A8322E0AD01C301B2010E94000EAA
S113227026E0A401C701B6010E94000E085F1F4FAB
S11322802AE0F22E412C512C320161968CAD9DAD89
S1132290AEADBFAD6197481659066A067B0690F449
S11322A0D8016D917D918D919D918D012F2DA4016A
S11322B00E94000EBFEF4B1A5B0A6B0A7B0AE4E034
S11322C0FE0EE3CFC5010E940C10B101660F771F0B
S11322D0660F771F665F7F4FC4010E94D50EC5014C
S11322E00E94111043E069E670E0C5010E944E109F
S11322F0C05BDF4F0FB6F894DEBF0FBECDBFDF91DA
S1132300CF911F910F91FF90EF90DF90CF90BF90EE
S1132310AF909F908F907F906F905F904F903F9081
S11323202F9008950F931F93CF93DF93CDB7DEB70C
S1132330C854D1090FB6F894DEBF0FBECDBF8C01CF
S1132340CE0101960E94BE04F80184A995A9A6A90C
S1132350B7A9892B8A2B8B2B71F0BE016F5F7F4F3E
S1132360C80186960E949B0EBE016F5F7F4FC80115
S11323700E94A31008C040E968E670E0C8010E940A
S11323804E10F8011186C85BDF4F0FB6F894DEBF1C
S11323900FBECDBFDF91CF911F910F9108952F9262
S11323A03F924F925F926F927F928F929F92AF92E1
S11323B0BF92CF92DF92EF92FF920F931F93CF932E
S11323C0DF93CDB7DEB7C559D1090FB6F894DEBF98
S11323D00FBECDBF3C0164E670E00E946F106B013C
S11323E07C01CE01855B9F4F0E94BE048E010F5F6E
S11323F01F4F8AE4F80111928A95E9F7FCEFDF1A7E
S11324008FE0D82290E3D92AD982CA82C3010E94DC
S11324100C106AE470E0C8010E94D50E62E0C801A5
S11324200E94080E2F966CAF7DAF8EAF9FAF2F9793
S113243066E0C8010E94080E4B015C01DC01CB017F
S11324408F709927AA27BB27FC01E458FD4FC08051
S11324506396CFAE6397D12CE3E0CE0ED11CD59416
S1132460C794D594C7940D2C000CEE08FF088BE498
S113247090E08C0F9D1F0896CC56DF4F998388837C
S1132480C459D0409AE0CD56DF4F9883C359D04009
S1132490212C312C21012C143D044E045F0448F5F9
S11324A0CD56DF4F6881C359D040C8010E94080E41
S11324B0CC56DF4FE881F981C459D04061937193C0
S11324C081939193CC56DF4FF983E883C459D0406C
S11324D0FFEF2F1A3F0A4F0A5F0ACD56DF4F88815C
S11324E0C359D0408C5FCD56DF4F8883C359D04049
S11324F0D2CFC3010E94111041E06DE570E0C30129
S11325000E944E10D501C4014BE0B695A79597954E
S113251087954A95D1F78F7162968FAF629785FE42
S113252004C061961FAE61970CC087FC02C081E0B5
S113253005C086FC02C082E001C083E061968FAFD3
S1132540619781E0B501A40140715527662777277B
S113255084FE80E060968FAF6097452B462B472B17
S113256029F12F968CAD9DADAEADBFAD2F97AC01CB
S1132570BD012BE076956795579547952A95D1F738
S1132580637077279770AA27BB2732E1880F991FBA
S1132590AA1FBB1F3A95D1F7842B952BA62BB72BDB
S11325A02F968CAF9DAFAEAFBFAF2F97F30182894B
S11325B09389A489B589468D578D60A171A1481767
S11325C059076A077B0740F4BE01655B7F4FC3016F
S11325D040960E94540E08C00196A11DB11DF3013E
S11325E082A393A3A4A3B5A3CB56DF4F0FB6F8944D
S11325F0DEBF0FBECDBFDF91CF911F910F91FF9032
S1132600EF90DF90CF90BF90AF909F908F907F908E
S11326106F905F904F903F902F9008950F931F936A
S1132620CF93DF9300D000D0CDB7DEB78C011982F1
S11326301A821B821C827F70706379836A830E9472
S11326400C1064E070E0CE0101960E94D50EC80122
S11326500E9411108B819C810F900F900F900F900E
S1132660DF91CF911F910F910895EF92FF921F93E5
S1132670CF93DF93EC018A819B810E943F0F6CE131
S113268070E0CE010E940E137C0181FF05C0CE01D3
S11326900E94CF1111E001C010E0F2FE07C04FEE1E
S11326A06CE670E0CE010E944E1002C0E0FE04C051
S11326B0CE010E94921111E0E2FE07C04BEF6CE1E3
S11326C070E0CE010E944E1011E0E3FE07C047EF18
S11326D06CE170E0CE010E944E1011E0F4FE07C0E0
S11326E04FEE6DE170E0CE010E944E1011E0F3FE5A
S11326F00CC08F858F3F11F08F5F8F8747EF60E6A7
S113270070E0CE010E944E1011E00E94760F812FDE
S1132710DF91CF911F91FF90EF900895CF93DF93B6
S1132720EC01CE010E9435138111FBCFDF91CF91D3
S113273008950F931F93CF93DF9300D01F92CDB7CB
S1132740DEB78C0119821A821B827F7070637983D1
S11327506A830E940C1063E070E0CE0101960E942F
S1132760D50EC8010E9411108B810F900F900F900D
S1132770DF91CF911F910F910895FF920F931F93B3
S1132780CF93DF93EC018B01F42E8A819B810E940D
S11327903F0FF8944F2DB801CE010E944E1078944B
S11327A0DF91CF911F910F91FF900C94760F0F93AF
S11327B01F93CF93DF93EC018B018A819B810E944D
S11327C03F0FF894B801CE010E949913C82F789452
S11327D00E94760F8C2FDF91CF911F910F91089556
S11327E0CF92DF92EF92FF920F931F93CF93DF93D9
S11327F0EC018B0169017A018A819B810E943F0F60
S1132800F894A7019601B801CE010E94161078949D
S1132810DF91CF911F910F91FF90EF90DF90CF90B8
S11328200C94760FCF92DF92EF92FF92CF93DF93C7
S1132830EC017B018A819B810E943F0FF894B701D0
S1132840CE010E946F106B017C0178940E94760F78
S1132850C701B601DF91CF91FF90EF90DF90CF9049
S11328600895CF93DF93EC018A819B810E943F0FEF
S1132870F894CE010E940C1080E090E00E94590F61
S1132880CE010E9411107894DF91CF910C94760FB1
S11328902F923F924F925F926F927F928F929F926C
S11328A0AF92BF92CF92DF92EF92FF920F931F935A
S11328B0CF93DF9300D01F92CDB7DEB79B838A837B
S11328C08B011A016901FB018389811106C044E06F
S11328D0842E912CA12CB12C03C0812C912C540159
S11328E0C8010E94671C672B682B692B11F0689440
S11328F083F8EA81FB818781823029F0833029F4CF
S1132900F1E0F98374C3198272C38F3F09F068C37D
S11329102114310409F461C36894A3F82FEF2983C7
S1132920F80180A1813210F0689497F8F80182A12F
S1132930803210F0689495F8F80187A1811103C0E2
S1132940689490F804C0813210F0689491F8F8010A
S1132950848D811103C0689492F804C0813210F010
S1132960689493F8F801868D803210F0689496F894
S1132970C8010E94EA1C613078408105910510F07D
S1132980689494F8F6018081813210F0689487F895
S1132990F6018581882311F0689486F8F80184890A
S11329A0805C87FF03C06894A4F8BCC081149104C0
S11329B0A104B10409F0B6C0EA81FB8187818F3F8D
S11329C019F062E00E94950D8A819B810E9411108A
S11329D061E0EA81FB8186810E94950D81E5EA81AF
S11329E0FB81828313820E94000D2B013C01F2E0E3
S11329F04F0E511C611C711C4CE063E070E08A8135
S1132A009B810E94BD1362E070E08A819B810E94D9
S1132A10D713829586958770843059F00E94000DF3
S1132A20641575058605970538F3812C912C54019E
S1132A3083948A819B810E94311490E2E92EF12CC7
S1132A40412C512C3201439481149104A104B1040A
S1132A5009F068C0A301920160E074E08A819B815F
S1132A600E94F01360E074E08A819B810E9412143A
S1132A70641575058605970529F082E0882E912C4A
S1132A80A12CB12C440C551C661C771C21E0E21AC5
S1132A90F108D1F681149104A104B10409F042C0F3
S1132AA0F80180818150873050F490E0FC01EB58AC
S1132AB0FD4FF080FC01E259FD4F408102C040E02F
S1132AC0F12C4F29F801808D843029F0F0E28F9F9A
S1132AD0C0011124482B60E07EE08A819B810E9422
S1132AE0BD13FF20F9F00E94000D2B013C0122E0F0
S1132AF0420E511C611C711C61E07EE08A819B8145
S1132B000E94D713982F917080FD78C20E94000D07
S1132B10641575058605970578F3812C912CA2E040
S1132B20AA2EB12CF801418052806380748076947F
S1132B3067945794479440E052E16AE770E090E06C
S1132B40441655066606770640F4769567955795BC
S1132B5047959F5F9630A1F797E081E08927982FEA
S1132B60906A9695EA81FB8192838170838360E207
S1132B70E62EF12C412C512C320143948114910402
S1132B80A104B10409F03EC2A301920160E074E023
S1132B908A819B810E94F01360E074E08A819B81AA
S1132BA00E941214641575058605970529F0812C79
S1132BB0912C54E0A52EB12C440C551C661C771C9A
S1132BC0F1E0EF1AF108D1F681149104A104B104E3
S1132BD009F018C2F801428D538D60E070E08A81DB
S1132BE09B8186960E94EF0EF80144A155A160E0F6
S1132BF070E08A819B8140960E94EF0EE12C34E0C4
S1132C00F32E20E030E0A901B7018A819B810E9464
S1132C10F013F4E0EF0EF11CE1142CE0F20689F756
S1132C20F801808D843011F443E201C043E0F801DF
S1132C30858981114061F80186898111406467E0CA
S1132C407EE08A819B810E94BD13F80187898823D5
S1132C5011F040E601C040E460E070E08A819B81AD
S1132C600E94BD13F80124892F77822F220F990B1C
S1132C70AA0BBB0BBA2FA92F982F88279C01AD0153
S1132C80426052606CE070E08A819B810E94F01384
S1132C90F80143A14295440F407E82A1482B62E58E
S1132CA070E08A819B810E94BD1381E0F80190A1AC
S1132CB0911101C080E0EA81FB818087F80181A144
S1132CC0F0E28F9FC0011124F80140A14150482B2C
S1132CD063E570E08A819B810E94BD13F80181A1A4
S1132CE00E94221DEA81FB8164878085811102C0D4
S1132CF040E001C040E1416062E070E08A819B8174
S1132D000E94BD13F80186A1F0E28F9FC001112437
S1132D10F80147A14150482B6FE570E08A819B81FF
S1132D200E94BD1349E06CE570E08A819B810E949A
S1132D30BD13F80186A10E94221DEA81FB816587EB
S1132D40F801478D4295440F407E868D482B6AE6F4
S1132D5070E08A819B810E94BD13F801858DF0E2A9
S1132D608F9FC0011124F801448D4150482B6BE61C
S1132D7070E08A819B810E94BD1340E968E670E09F
S1132D808A819B810E94BD13F801858D0E94221DBA
S1132D90EA81FB816387F601E180F280808190E023
S1132DA0880F991F0E94470AEA81FB8191838083DF
S1132DB0512CE114F104E1F1F70142855385C52C4E
S1132DC0D12CC601880F991FEA81FB8120813181B2
S1132DD0F901E80FF91F518340833601F3E0660CD3
S1132DE0771CFA95E1F7F7012281338144815581FB
S1132DF0B3016C507E4F8A819B810E94F013F701CE
S1132E002681378140855185B30160517E4F8A8187
S1132E109B810E94F013B60160537E4F41E88A8182
S1132E209B810E94BD13F701E080F1805394C1CFD0
S1132E3043E06EE170E08A819B810E94BD1344E00F
S1132E406FE170E08A819B810E94BD13F8012585A2
S1132E50368521503109C901A0E0B0E0CC24D82E38
S1132E60E92EFA2E2785308921503109C901A0E0C5
S1132E70B0E08C299D29AE29BF294427582F692FFA
S1132E807A2F818990E00197092E000CAA0BBB0BC5
S1132E90842B952BA62BB72BBA2FA92F982F8827D5
S1132EA0228930E021503109A901330F660B770BD9
S1132EB09A01AB01282B392B4A2B5B2B64E070E081
S1132EC08A819B810E94F013F801818591E0813011
S1132ED009F490E0EA81FB819287813009F43FC0D4
S1132EE0F8012585368521503109C901A0E0B0E0FB
S1132EF0CC24D82EE92EFA2E228530E02150310937
S1132F00C901330FAA0BBB0B8C299D29AE29BF29FC
S1132F104427582F692F7A2F838590E00197092E33
S1132F20000CAA0BBB0B842B952BA62BB72BBA2F0B
S1132F30A92F982F8827248530E021503109A90131
S1132F40330F660B770B9A01AB01282B392B4A2BD5
S1132F505B2B68E070E08A819B810E94F013F8018A
S1132F60418DEA81FB81468763E070E0CF010E94D6
S1132F70BD130E94000D6B017C01FAE0CF0ED11C41
S1132F80E11CF11C62E070E08A819B810E94D713EE
S1132F90829586958770F801918D891759F00E9462
S1132FA0000D6C157D058E059F0560F3812C912C19
S1132FB05401A394EA81FB8187818F3F49F040E06B
S1132FC050E0B10189810E94C91F89810E94611D5D
S1132FD0EA81FB811186178615C0FFEFF983A0CC27
S1132FE02FEF298380E1882E912CA12CB12C211460
S1132FF0310409F095CC689485F892CC913009F0AD
S11330007BCD90CDC501B4010F900F900F90DF914F
S1133010CF911F910F91FF90EF90DF90CF90BF90D1
S1133020AF909F908F907F906F905F904F903F9064
S11330302F900895CF92DF92EF92FF920F931F93F8
S1133040CF93DF93CDB7DEB727970FB6F894DEBFE3
S11330500FBECDBF8C017B016A0119821B821A82CB
S11330601D821C821E821F828CE090E00E94450A11
S1133070FC0111821082128213821482158216823C
S1133080178210861186138612868A819B81892B6A
S113309019F4FB83EA8304C0AC81BD81ED93FC93F6
S11330A0FD83EC8389818F5F89839E012F5F3F4F6E
S11330B0A601B701C8010E9448146B017C018A81F2
S11330C09B81009741F0FC01008111810E94490A13
S11330D01B830A83F4CFC701B60127960FB6F89471
S11330E0DEBF0FBECDBFDF91CF911F910F91FF9037
S11330F0EF90DF90CF9008952F923F924F925F927E
S11331006F927F928F929F92AF92BF92CF92DF92F3
S1133110EF92FF920F931F93CF93DF93CDB7DEB758
S1133120E2970FB6F894DEBF0FBECDBF9AA789A76A
S11331302D873E874F87588BC9A2DAA2EBA2FCA247
S1133140DC016C93683078F4B4E06B9FF0011124D7
S1133150E457FD4F208131814281538129833A8391
S11331604B835C8308C040E05AE562E672E0498321
S11331705A836B837C8369817A818B819C81A9A525
S1133180BAA511966D937D938D939C9314972D8579
S11331903E854F85588915962D933D934D935C93A9
S11331A0189719960C9319971A961C921A971B96AE
S11331B01C921B971C961C921C971E961C921E9286
S11331C01D9750961C921E921F9751961C925197D0
S11331D052961C92529753961C92539754961C9253
S11331E0549755961C92559756961C92569781E083
S11331F057968C93579793E058969C935897599663
S11332001C92599720E130E05B963C932E935A9799
S11332105C968C935C9787E05D968C935D975E9645
S11332201C925E9792E05F969C935F9790961C9297
S1133230909791968C9391972FE192962C939297D5
S113324093969C93939720E230E095963C932E932B
S1133250949796968C9396978BE197968C930130DE
S113326009F01AC169817A818B819C812D853E8503
S11332704F8558890E941C242D8B3E8B4F8B588F71
S1133280832E942EA52EBB242D853E854F855889EB
S11332900027122F232F342F098B1A8B2B8B3C8B57
S11332A0B4E04B2E512C612C712C01E010E0212C48
S11332B0312C4FEF5FEFBA0149875A876B877C87C0
S11332C0C12CD12C7601D39432E8831631E09306D5
S11332D0A104B10408F093C0C114D104E104F104C1
S11332E009F48DC0D501C4010497A109B1098E3731
S11332F09140A105B10548F5A7019601C501B401A6
S11333000E940C249B01AC016D857E858F85988974
S11333100E940C2429813A814B815C81261B370B46
S1133320480B590BDA01C90149855A856B857C859F
S1133330481759076A077B0740F0240135018601C5
S1133340170189879A87AB87BC87D501C401039786
S1133350A109B1098E379140A105B10540F56FEF80
S1133360861A960AA60AB60AA501940169897A8979
S11333708B899C890E940C24DC01CB0129813A8130
S11333804B815C81821B930BA40BB50B49855A8539
S11333906B857C85481759076A077B0740F0240131
S11333A035018601170189879A87AB87BC8751E06D
S11333B0C51AD108E108F108B9F4E2E88E2E99247F
S11333C09394A12CB12C69897A898B899C892D8548
S11333D03E854F855889621B730B840B950B698B53
S11333E07A8B8B8B9C8B70CF6D897E898F89988D1E
S11333F0A70196010E941C2449015A01E4CFC3018C
S1133400B20125E030E040E050E00E941C24211588
S113341031054105510521F421E030E040E050E060
S11334207301620161E0C61AD108E108F108C21A09
S1133430D30AE40AF50A71E0C716D706E104F104D9
S113344078F0DA01C9019150A109B109A7019601E7
S1133450280F391F4A1F5B1FC12CD12C7601D3942E
S1133460A9A5BAA51E961C930E931D975096DC929F
S1133470CE921F9751962C93519752962C93980164
S1133480A101C301B2010E940C249B01AC016D8512
S11334907E858F85988974C1202F30E040E050E00C
S11334A02D8F3E8F4F8F58A32D853E854F8558898C
S11334B06D8D7E8D8F8D98A10E940C24698F7A8FDB
S11334C08B8F9C8F69817A818B819C81298D3A8D28
S11334D04B8D5C8D0E941C242DA33EA34FA358A7A3
S11334E069017A0132E0F694E794D794C7943A9547
S11334F0D1F7098D1A8D2B8D3C8D42E0000F111FE1
S1133500221F331F4A95D1F70D8B1E8B2F8B388FBB
S113351054E0452E512C612C712C60E3862E912CA5
S1133520A12CB12C00E011E020E030E009871A87DB
S11335302B873C870FEF1FEF9801098B1A8B2B8B7E
S11335403C8BC114D104E104F10409F48AC011E0F4
S1133550C116D106E104F10408F05DC02D893E894D
S11335604F89588DC701B6010E940C246FA778AB10
S113357089AB9AAB09811A812B813C81061B170BFD
S1133580280B390B0BA71CA72DA73EA749895A89DD
S11335906B897C89401751076207730750F0530108
S11335A04201C986DA86EB86FC86098B1A8B2B8B43
S11335B03C8BC11451E0D506E104F10461F16FEFD5
S11335C0C61AD60AE60AF60A8D899E89AF89B88D8D
S11335D00FA518A929A93AA9800F911FA21FB31FEB
S11335E009811A812B813C81801B910BA20BB30BA7
S11335F009891A892B893C89081719072A073B0767
S113360050F053014201C986DA86EB86FC86898B29
S11336109A8BAB8BBC8B1FEF411A510A610A710A5A
S11336206DA17EA18FA198A5A30192010E941C24E3
S113363069017A010D891E892F89388D498D5A8D2A
S11336406B8D7C8D040F151F261F371F0D8B1E8B52
S11336502F8B388F51E3451651046104710409F02E
S113366070CFC501B40125E030E040E050E00E9495
S11336701C24211531054105510521F421E030E0D8
S113368040E050E0D501C4010197A109B109821BB2
S1133690930BA40BB50B81329105A105B10580F004
S11336A0BA01A90140525109610971099A01AB019A
S11336B0280F391F4A1F5B1F80E290E0A0E0B0E0B2
S11336C009851A85089FB001099F700D189F700D18
S11336D011246034710508F06FE3E9A5FAA5648B41
S11336E08287238724872D8D3E8D4F8D58A1C50158
S11336F0B4010E940C246B017C0125E030E040E021
S113370050E00E941C24211531054105510521F486
S113371021E030E040E050E0D701C6010197A10963
S1133720B109821B930BA40BB50B8130F1E09F0709
S1133730A105B10578F0BA01A901515061097109D7
S11337409A01AB01280F391F4A1F5B1F80E091E0EB
S1133750A0E0B0E0E9A5FAA516870587908B8787D6
S1133760218B228B2D853E854F85588969857A85E5
S11337708B859C850E940C249B01AC01C701B6017A
S11337800E940C242B013C0109811A812B813C816C
S1133790601771078207930738F4D901C8018419A7
S11337A09509A609B7090AC0DC01CB0109811A8170
S11337B02B813C81801B910BA20BB30B8C019D01CF
S11337C040E050E0BA0189831A832B833C834D8304
S11337D05E836F83788780E4A82E92E4B92E2FE06D
S11337E0C22ED12CE12CF12C00E010E029813A8189
S11337F04B815C816D817E818F8198850E945F24DD
S113380079018A011B014C01C301B20129A13AA12A
S11338104BA15CA10E94B82459016A01762EB72FEE
S1133820A82FF92FE1E09701A801B101C401E72C09
S1133830FB2E0A2F1F2F0E94E32411F008F0E0E072
S1133840A9A5BAA55396EC93E2960FB6F894DEBFF9
S11338500FBECDBFDF91CF911F910F91FF90EF90DD
S1133860DF90CF90BF90AF909F908F907F906F909C
S11338705F904F903F902F900895CF92DF92EF92F8
S1133880FF92FC0121852130D9F0A285B0E0119688
S11338908385A80FB11D30E00E944D2447855089CF
S11338A04F5F5F4F2189420F511D6A01E12CF12CBA
S11338B021E06C157D058E059F0519F020E001C0FF
S11338C021E0822FFF90EF90DF90CF900895CF9268
S11338D0DF92EF92FF92CF93DF93FC01858596856B
S11338E0009749F08130914058F092E0C92ED12CD4
S11338F0E12CF12C08C0C12CD12C7601C39403C057
S1133900C12CD12C7601278530892230310518F459
S11339106894C2F806C0213081E0380710F068943A
S1133920C3F89189911103C06894C4F804C0913814
S113393010F06894C5F88289811103C06894C6F8B0
S113394004C0813810F06894C7F8482F50E0241759
S1133950350710F46894D0F8981710F46894D1F8E7
S11339608185813071F1EF01CF010E943D1C8111ED
S113397002C06894D2F82A85223018F46894D3F8E7
S113398004C0213210F06894D4F89B85911103C0CF
S11339906894D5F804C0913110F06894D6F88C85F9
S11339A0811103C06894D7F80CC0813110F0689479
S11339B0E0F8281710F46894E1F8981710F4689464
S11339C0E2F8C701B601DF91CF91FF90EF90DF904D
S11339D0CF900895CF92DF92EF92FF92CF93DF932F
S11339E0FC01A1A1B0E0A455BD4FAC9120A1C6A19A
S11339F0D0E0C455DD4F488157A130E0B0E00E94CB
S1133A003E246B017C01252F30E0A42FB0E00E94FE
S1133A103E24C60ED71EE81EF91EA58DB0E0A4559F
S1133A20BD4F2C91A48D30E0B0E00E943E246C0D7B
S1133A307D1D8E1D9F1DDF91CF91FF90EF90DF9034
S1133A40CF900895E82FF0E0E455FD4F608170E0D9
S1133A5080E090E00895CF93CFB7F89480917205F9
S1133A60811127C0E1E3F1E08491EDE1F1E094916B
S1133A70E82FF0E0EE0FFF1FEB5BFE4FA591B49132
S1133A80EC91E92321F461E08AE00E94D10D61E028
S1133A908AE00E94950D8CB580618CBD8CB58064E4
S1133AA08CBD61E08DE00E94950D61E08BE00E9489
S1133AB0950D809172058F5F80937205CFBFCF9172
S1133AC008959FB7F894882349F0813011F482E077
S1133AD006C082E08093710580E001C081E02091FE
S1133AE07005822B8093700580917105811103C04C
S1133AF081E0809371059FBF08958091A80590E0AF
S1133B002091A905821B910908959091A90580919E
S1133B10A805981750F4E92FF0E0E655FA4F2081F4
S1133B2030E09F5F9093A90502C02FEF3FEFC901DA
S1133B300895E091A9058091A805E81730F4F0E014
S1133B40E655FA4F808190E008958FEF9FEF089536
S1133B500895CF93DF93EC01E0918005F091810506
S1133B603097F1F09091A9058091A8059817C0F0BD
S1133B7090E0292F30E02617370754F4DE01A20F16
S1133B80B31F4C91D901A655BA4F4C939F5FF1CF07
S1133B901092A9056093A805CB01DF91CF910994F8
S1133BA0DF91CF910895E0918205F09183053097DC
S1133BB029F0109286051092850509940895CF92F4
S1133BC0DF92EF92FF920F931F93CF93DF937C01C9
S1133BD0CB018A0120918405222389F0EB016B013A
S1133BE0C40ED51ECC15DD0569F06991D701ED91A0
S1133BF0FC910190F081E02DC7010995F3CF642F6A
S1133C000E947620C801DF91CF911F910F91FF9000
S1133C10EF90DF90CF900895CF93DF931F92CDB7AD
S1133C20DEB76983209184052223D1F02091850594
S1133C30203240F021E030E0FC013383228380E035
S1133C4090E015C080918605E82FF0E0E957FA4F1F
S1133C50998190838F5F809386058093850505C045
S1133C6061E0CE0101960E94762081E090E00F9001
S1133C70DF91CF910895FC011382128288EE93E0C4
S1133C80A0E0B0E084839583A683B78388EB92E0B9
S1133C909183808308951092A9051092A80510922B
S1133CA08605109285050E94372083ED9DE10E94D0
S1133CB0A32089EA9DE10C949E20CB01BA010C94C7
S1133CC0622081E0809384056093A70510928605A5
S1133CD01092850508950F93062F21E040918505E4
S1133CE067E875E08091A7050E94AD2110928605D2
S1133CF010928505109284050F9108954F925F925A
S1133D006F927F92AF92BF92CF92EF92FF920F93F6
S1133D101F93CF93DF935C01F62ED42F2801390132
S1133D20EE2021F10E94611ECE2DC43008F0C3E0C4
S1133D30C150C0F028E0C29FC0011124A301920128
S1133D4004C056954795379527958A95D2F7CA01A9
S1133D50B901D501ED91FC910190F081E02DC501EF
S1133D600995E6CF60E0C5010E946B1E4D2FD1324C
S1133D7008F040E22C2D6AEA75E08F2D0E94C420E1
S1133D801092A9058093A805DF91CF911F910F91FF
S1133D90FF90EF90CF90BF90AF907F906F905F9027
S1133DA04F900895CF92EF920F931F93C22EE12C60
S1133DB000E010E098010E947E1E1F910F91EF9089
S1133DC0CF90089521E00C94D21E61E00C946B1EF8
S1133DD084E795E00C943B1EFC01918D228D892F84
S1133DE090E0805C9F4F821B91098F7399270895FF
S1133DF0FC01918D828D981731F0828DE80FF11DB1
S1133E00858D90E008958FEF9FEF0895FC01918DCB
S1133E10828D981761F0828DDF01A80FB11D5D9628
S1133E208C91928D9F5F9F73928F90E008958FEF96
S1133E309FEF0895FC01538D448D252F30E0842F8E
S1133E4090E0821B930B541710F0CF9608950197BE
S1133E5008958EEF99E0892B49F080E090E0892B5A
S1133E6029F00E94FE0981110C9400000895FC01C0
S1133E70848DDF01A80FB11DA35ABF4F2C91848DEF
S1133E8090E001968F739927848FA689B7892C9324
S1133E90A089B1898C91837080648C93938D848D77
S1133EA0981306C00288F389E02D80818F7D80837A
S1133EB00895EF92FF920F931F93CF93DF93EC013A
S1133EC081E0888F9B8D8C8D981305C0E889F989D2
S1133ED0808185FD26C0F62E0B8D10E00F5F1F4FED
S1133EE00F731127E02E8C8DE8120CC00FB607FC5F
S1133EF0FACFE889F989808185FFF5CFCE010E9448
S1133F00371FF1CF8B8DFE01E80FF11DE35AFF4FF0
S1133F10F0829FB7F8940B8FEA89FB8980818062D5
S1133F200AC09FB7F894EE89FF896083E889F9890C
S1133F3080818370806480839FBF81E090E0DF9103
S1133F40CF911F910F91FF90EF900895CF93DF933E
S1133F50EC01888D8823C9F0EA89FB89808185FD7D
S1133F6005C0A889B9898C9186FD0FC00FB607FCDE
S1133F70F5CF808185FFF2CFA889B9898C9185FF1F
S1133F80EDCFCE010E94371FE7CFDF91CF91089587
S1133F9008958230E8F4E82FF0E0EE0FFF1FE35EAF
S1133FA0FE4F71836083813041F0809169008C7F82
S1133FB0482B40936900E89A089580916900837FB3
S1133FC0440F551F440F551F482B40936900E99A2D
S1133FD008951F920F920FB60F9211242F933F93BF
S1133FE04F935F936F937F938F939F93AF93BF93FD
S1133FF0EF93FF93E0911D01F0911E010995FF914C
S1134000EF91BF91AF919F918F917F916F915F914C
S11340104F913F912F910F900FBE0F901F901895C5
S11340201F920F920FB60F9211242F933F934F9329
S11340305F936F937F938F939F93AF93BF93EF930C
S1134040FF93E0911F01F09120010995FF91EF91F9
S1134050BF91AF919F918F917F916F915F914F919C
S11340603F912F910F900FBE0F901F9018951092B3
S11340703D0681E080933B0610923A0661E082E1BE
S11340800E94D10D61E083E10E94D10DE9EBF0E0E3
S113409080818E7F808380818D7F808388E480937C
S11340A0B80085E48093BC000895ECEBF0E08081D7
S11340B08A7B808360E082E10E94D10D60E083E12D
S11340C00C94D10D9B01AC0160E074E284EF90E0AC
S11340D00E941C24DA01C9014097A109B109B695CF
S11340E0A795979587958093B80008954091EC051E
S11340F0262F30E0240F311D21323105DCF42091CC
S11341003D062430C9F4FC0180E090E0861758F4A1
S11341103091EC052191DC01A251BA4FA30FB11DDE
S11341202C930196F3CF8091EC05680F6093EC0516
S113413080E0089581E0089582E008959093310627
S11341408093300608959093330680933206089541
S113415085EC8093BC0010923D060895CF93DF93C5
S113416091E090933506882361F0C091B800D09116
S1134170BA000E9455200E943720D093BA00C09301
S1134180B800DF91CF9108954F925F926F927F9222
S11341908F929F92AF92BF92CF92DF92EF92FF9253
S11341A00F931F93CF93DF93F82E162F072FC42F4F
S11341B0E22E413208F0BEC00E940C0D4B015C019E
S11341C0D0913D06DD2331F180913606909137067A
S11341D0A0913806B0913906892B8A2B8B2B81F359
S11341E00E940C0D409036065090370660903806B9
S11341F070903906DC01CB0188199909AA09BB0919
S1134200481659066A067B06D8F6809134060E9441
S1134210AE2090C081E080933D06E0923B069FEF84
S11342209093CA0510920F069C0F90930E068093EC
S11342303C0690913C068F2D880F892B80933C0679
S113424080913A06813089F510923A060E940C0D4D
S11342506B017C0180913C068093BB008091360603
S113426090913706A0913806B0913906892B8A2B94
S11342708B2BA9F00E940C0D809036069090370687
S1134280A0903806B0903906DC01CB018C199D0949
S1134290AE09BF0988169906AA06BB0690F180915B
S11342A0BC0083FDD7CF85EC01C085EE8093BC00B4
S11342B00E940C0D6B017C0180913D06813031F52B
S11342C08091360690913706A0913806B091390650
S11342D0892B8A2B8B2B81F30E940C0D8090360640
S11342E090903706A0903806B0903906DC01CB01D7
S11342F08C199D09AE09BF0988169906AA06BB0642
S1134300D8F6809134060E94AE2015C080910F0625
S11343108C1710F4C0910F06A0E1B6E0912FE12FA5
S1134320F02F8E2F891B8C1718F48D918193F9CF60
S1134330DC2F01C0D0E08D2FDF91CF911F910F9121
S1134340FF90EF90DF90CF90BF90AF909F908F90B1
S11343507F906F905F904F9008954F925F926F920D
S11343607F928F929F92AF92BF92CF92DF92EF9201
S1134370FF920F931F93CF93DF93413208F0C6C08F
S1134380122FF42ED72EE62ED82F0E940C0D4B019F
S11343905C01C0913D06CC2311F1809136069091C9
S11343A03706A0913806B0913906892B8A2B8B2BBE
S11343B081F30E940C0D40903606509037066090B1
S11343C0380670903906DC01CB0188199909AA09CD
S11343D0BB09481659066A067B06D8F683C082E0F4
S11343E080933D0600933B068FEF8093CA0510929D
S11343F00F06F0920E069E2DA0E1B6E0EE2DFD2DE7
S11344008E2F891B8F1518F481918D93F9CF1092FB
S11344103C0690913C06DD0FD92BD0933C0680914D
S11344203A06813089F510923A060E940C0D6B0110
S11344307C0180913C068093BB008091360690916C
S11344403706A0913806B0913906892B8A2B8B2B1D
S1134450A9F00E940C0D8090360690903706A0902B
S11344603806B0903906DC01CB018C199D09AE09E0
S1134470BF0988169906AA06BB06A0F18091BC0064
S113448083FDD7CF85EC01C085EE8093BC000E94EC
S11344900C0D6B017C01112359F180913D06823092
S11344A039F58091360690913706A0913806B0917F
S11344B03906892B8A2B8B2B71F30E940C0D80906B
S11344C0360690903706A0903806B0903906DC0185
S11344D0CB018C199D09AE09BF0988169906AA0655
S11344E0BB06C8F6809134060E94AE20C5E013C016
S11344F08091CA058F3F79F08091CA05803241F0DE
S11345008091CA05803331F0C4E005C0C1E003C026
S1134510C2E001C0C3E08C2FDF91CF911F910F91B6
S1134520FF90EF90DF90CF90BF90AF909F908F90CF
S11345307F906F905F904F90089585ED8093BC00BD
S11345408091360690913706A0913806B0913906CD
S11345500796A11DB11D23E0B695A795979587955C
S11345602A95D1F72091BC0024FF1CC04091360647
S1134570509137066091380670913906452B462BC9
S1134580472B81F30097A105B10541F025E32A9556
S1134590F1F700000197A109B109E4CF8091340635
S11345A00C94AE2010923D0608951F920F920FB600
S11345B00F9211242F933F934F935F936F937F93A5
S11345C08F939F93AF93BF93EF93FF938091B90021
S11345D0887F803609F49EC078F5883209F45DC07E
S11345E090F4803109F456C038F4882309F4F5C0F6
S11345F0883009F44FC0F5C0883109F44EC08032C8
S113460009F45FC0EEC0803409F46AC058F4803302
S113461009F457C0883309F0E4C08093CA050E94A6
S1134620A820DFC0803509F44FC0883509F45DC087
S1134630883409F0D6C0D3C0883909F4C4C0A8F4BA
S1134640883709F467C038F4883609F463C08037C2
S113465009F460C0C6C0883809F4B5C0803909F4CB
S11346605FC0803809F0BDC05BC0803B09F483C0E3
S113467038F4803A09F466C0883A09F47CC0B1C0C1
S1134680803C09F4A4C0883C09F4A1C0883B09F427
S113469087C0A7C080913C0610C090910F068091FE
S11346A00E06981770F5E0910F0681E08E0F809347
S11346B00F06F0E0E05FF94F80818093BB0085EC4A
S11346C083C08093CA058BC0E0910F0681E08E0FF2
S11346D080930F068091BB00F0E0E05FF94F808388
S11346E090910F0680910E066BC0E0910F0681E059
S11346F08E0F80930F068091BB00F0E0E05FF94FCE
S1134700808380913B0681116AC081E080933A06E0
S113471084EA5EC083E080933D061092CB05CFCF40
S11347208091CB05803208F04EC0E091CB0581E04A
S11347308E0F8093CB058091BB00F0E0E453FA4FD9
S11347408083BDCF0E94A8208091CB05803230F4B5
S1134750E091CB05F0E0E453FA4F10826091CB0571
S113476070E0E0913006F09131068CEC95E009950B
S11347701092CB0536C084E080933D061092ED057F
S11347801092EC05E0913206F09133060995809180
S1134790EC05811105C081E08093EC051092EE05D3
S11347A0E091ED0581E08E0F8093ED05F0E0E2519C
S11347B0FA4F80818093BB009091ED058091EC05C8
S11347C0981708F47CCF85E88093BC000AC085EC78
S11347D08093BC0010923D0604C01092CA050E944A
S11347E09D22FF91EF91BF91AF919F918F917F9106
S11347F06F915F914F913F912F910F900FBE0F904A
S11348001F9018950E947F0908F481E008950E9482
S11348107F09880B990B0895DB018F939F930E9466
S11348205424BF91AF91A29F800D911DA39F900D21
S1134830B29F900D11240895A1E21A2EAA1BBB1B4E
S1134840FD010DC0AA1FBB1FEE1FFF1FA217B30758
S1134850E407F50720F0A21BB30BE40BF50B661F6E
S1134860771F881F991F1A9469F760957095809532
S113487090959B01AC01BD01CF010895A29FB001A9
S1134880B39FC001A39F700D811D1124911DB29F80
S1134890700D811D1124911D08950E943E24B7FFBF
S11348A00895821B930B08950E943E24A59F900DAA
S11348B0B49F900DA49F800D911D11240895DF9342
S11348C0CF931F930F939A9DF02D219FF00D8B9DF5
S11348D0F00D8A9DE02DF10D039FF00D029FE00D78
S11348E0F11D4E9DE00DF11D5E9DF00D4F9DF00DEF
S11348F07F936F93BF92AF925F934F93D5010E94C2
S11349003E248B01AC01D7010E943E24EB01E80F49
S1134910F91FD6010E94AF242F913F91D6010E9426
S11349203E24C60FD71FE81FF91FAF91BF910E9405
S1134930AF242F913F910E943E24C60FD71FE81F3A
S1134940F91FD6010E943E24E60FF71F9801BE010D
S1134950CF0111240F911F91CF91DF9108950E94EF
S11349603E24460F571FC81FD91F08F431960895D7
S1134970E894DF93CF93FC01DB010E943E247F93F4
S11349806F93E9019A01AC01BF93AF933F932F93C7
S1134990DF010E943E2426F46C1B7D0B820B930BDB
S11349A09E01EB01FC010E94AF24AF91BF912F91B6
S11349B03F910E94AF24BE01CF01F9012F913F9195
S11349C0CF91DF9108952A153B054C055D056E05D1
S11349D07F05800791070895EE0FFF1F0590F4915E
S11349E0E02D09940F931F93CF93DF9382309105A9
S11349F010F482E090E0E0914006F091410620E05E
S1134A0030E0A0E0B0E0309719F14081518102819B
S1134A10138148175907C8F08417950769F410974C
S1134A2031F012960C93129713961C9327C000939F
S1134A3040061093410622C02115310519F0421792
S1134A40530718F49A01BD01EF01DF01F801DBCF30
S1134A5021153105F9F0281B390B2430310580F478
S1134A608A819B816115710521F0FB019383828307
S1134A7004C09093410680934006FE01329644C0E0
S1134A80FE01E20FF31F8193919322503109398380
S1134A9028833AC020913E0630913F06232B41F4EF
S1134AA0209102013091030130933F0620933E068A
S1134AB020910001309101012115310541F42DB7F8
S1134AC03EB74091040150910501241B350BE09140
S1134AD03E06F0913F06E217F307A0F42E1B3F0BAE
S1134AE02817390778F0AC014E5F5F4F241735075C
S1134AF048F04E0F5F1F50933F0640933E0681934C
S1134B00919302C0E0E0F0E0CF01DF91CF911F91DB
S1134B100F910895CF93DF93009709F481C0FC01AE
S1134B20329713821282A0914006B09141061097E9
S1134B3081F420813181820F931F20913E063091B0
S1134B403F062817390751F5F0933F06E0933E06D8
S1134B5067C0ED0120E030E0CE17DF0740F44A8162
S1134B605B819E0141155105F1F0EA01F5CFD38334
S1134B70C28340815181840F951FC817D90759F406
S1134B8088819981840F951F0296918380838A81FD
S1134B909B81938382832115310529F4F093410687
S1134BA0E09340063DC0E901FB83EA8349915991B2
S1134BB0C40FD51FEC17FD0761F480819181840F28
S1134BC0951F0296E90199838883828193819B834F
S1134BD08A83E0E0F0E012968D919C911397009700
S1134BE019F0FD01DC01F7CF8D919C9111979D0186
S1134BF02E5F3F4F820F931F20913E0630913F0658
S1134C002817390769F4309729F410924106109255
S1134C10400602C013821282B0933F06A0933E0660
S1134C20DF91CF91089510E0CBEAD0E004C0FE01FB
S1134C300E94EC242196CC3AD107C9F7F894FFCF0F
S1134C40000042062000F401000001DC029D037D07
S1134C50035D033D031D03FD02DD022747C81FC892
S1134C601F06494E4132333372657365742063689D
S1134C706970004572726F723A20747279696E6756
S1134C8020746F2073656E64206D6F726520746884
S1134C90656E2074776F2062797465732E206F6E51
S1134CA06C792074776F206174206F6E6365206166
S1134CB06C6C6F7765642E006572726F7220696E1A
S1134CC0207472616E736D69744461746128292063
S1134CD066756E6374696F6E004572726F723A2006
S1134CE04E6F206461746120746F207472616E73FE
S1134CF06D69747400616C61726D206C696D6974A6
S1134D00730043757272656E7420626974736E62A7
S1134D107574730073746174757320696E7075743F
S1134D203A20007465737420636F6D6D756E6963EA
S1134D306174696F6E7300526561646261636B20B4
S1134D404D46525F4D4F44454C3A2000436F6D6DC4
S1134D50756E69636174696F6E206572726F72003B
S1134D604D43503235313746442052414D2055731E
S1134D706167653A200020627974657300436F6E41
S1134D8066696775726174696F6E206572726F729D
S1134D902030780052656365697665643A20000DB9
S1134DA00A006E616E00696E66006F766600100020
S1134DB010001000100001010000000000010203B7
S1134DC004050607080C10141820304000093D00A3
S1134DD080841E00005A6202002D3101002D310131
S1134DE080969800005A6202002D31011014181C9C
S1134DF020283848000000000C1EDF1DA309A81D50
S1134E007D1D851D991D00000000591F4D0A1A1FA4
S10B4E10A61FEC1E061FF81E8C
S9030000FC
