:100000000C94AB000C94D3000C94D3000C94D3004C
:100010000C94D3000C94D3000C94D3000C94D30014
:100020000C94D3000C94D3000C94D3000C94D30004
:100030000C94D3000C94D3000C94D3000C94D300F4
:100040000C94C90B0C94D3000C94D3080C940509A0
:100050000C94D3000C94D3000C94D3000C94D300D4
:100060000C94FC110C94D3007365742063616C696B
:1000700062726174696F6E00726573657420616C81
:1000800061726D005556205741524E204C494D49E2
:100090005420726561646261636B3A20005556209A
:1000A0005741524E204C494D49543A20004F56205A
:1000B0005741524E204C494D49542072656164624B
:1000C00061636B3A20004F56205741524E204C49F5
:1000D0004D49543A20004F43205741524E204C493D
:1000E0004D495420726561646261636B3A20004F30
:1000F00043205741524E204C494D49543A2000006C
:1001000000000800020100000304070000000000D6
:1001100000000001020408102040800102040810C1
:10012000200102040810200404040404040404024E
:10013000020202020203030303030300000000257E
:100140000028002B0000000000240027002A0000E7
:100150008C0535097E0E11241FBECFEFD8E0DEBF1F
:10016000CDBF12E0A0E0B1E0EAEBF6E202C00590FC
:100170000D92AA34B107D9F724E0AAE4B2E001C095
:100180001D92A53EB207E1F710E0CBEAD0E004C033
:100190002197FE010E945513C83AD107C9F70E9462
:1001A00063090C945B130C940000CF93DF93CDB7DD
:1001B000DEB7DC016C9312965C934E931197149604
:1001C0003C932E9313972CE0FE01359615960190E3
:1001D0000D922A95E1F72AE0FC017196DF01322F9A
:1001E0001D923A95E9F7DC015B961C925B975C9651
:1001F0002C935C975D961C925D975E961C925E9721
:100200005F961C92DF91CF910895CF93C62FFC018A
:1002100060818BE194E00E94F70D6C2F8BE194E0FC
:100220000E94A20D8BE194E0CF910C947B0ECF93B2
:10023000DF93EC0168E770E085E793E00E94E20954
:1002400063E0CE01DF91CF910C940501CF93DF9352
:10025000EC016EE171E085E793E00E94F40962E150
:10026000CE01DF91CF910C9405011F93CF93DF93C3
:10027000FC01EB01142F9A85933018F069E271E0CC
:1002800004C091110FC06FE871E085E793E00E9410
:10029000F4096EE671E085E793E0DF91CF911F915D
:1002A0000C94F40960818BE194E00E94F70D612FBA
:1002B0008BE194E00E94A20D68818BE194E00E94A2
:1002C000A20D8A85823029F469818BE194E00E9435
:1002D000A20D8BE194E0DF91CF911F910C947B0EE6
:1002E000EF92FF920F931F93CF93DF93EC017B016B
:1002F000022F8FE0FE0111928A95E9F78AE08B8741
:10030000642FC7010E940501402FF70160818BE136
:1003100094E00E94780E8BE194E00E94130D892BEB
:1003200079F01A858BE194E00E941B0DFE01E10F2C
:10033000F11D80831F5F1A871A3068F381E08C8774
:100340008A85801718F481E08D8704C0081710F49F
:1003500081E08E87CE01DF91CF911F910F91FF90A9
:10036000EF900895EF92FF920F931F93CF93DF9337
:10037000CDB7DEB72F970FB6F894DEBF0FBECDBF57
:100380008B01FB012285BC01CE0101967C010E94FC
:100390007001F801628570E0A801D701C8019D01D4
:1003A0002E193F092617370740F4FC013191CF0180
:1003B0002D913217A1F381E00AC0600F711F46171B
:1003C000570721F0FA011192AF01F9CF80E02F9683
:1003D0000FB6F894DEBF0FBECDBFDF91CF911F9156
:1003E0000F91FF90EF900895EF92FF920F931F935C
:1003F000CF93DF93CDB7DEB72F970FB6F894DEBF5C
:100400000FBECDBF7C018E010F5F1F4F8FE0F80143
:1004100011928A95E9F78AE08C8769837A8382E072
:100420008B8740EDB801C7010E94350140EDB8014E
:10043000C7010E94B20190E02F960FB6F894DEBF7C
:100440000FBECDBFDF91CF911F910F91FF90EF9025
:100450000895CF92DF92EF92FF920F931F93CF9365
:10046000DF93CDB7DEB72F970FB6F894DEBF0FBE80
:10047000CDBF7C016B0168E670E085E793E00E94E8
:10048000E2098E010F5F1F4F8FE0F80111928A95EC
:10049000E9F78AE08C87C982DA8282E08B8744EDB3
:1004A000B801C7010E94350144EDB801C7010E949F
:1004B000B20190E02F960FB6F894DEBF0FBECDBF0D
:1004C000DF91CF911F910F91FF90EF90DF90CF9030
:1004D00008954F925F926F927F92AF92BF92CF92A8
:1004E000DF92EF92FF920F931F93CF93DF93CDB7DD
:1004F000DEB7AE970FB6F894DEBF0FBECDBF5C017E
:10050000CF8ED8A2E9A2FAA20BA31CA32DA33EA3CF
:100510004FA358A769A77AA7CF8CD8A0E9A0FAA0C3
:100520008BA19CA1ADA1BEA18BA79CA7ADA7BEA787
:100530004FA058A469A47AA46BEA71E085E793E020
:100540000E94F40920E030E0A901C701B6010E9431
:100550003A0818160CF051C0D50111966D917C9196
:10056000129780E090E00E94AC07A70196010E94DC
:100570003F086B017C0120E030E0A9010E943A08AD
:1005800020E030E040E05FE387FD05C0C701B60131
:100590000E94980604C0C701B6010E9497060E94F7
:1005A00076078B017E01B0E1EB0EF11C8FE0F701C5
:1005B00011928A95E9F78AE08B8F088B198B82E07C
:1005C0008A8F6FEE70E085E793E00E94E2094AE0CF
:1005D00050E0B80185E793E00E94690A4AE4B70158
:1005E000C5010E94350122E04AE4B501CE01019621
:1005F0000E94700166ED70E0AFC020E030E0A9011C
:100600006BA57CA58DA59EA50E943A0818160CF036
:100610004EC020E030E048E454E46BA57CA58DA5F5
:100620009EA50E943F086B017C0120E030E0A901FB
:100630000E943A0820E030E040E05FE387FD05C01B
:10064000C701B6010E94980604C0C701B6010E9406
:1006500097060E9476078B017E01F0E1EF0EF11CF8
:100660008FE0D7011D928A95E9F78AE08B8F088B7E
:10067000198B82E08A8F66EC70E085E793E00E9438
:10068000E2094AE050E0B80185E793E00E94690A78
:1006900047E5B701C5010E94350122E047E5B501F4
:1006A000CE0101960E9470016DEA70E055C020E015
:1006B00030E0A901C301B2010E943A0818160CF0FB
:1006C0005AC020E030E048E454E4C301B2010E9483
:1006D0003F086B017C0120E030E0A9010E943A084C
:1006E00020E030E040E05FE387FD05C0C701B601D0
:1006F0000E94980604C0C701B6010E9497060E9496
:1007000076078B017E01B0E1EB0EF11C8FE0F70163
:1007100011928A95E9F78AE08B8F088B198B82E01A
:100720008A8F6DE970E085E793E00E94E2094AE074
:1007300050E0B80185E793E00E94690A48E5B701F7
:10074000C5010E94350122E048E5B501CE010196C0
:100750000E94700164E870E085E793E00E94E2097E
:1007600069817A814AE050E085E793E00E94CA0AF5
:100770008AE090E000C0AE960FB6F894DEBF0FBEE0
:10078000CDBFDF91CF911F910F91FF90EF90DF9040
:10079000CF90BF90AF907F906F905F904F900895F3
:1007A000CF92DF92EF92FF920F931F93CF93DF933D
:1007B000EC010E9426016B817C81CE010E942902FE
:1007C00081309105A1F0CE010E941701CD80DE801D
:1007D000EF80F88409851A852B853C854D855E85DB
:1007E0006F857889CE010E94690280E090E0DF91F8
:1007F000CF911F910F91FF90EF90DF90CF900895D0
:10080000CF92DF92EF92FF920F931F93CF93DF93DC
:10081000CDB7DEB72F970FB6F894DEBF0FBECDBFB2
:100820007C0122E049E8BC01CE0101960E947001E2
:1008300009811A8168EB71E085E793E00E94D50990
:100840004AE050E0B80185E793E00E94CA0AF70148
:100850006181728180E090E00E94AC079B01AC0155
:1008600060E070E080E89FE30E9404076B017C0178
:10087000B801110F880B990B0E94AE079B01AC01C8
:10088000C701B6010E943F082F960FB6F894DEBF4D
:100890000FBECDBFDF91CF911F910F91FF90EF90D1
:1008A000DF90CF900895AF92BF92DF92EF92FF92C8
:1008B0000F931F93CF93DF93CDB7DEB766970FB635
:1008C000F894DEBF0FBECDBF8C0169ED71E085E706
:1008D00093E00E94F40927E042E1B801CE010196BD
:1008E0000E94700187E0E7E1F1E0DE01509601909F
:1008F0000D928A95E1F78E010F5F1F4F7E0180E117
:10090000E80EF11C5E01E8E0AE0EB11C6DEE71E088
:1009100085E793E00E94D509F801D1908F014AE064
:1009200050E06D2D85E793E00E945C0AF70181910C
:100930007F01D81649F062E072E085E793E00E94FB
:10094000F40981E090E005C00A151B05F9F680E086
:1009500090E066960FB6F894DEBF0FBECDBFDF9174
:10096000CF911F910F91FF90EF90DF90BF90AF90CC
:1009700008950F931F93CF93DF939DE088E10FB607
:10098000F894A895809360000FBE909360008BE16F
:1009900094E00E94E10D40E157E260E070E08BE1FD
:1009A00094E00E94F30D61E089E00E94A80CC7E08A
:1009B000D1E08E01F801819191918F010E94D003C5
:1009C000F1E005311F07B1F7609115017091160133
:1009D000899199910E94F40181E0C531D807A1F76E
:1009E000DF91CF911F910F9108950F931F93CF9394
:1009F000DF930E94130C0091350310913603209170
:100A0000370330913803DC01CB01801B910BA20B23
:100A1000B30B81319742A105B10508F1C7E0D1E0E0
:100A200005E011E0899199910E945304019739F4EE
:100A3000D801ED91FC9160E080810E94E40C0E5F92
:100A40001F4FB1E0C531DB0769F70E94130C6093BB
:100A50003503709336038093370390933803DF9107
:100A6000CF911F910F9108950F931F930E94130C24
:100A700000914A0210914B0220914C0230914D029C
:100A8000DC01CB01801B910BA20BB30B0091000189
:100A900010910101209102013091030108171907FB
:100AA0002A073B07A0F461E080910401811160E016
:100AB0006093040189E00E94E40C0E94130C60938F
:100AC0004A0270934B0280934C0290934D021F9107
:100AD0000F910895CF93DF93C5E0D1E0E991F991AB
:100AE00061E080810E94E40C81E0C331D807B1F756
:100AF0000E94F50485E193E00E940004AB01BC0173
:100B000022E030E085E793E00E94B70B0E943405B5
:100B1000A895DF91CF910895E9E6F3E040E050E039
:100B200060E070E4408351836283738380E090E0EF
:100B3000A0E5B1E484839583A683B78310861186EC
:100B400012861386EDE5F3E040835183628373835D
:100B500084839583A683B7831086118612861386B5
:100B60008DB79EB70C970FB6F8949EBF0FBE8DBF82
:100B7000ADB7BEB711968CE0E9E6F3E001900D92B7
:100B80008A95E1F723E338E044E353E060E485E14C
:100B900093E00E94D5008DB79EB70C970FB6F894DE
:100BA0009EBF0FBE8DBFADB7BEB711968CE0EDE511
:100BB000F3E001900D928A95E1F723E338E044E3F6
:100BC00053E061E485EF92E00E94D5008DB79EB7B7
:100BD0000C970FB6F8949EBF0FBE8DBFADB7BEB7D2
:100BE00011968CE0EDE5F3E001900D928A95E1F726
:100BF00023E338E044E353E061E485ED92E00E94B2
:100C0000D5008DB79EB784960FB6F8949EBF0FBEE1
:100C10008DBF0C970FB6F8949EBF0FBE8DBFADB7BA
:100C2000BEB711968CE0EDE5F3E001900D928A9548
:100C3000E1F723E338E044E353E061E485EB92E03D
:100C40000E94D5008DB79EB70C970FB6F8949EBF43
:100C50000FBE8DBFADB7BEB711968CE0EDE5F3E0EA
:100C600001900D928A95E1F723E338E044E353E0E5
:100C700061E485E992E00E94D5008DB79EB70C979C
:100C80000FB6F8949EBF0FBE8DBFADB7BEB711961D
:100C90008CE0EDE5F3E001900D928A95E1F723E316
:100CA00038E044E353E061E485E792E00E94D50038
:100CB0008DB79EB784960FB6F8949EBF0FBE8DBFBA
:100CC0000C970FB6F8949EBF0FBE8DBFADB7BEB7E1
:100CD00011968CE0EDE5F3E001900D928A95E1F735
:100CE00023E338E044E353E061E485E592E00E94C9
:100CF000D50083E08093540285E08093530286E020
:100D0000809352028AE0809351028FE080935002D8
:100D100080E180934F0281E180934E028DB79EB7B0
:100D20000C960FB6F8949EBF0FBE8DBF0895505815
:100D3000BB27AA270E94AF060C9400080E94F20766
:100D400038F00E94F90720F039F49F3F19F426F497
:100D50000C94EF070EF4E095E7FB0C94E907E92FFC
:100D60000E94110858F3BA176207730784079507A2
:100D700020F079F4A6F50C9433080EF4E0950B2ED0
:100D8000BA2FA02D0B01B90190010C01CA01A001DD
:100D90001124FF27591B99F0593F50F4503E68F138
:100DA0001A16F040A22F232F342F4427585FF3CF79
:100DB000469537952795A795F0405395C9F77EF44A
:100DC0001F16BA0B620B730B840BBAF09150A1F093
:100DD000FF0FBB1F661F771F881FC2F70EC0BA0F19
:100DE000621F731F841F48F4879577956795B795A1
:100DF000F7959E3F08F0B0CF9395880F08F099279C
:100E0000EE0F9795879508950E9418070C94000897
:100E10000E94F90758F00E94F20740F029F45F3F62
:100E200029F00C94E90751110C9434080C94EF0745
:100E30000E94110868F39923B1F3552391F3951B90
:100E4000550BBB27AA2762177307840738F09F5FEB
:100E50005F4F220F331F441FAA1FA9F335D00E2E58
:100E60003AF0E0E832D091505040E695001CCAF7C5
:100E70002BD0FE2F29D0660F771F881FBB1F261788
:100E800037074807AB07B0E809F0BB0B802DBF015F
:100E9000FF2793585F4F3AF09E3F510578F00C942E
:100EA000E9070C9434085F3FE4F3983ED4F3869549
:100EB00077956795B795F7959F5FC9F7880F911D4F
:100EC0009695879597F90895E1E0660F771F881F3B
:100ED000BB1F621773078407BA0720F0621B730BEE
:100EE000840BBA0BEE1F88F7E09508950E947D07EA
:100EF0006894B1110C94340808950E94190888F080
:100F00009F5798F0B92F9927B751B0F0E1F0660FCD
:100F1000771F881F991F1AF0BA95C9F714C0B1300E
:100F200091F00E943308B1E008950C943308672FC4
:100F3000782F8827B85F39F0B93FCCF3869577953D
:100F40006795B395D9F73EF4909580957095619526
:100F50007F4F8F4F9F4F0895E89409C097FB3EF451
:100F600090958095709561957F4F8F4F9F4F9923F6
:100F7000A9F0F92F96E9BB279395F6958795779574
:100F80006795B795F111F8CFFAF4BB0F11F460FF34
:100F90001BC06F5F7F4F8F4F9F4F16C0882311F08C
:100FA00096E911C0772321F09EE8872F762F05C0A0
:100FB000662371F096E8862F70E060E02AF09A953B
:100FC000660F771F881FDAF7880F9695879597F930
:100FD000089597F99F6780E870E060E008959FEFBB
:100FE00080EC089500240A941616170618060906C0
:100FF000089500240A94121613061406050608958F
:10100000092E0394000C11F4882352F0BB0F40F416
:10101000BF2B11F460FF04C06F5F7F4F8F4F9F4F56
:10102000089557FD9058440F551F59F05F3F71F0D8
:101030004795880F97FB991F61F09F3F79F087953F
:101040000895121613061406551FF2CF4695F1DFC8
:1010500008C0161617061806991FF1CF8695710558
:10106000610508940895E894BB2766277727CB018C
:1010700097F908950E94AC0808F48FEF08950E9434
:1010800052080C9400080E94F20738F00E94F907F9
:1010900020F0952311F00C94E9070C94EF0711242C
:1010A0000C9434080E94110870F3959FC1F3950FBA
:1010B00050E0551F629FF001729FBB27F00DB11DDC
:1010C000639FAA27F00DB11DAA1F649F6627B00D6C
:1010D000A11D661F829F2227B00DA11D621F739F55
:1010E000B00DA11D621F839FA00D611D221F749F63
:1010F0003327A00D611D231F849F600D211D822FAA
:10110000762F6A2F11249F5750409AF0F1F08823D0
:101110004AF0EE0FFF1FBB1F661F771F881F9150FD
:101120005040A9F79E3F510580F00C94E9070C94BC
:1011300034085F3FE4F3983ED4F38695779567953E
:10114000B795F795E7959F5FC1F7FE2B880F911D27
:101150009695879597F90895990F0008550FAA0B52
:10116000E0E8FEEF16161706E807F907C0F01216BA
:101170001306E407F50798F0621B730B840B950BBD
:1011800039F40A2661F0232B242B252B21F4089512
:101190000A2609F4A140A6958FEF811D811D0895AF
:1011A00080E090E008951F920F920FB60F921124E5
:1011B0002F938F939F93EF93FF93E0918503F0918B
:1011C00086038081E0918B03F0918C0382FD12C035
:1011D000908180918E038F5F8F7320918F03821790
:1011E00051F0E0918E03F0E0EB58FC4F958F809327
:1011F0008E0301C08081FF91EF919F918F912F917C
:101200000F900FBE0F901F9018951F920F920FB660
:101210000F9211242F933F934F935F936F937F937C
:101220008F939F93AF93BF93EF93FF9385E793E0E3
:101230000E94CD0EFF91EF91BF91AF919F918F9141
:101240007F916F915F914F913F912F910F900FBEC2
:101250000F901F90189585E793E00E94820E21E081
:10126000892B09F420E0822F0895E5E7F3E013824B
:10127000128288EE93E0A0E0B0E084839583A68399
:10128000B7838BE392E09183808385EC90E0958730
:10129000848784EC90E09787868780EC90E0918B40
:1012A000808B81EC90E0938B828B82EC90E0958B2D
:1012B000848B86EC90E0978B868B118E128E138E2A
:1012C000148E089508950E94440C0E9462090E94A1
:1012D000B904CFEBDEE00E946A052097E1F30E949B
:1012E000BF0EF9CFCF92DF92EF92FF920F931F9331
:1012F000CF93DF936C017A018B01C0E0D0E0CE1573
:10130000DF0581F0D8016D918D01D601ED91FC9141
:101310000190F081E02DC6010995892B11F02196ED
:10132000EECF7E01C701DF91CF911F910F91FF900A
:10133000EF90DF90CF9008956115710579F0FB0172
:1013400001900020E9F73197AF01461B570BDC01F4
:10135000ED91FC910280F381E02D099480E090E012
:101360000895EF92FF920F931F93CF93DF938C0119
:101370007B01C0E0D0E0F701EC0FFD1F6491662314
:1013800061F0D801ED91FC910190F081E02DC80150
:101390000995892B11F02196EECFCE01DF91CF91E7
:1013A0001F910F91FF90EF9008950C949C09DC0120
:1013B000ED91FC910190F081E02D099466E172E0DD
:1013C0000C949C090F931F93CF93DF93EC010E9421
:1013D000B1098C01CE010E94DE09800F911FDF91BF
:1013E000CF911F910F9108950F931F93CF93DF9388
:1013F000EC010E949C098C01CE010E94DE09800F45
:10140000911FDF91CF911F910F9108958F929F921D
:10141000AF92BF92EF92FF920F931F93CF93DF9300
:10142000CDB7DEB7A1970FB6F894DEBF0FBECDBF24
:101430007C01FA01CB0119A2223008F42AE08E01C6
:101440000F5D1F4F822E912CA12CB12CBF01A50145
:1014500094010E943313F901CA01015011096A3045
:1014600010F4605D01C0695CD8016C93232B242BC0
:10147000252B61F7B801C7010E949C09A1960FB600
:10148000F894DEBF0FBECDBFDF91CF911F910F91BA
:10149000FF90EF90BF90AF909F908F90089521158F
:1014A000310541F4DC01ED91FC910190F081E02DDA
:1014B000642F09940C94060A9A01462F50E060E0CC
:1014C00070E00C944F0A9A01AB0160E070E00C945C
:1014D0004F0A0F931F93CF93DF93EC010E94630A8F
:1014E0008C01CE010E94DE09800F911FDF91CF9108
:1014F0001F910F910895CF92DF92EF92FF920F9379
:101500001F93CF93DF932115310581F4DC01ED9119
:10151000FC910190F081E02D642FDF91CF911F911C
:101520000F91FF90EF90DF90CF9009942A30310512
:1015300001F577FF1DC06A017B01EC016DE20E949D
:10154000D7098C0144275527BA014C195D096E094A
:101550007F092AE0CE010E94060A800F911FDF91C9
:10156000CF911F910F91FF90EF90DF90CF90089552
:101570002AE0DF91CF911F910F91FF90EF90DF90C4
:10158000CF900C94060A9A01AB01770F660B770B8C
:101590000C947B0A0F931F93CF93DF93EC010E946F
:1015A000C30A8C01CE010E94DE09800F911FDF91DA
:1015B000CF911F910F9108957F928F929F92AF923A
:1015C000BF92CF92DF92EF92FF920F931F93CF9330
:1015D000DF938C016A017B01722E9A01AB01C70176
:1015E000B6010E942E13882319F069E172E027C02A
:1015F00046015701E894B7F82FEF3FEF4FE75FE759
:10160000C501B4010E942E1381110DC02FEF3FEFD1
:101610004FE75FE7C501B4010E94291318161CF4B7
:101620006DE172E00CC02FEF3FEF4FE75FE4C701C1
:10163000B6010E943A08181694F461E272E0C801FB
:10164000DF91CF911F910F91FF90EF90DF90CF909E
:10165000BF90AF909F908F907F900C949C092FEF3C
:101660003FEF4FE75FECC701B6010E94291387FDEA
:10167000E4CF20E030E0A901C701B6010E942913A0
:1016800087FF0AC06DE2C8010E94D709EC01F7FA92
:10169000F094F7F8F09402C0C0E0D0E0B12C60E024
:1016A00070E080E09FE37B1441F020E030E040E216
:1016B00051E40E940407B394F6CFA70196010E945B
:1016C00098066B017C010E947D074B015C012AE0BA
:1016D000AB01BC01C8010E94060AC80FD91F7720C0
:1016E000B9F1C501B4010E94AC079B01AC01C7016F
:1016F000B6010E9497066B017C016EE2C8010E9450
:10170000D709C80FD91F20E030E040E251E4C701FB
:10171000B6010E943F084B015C010E947D076B01EE
:101720007C014AE050E0C8010E94630AC80FD91F3B
:10173000B60180E090E00E94AC079B01AC01C501BE
:10174000B4010E9497066B017C017A947110DBCF83
:10175000CE01DF91CF911F910F91FF90EF90DF901D
:10176000CF90BF90AF909F908F907F9008950F93F0
:101770001F93CF93DF93EC010E94DC0A8C01CE0112
:101780000E94DE09800F911FDF91CF911F910F9171
:1017900008951F920F920FB60F9211242F933F932B
:1017A0008F939F93AF93BF938091130490911404F0
:1017B000A0911504B09116043091120423E0230F78
:1017C0002D3720F40196A11DB11D05C026E8230F79
:1017D0000296A11DB11D20931204809313049093CF
:1017E0001404A0931504B0931604809117049091EB
:1017F0001804A0911904B0911A040196A11DB11DFD
:101800008093170490931804A0931904B0931A04BA
:10181000BF91AF919F918F913F912F910F900FBEEC
:101820000F901F9018952FB7F89460911304709142
:10183000140480911504909116042FBF08953FB7AA
:10184000F8948091170490911804A0911904B09114
:101850001A0426B5A89B05C02F3F19F00196A11DBB
:10186000B11D3FBFBA2FA92F982F8827820F911D36
:10187000A11DB11DBC01CD0142E0660F771F881F7D
:10188000991F4A95D1F70895789484B5826084BDF4
:1018900084B5816084BD85B5826085BD85B5816074
:1018A00085BDEEE6F0E0808181608083E1E8F0E0D4
:1018B0001082808182608083808181608083E0E803
:1018C000F0E0808181608083E1EBF0E080818460E2
:1018D0008083E0EBF0E0808181608083EAE7F0E0E4
:1018E0008081846080838081826080838081816048
:1018F00080838081806880831092C1000895833046
:1019000081F028F4813099F08230A1F00895873079
:10191000A9F08830B9F08430D1F4809180008F7DB7
:1019200003C0809180008F7780938000089584B5F4
:101930008F7702C084B58F7D84BD08958091B000FB
:101940008F7703C08091B0008F7D8093B0000895A1
:10195000CF93DF9390E0FC01ED5EFE4F2491FC01FC
:10196000E95DFE4F8491882361F190E0880F991F13
:10197000FC01EB5BFE4FC591D491FC01E55CFE4F91
:10198000A591B491611109C09FB7F8948881209501
:1019900082238883EC912E230BC0623061F49FB7C1
:1019A000F8948881322F309583238883EC912E2BF5
:1019B0002C939FBF06C08FB7F894E8812E2B288305
:1019C0008FBFDF91CF9108951F93CF93DF93282F7F
:1019D00030E0F901E150FF4F8491F901ED5EFE4FD7
:1019E000D491F901E95DFE4FC491CC23C1F0162FCB
:1019F00081110E947F0CEC2FF0E0EE0FFF1FE55CE1
:101A0000FE4FA591B4919FB7F894111104C08C9129
:101A1000D095D82302C0EC91DE2BDC939FBFDF91E1
:101A2000CF911F91089580914F0490E02091500430
:101A3000821B910908959091500480914F0498174A
:101A400050F4E92FF0E0EF5AFB4F208130E09F5F28
:101A50009093500402C02FEF3FEFC9010895E09129
:101A6000500480914F04E81730F4F0E0EF5AFB4F38
:101A7000808190E008958FEF9FEF08950895CF93B0
:101A8000DF93EC01E0912704F09128043097F1F006
:101A90009091500480914F049817C0F090E0292F46
:101AA00030E02617370754F4DE01A20FB31F4C9124
:101AB000D901AF5ABB4F4C939F5FF1CF10925004A6
:101AC00060934F04CB01DF91CF910994DF91CF91C7
:101AD0000895E0912904F0912A04309729F010929A
:101AE0002D0410922C0409940895CF92DF92EF9266
:101AF000FF920F931F93CF93DF937C01CB018A0159
:101B000020912B04222389F0EB016B01C40ED51E1A
:101B1000CC15DD0569F06991D701ED91FC9101903B
:101B2000F081E02DC7010995F3CF642F0E949D0F2E
:101B3000C801DF91CF911F910F91FF90EF90DF903F
:101B4000CF900895CF93DF931F92CDB7DEB769830F
:101B500020912B042223D1F020912C04203240F03C
:101B600021E030E0FC013383228380E090E015C067
:101B700080912D04E82FF0E0E25DFB4F9981908386
:101B80008F5F80932D0480932C0405C061E0CE010B
:101B900001960E949D0F81E090E00F90DF91CF9120
:101BA0000895FC011382128288EE93E0A0E0B0E079
:101BB00084839583A683B78389E292E091838083AF
:101BC00008951092500410924F0410922D04109218
:101BD0002C040E945E0F89E69DE00E94CA0F8FE3ED
:101BE0009DE00C94C50FCB01BA010C94890F81E0E4
:101BF00080932B0460934E0410922D0410922C04B9
:101C000008950F93062F21E040912C046EE274E0BA
:101C100080914E040E94D41010922D0410922C0436
:101C200010922B040F9108954F925F926F927F92C2
:101C3000AF92BF92CF92EF92FF920F931F93CF93E9
:101C4000DF935C01F62ED42F28013901EE2021F11B
:101C50000E94F70DCE2DC43008F0C3E0C150C0F093
:101C600028E0C29FC0011124A301920104C056952F
:101C70004795379527958A95D2F7CA01B901D501BD
:101C8000ED91FC910190F081E02DC5010995E6CF21
:101C900060E0C5010E94010E4D2FD13208F040E2F4
:101CA0002C2D61E574E08F2D0E94EB0F10925004F3
:101CB00080934F04DF91CF911F910F91FF90EF9090
:101CC000CF90BF90AF907F906F905F904F900895AE
:101CD000CF92EF920F931F93C22EE12C00E010E001
:101CE00098010E94140E1F910F91EF90CF900895CC
:101CF00021E00C94680E61E00C94010E8BE194E0FD
:101D00000C94D10DFC01918D228D892F90E0805C87
:101D10009F4F821B91098F7399270895FC01918D24
:101D2000828D981731F0828DE80FF11D858D90E03E
:101D300008958FEF9FEF0895FC01918D828D981784
:101D400061F0828DDF01A80FB11D5D968C91928D9F
:101D50009F5F9F73928F90E008958FEF9FEF08959C
:101D6000FC01538D448D252F30E0842F90E0821BA1
:101D7000930B541710F0CF960895019708958BE2B6
:101D800099E0892B49F080E090E0892B29F00E94AE
:101D90002B0981110C9400000895FC01848DDF0152
:101DA000A80FB11DA35ABF4F2C91848D90E00196CE
:101DB0008F739927848FA689B7892C93A089B189BD
:101DC0008C91837080648C93938D848D981306C05E
:101DD0000288F389E02D80818F7D80830895EF92C2
:101DE000FF920F931F93CF93DF93EC0181E0888FD5
:101DF0009B8D8C8D981305C0E889F989808185FDBC
:101E000026C0F62E0B8D10E00F5F1F4F0F731127AA
:101E1000E02E8C8DE8120CC00FB607FCFACFE889D3
:101E2000F989808185FFF5CFCE010E94CD0EF1CFDB
:101E30008B8DFE01E80FF11DE35AFF4FF0829FB733
:101E4000F8940B8FEA89FB89808180620AC09FB772
:101E5000F894EE89FF896083E889F989808183702D
:101E6000806480839FBF81E090E0DF91CF911F91DC
:101E70000F91FF90EF900895CF93DF93EC01888D41
:101E80008823C9F0EA89FB89808185FD05C0A8897E
:101E9000B9898C9186FD0FC00FB607FCF5CF808104
:101EA00085FFF2CFA889B9898C9185FFEDCFCE014E
:101EB0000E94CD0EE7CFDF91CF9108951092E404F8
:101EC00081E08093E2041092E10461E082E10E94EB
:101ED000E40C61E083E10E94E40CE9EBF0E0808136
:101EE0008E7F808380818D7F808388E48093B8009B
:101EF00085E48093BC000895ECEBF0E080818A7B60
:101F0000808360E082E10E94E40C60E083E10C9455
:101F1000E40C9B01AC0160E074E284EF90E00E946D
:101F20003313DA01C9014097A109B109B695A79504
:101F3000979587958093B800089540919304262F34
:101F400030E0240F311D21323105DCF42091E4040E
:101F50002430C9F4FC0180E090E0861758F43091F9
:101F600093042191DC01AB56BB4FA30FB11D2C9301
:101F70000196F3CF80919304680F6093930480E0FF
:101F8000089581E0089582E008959093D8048093A5
:101F9000D70408959093DA048093D904089585ECCA
:101FA0008093BC001092E4040895CF93DF9391E0F6
:101FB0009093DC04882361F0C091B800D091BA00FE
:101FC0000E947C0F0E945E0FD093BA00C093B800AD
:101FD000DF91CF9108954F925F926F927F928F928F
:101FE0009F92AF92BF92CF92DF92EF92FF920F93A8
:101FF0001F93CF93DF93F82E162F072FC42FE22EB7
:10200000413208F0BEC00E941F0C4B015C01D09110
:10201000E404DD2331F18091DD049091DE04A09190
:10202000DF04B091E004892B8A2B8B2B81F30E9473
:102030001F0C4090DD045090DE046090DF0470902F
:10204000E004DC01CB0188199909AA09BB094816EB
:1020500059066A067B06D8F68091DB040E94D50FEC
:1020600090C081E08093E404E092E2049FEF9093BB
:1020700071041092B6049C0F9093B5048093E3040E
:102080009091E3048F2D880F892B8093E304809136
:10209000E104813089F51092E1040E941F0C6B016C
:1020A0007C018091E3048093BB008091DD049091DA
:1020B000DE04A091DF04B091E004892B8A2B8B2BE6
:1020C000A9F00E941F0C8090DD049090DE04A09087
:1020D000DF04B090E004DC01CB018C199D09AE094E
:1020E000BF0988169906AA06BB0690F18091BC002C
:1020F00083FDD7CF85EC01C085EE8093BC000E94A4
:102100001F0C6B017C018091E404813031F58091DA
:10211000DD049091DE04A091DF04B091E004892BEE
:102120008A2B8B2B81F30E941F0C8090DD049090F2
:10213000DE04A090DF04B090E004DC01CB018C1938
:102140009D09AE09BF0988169906AA06BB06D8F6EE
:102150008091DB040E94D50F15C08091B6048C17C6
:1021600010F4C091B604A7EBB4E0912FE12FF02F4B
:102170008E2F891B8C1718F48D918193F9CFDC2F4A
:1021800001C0D0E08D2FDF91CF911F910F91FF9073
:10219000EF90DF90CF90BF90AF909F908F907F9007
:1021A0006F905F904F9008954F925F926F927F92E1
:1021B0008F929F92AF92BF92CF92DF92EF92FF9257
:1021C0000F931F93CF93DF93413208F0C6C0122FB5
:1021D000F42ED72EE62ED82F0E941F0C4B015C0147
:1021E000C091E404CC2311F18091DD049091DE04D0
:1021F000A091DF04B091E004892B8A2B8B2B81F313
:102200000E941F0C4090DD045090DE046090DF04BB
:102210007090E004DC01CB0188199909AA09BB0977
:10222000481659066A067B06D8F683C082E080937A
:10223000E4040093E2048FEF809371041092B604DB
:10224000F092B5049E2DA7EBB4E0EE2DFD2D8E2F60
:10225000891B8F1518F481918D93F9CF1092E304A7
:102260009091E304DD0FD92BD093E3048091E10436
:10227000813089F51092E1040E941F0C6B017C01F2
:102280008091E3048093BB008091DD049091DE0493
:10229000A091DF04B091E004892B8A2B8B2BA9F04D
:1022A0000E941F0C8090DD049090DE04A090DF045B
:1022B000B090E004DC01CB018C199D09AE09BF0987
:1022C00088169906AA06BB06A0F18091BC0083FD82
:1022D000D7CF85EC01C085EE8093BC000E941F0C17
:1022E0006B017C01112359F18091E404823039F5AE
:1022F0008091DD049091DE04A091DF04B091E004B0
:10230000892B8A2B8B2B71F30E941F0C8090DD048C
:102310009090DE04A090DF04B090E004DC01CB01DB
:102320008C199D09AE09BF0988169906AA06BB0635
:10233000C8F68091DB040E94D50FC5E013C08091E0
:1023400071048F3F79F080917104803241F0809167
:102350007104803331F0C4E005C0C1E003C0C2E0C5
:1023600001C0C3E08C2FDF91CF911F910F91FF909F
:10237000EF90DF90CF90BF90AF909F908F907F9025
:102380006F905F904F90089585ED8093BC00809191
:10239000DD049091DE04A091DF04B091E004079683
:1023A000A11DB11D23E0B695A795979587952A9510
:1023B000D1F72091BC0024FF1CC04091DD04509156
:1023C000DE046091DF047091E004452B462B472B1F
:1023D00081F30097A105B10541F025E32A95F1F7B6
:1023E00000000197A109B109E4CF8091DB040C94AE
:1023F000D50F1092E40408951F920F920FB60F921A
:1024000011242F933F934F935F936F937F938F93F9
:102410009F93AF93BF93EF93FF938091B900887F11
:10242000803609F49EC078F5883209F45DC090F4D6
:10243000803109F456C038F4882309F4F5C0883097
:1024400009F44FC0F5C0883109F44EC0803209F458
:102450005FC0EEC0803409F46AC058F4803309F4D8
:1024600057C0883309F0E4C0809371040E94CF0FF5
:10247000DFC0803509F44FC0883509F45DC0883469
:1024800009F0D6C0D3C0883909F4C4C0A8F488378D
:1024900009F467C038F4883609F463C0803709F45A
:1024A00060C0C6C0883809F4B5C0803909F45FC07F
:1024B000803809F0BDC05BC0803B09F483C038F4AC
:1024C000803A09F466C0883A09F47CC0B1C0803C07
:1024D00009F4A4C0883C09F4A1C0883B09F487C072
:1024E000A7C08091E30410C09091B6048091B50418
:1024F000981770F5E091B60481E08E0F8093B604D2
:10250000F0E0E954FB4F80818093BB0085EC83C0F1
:10251000809371048BC0E091B60481E08E0F8093AC
:10252000B6048091BB00F0E0E954FB4F80839091AA
:10253000B6048091B5046BC0E091B60481E08E0FC3
:102540008093B6048091BB00F0E0E954FB4F808398
:102550008091E20481116AC081E08093E10484EA01
:102560005EC083E08093E40410927204CFCF809128
:102570007204803208F04EC0E091720481E08E0F48
:10258000809372048091BB00F0E0ED58FB4F808394
:10259000BDCF0E94CF0F80917204803230F4E09161
:1025A0007204F0E0ED58FB4F10826091720470E00D
:1025B000E091D704F091D80483E794E00995109254
:1025C000720436C084E08093E40410929404109264
:1025D0009304E091D904F091DA0409958091930471
:1025E000811105C081E08093930410929504E091DD
:1025F000940481E08E0F80939404F0E0EB56FB4F3F
:1026000080818093BB0090919404809193049817EB
:1026100008F47CCF85E88093BC000AC085EC8093E9
:10262000BC001092E40404C0109271040E94C41112
:10263000FF91EF91BF91AF919F918F917F916F919A
:102640005F914F913F912F910F900FBE0F901F9070
:1026500018950E94AC0808F481E008950E94AC0827
:10266000880B990B0895A1E21A2EAA1BBB1BFD0132
:102670000DC0AA1FBB1FEE1FFF1FA217B307E40761
:10268000F50720F0A21BB30BE40BF50B661F771FB9
:10269000881F991F1A9469F7609570958095909599
:1026A0009B01AC01BD01CF010895EE0FFF1F059006
:0A26B000F491E02D0994F894FFCF97
:1026BA00F40100000154021503F502D502B5029592
:1026CA000275025502274706494E41323333726575
:1026DA007365742063686970004572726F723A207C
:1026EA00747279696E6720746F2073656E64206DE9
:1026FA006F7265207468656E2074776F20627974D2
:10270A0065732E206F6E6C792074776F2061742048
:10271A006F6E636520616C6C6F7765642E006572FD
:10272A00726F7220696E207472616E736D6974447F
:10273A0061746128292066756E6374696F6E00453D
:10274A0072726F723A204E6F206461746120746FE6
:10275A00207472616E736D69747400616C61726D5C
:10276A00206C696D6974730043757272656E7420AA
:10277A00626974736E6275747300737461747573CD
:10278A0020696E7075743A20007465737420636FE3
:10279A006D6D756E69636174696F6E730052656100
:1027AA00646261636B204D46525F4D4F44454C3A1B
:1027BA002000436F6D6D756E69636174696F6E2079
:1027CA006572726F72000D0A006E616E00696E6644
:1027DA00006F76660000000000A20D750DD0083E5D
:1027EA000D130D1B0D2F0D00000000EF0E7209B026
:0A27FA000E3C0F820E9C0E8E0E00A6
:00000001FF
