S012000070646D5F736B657463682E73726563F0
S11300000C94AC000C944E220C9475220C94D400E5
S11300100C94D4000C94D4000C94D4000C94D4000C
S11300200C94D4000C94D4000C94D4000C94D400FC
S11300300C94D4000C94D4000C94D4000C94D400EC
S11300400C94850D0C94D4000C94750A0C94A70A96
S11300500C94D4000C94D4000C94D4000C94D400CC
S11300600C943A250C94D4007365742063616C6914
S113007062726174696F6E00726573657420616C7D
S113008061726D005556205741524E204C494D49DE
S11300905420726561646261636B3A200055562096
S11300A05741524E204C494D49543A20004F562056
S11300B05741524E204C494D495420726561646247
S11300C061636B3A20004F56205741524E204C49F1
S11300D04D49543A20004F43205741524E204C4939
S11300E04D495420726561646261636B3A20004F2C
S11300F043205741524E204C494D49543A20000068
S113010000000800020100000304070000000000D2
S113011000000001020408102040800102040810BD
S1130120200102040810200404040404040404024A
S1130130020202020203030303030300000000257A
S11301400028002B0000000000240027002A0000E3
S11301500007D70A4D21280811241FBECFEFD8E08D
S1130160DEBFCDBF12E0A0E0B1E0EAE0F1E502C0FD
S113017005900D92A03EB107D9F726E0A0EEB2E0BB
S113018001C01D92A035B207E1F710E0CBEAD0E040
S113019004C02197FE010E945127C83AD107C9F72C
S11301A00E94050B0C9478280C940000CF93DF93E5
S11301B0CDB7DEB7DC016C9312965C934E93119726
S11301C014963C932E9313972CE0FE0135961596C6
S11301D001900D922A95E1F72AE0FC017196DF0166
S11301E0322F1D923A95E9F7DC015B961C925B97DE
S11301F05C962C935C975D961C925D975E961C9220
S11302005E975F961C92DF91CF910895CF93C62F8E
S1130210FC01608182E895E00E94C6206C2F82E890
S113022095E00E94712082E895E0CF910C944A21D8
S1130230CF93DF93EC0168E770E087ED94E00E94D0
S11302408C0B63E0CE01DF91CF910C940601CF9328
S1130250DF93EC016FE271E087ED94E00E949E0B66
S113026062E1CE01DF91CF910C9406011F93CF93ED
S1130270DF93FC01EB01142F9A85933018F06AE3A5
S113028071E004C091110FC060EA71E087ED94E061
S11302900E949E0B6FE771E087ED94E0DF91CF91B0
S11302A01F910C949E0B608182E895E00E94C62009
S11302B0612F82E895E00E947120688182E895E0D0
S11302C00E9471208A85823029F4698182E895E050
S11302D00E94712082E895E0DF91CF911F910C94E8
S11302E04A21EF92FF920F931F93CF93DF93EC0178
S11302F07B01022F8FE0FE0111928A95E9F78AE0D3
S11303008B87642FC7010E940601402FF70160818B
S113031082E895E00E94472182E895E00E94E21F6E
S1130320892B79F01A8582E895E00E94EA1FFE0184
S1130330E10FF11D80831F5F1A871A3068F381E093
S11303408C878A85801718F481E08D8704C008178C
S113035010F481E08E87CE01DF91CF911F910F9130
S1130360FF90EF900895EF92FF920F931F93CF9316
S1130370DF93CDB7DEB72F970FB6F894DEBF0FBE6D
S1130380CDBF8B01FB012285BC01CE0101967C010E
S11303900E947101F801628570E0A801D701C801CB
S11303A09D012E193F092617370740F4FC013191AE
S11303B0CF012D913217A1F381E00AC0600F711FA4
S11303C04617570721F0FA011192AF01F9CF80E0E7
S11303D02F960FB6F894DEBF0FBECDBFDF91CF913D
S11303E01F910F91FF90EF900895EF92FF920F935A
S11303F01F93CF93DF93CDB7DEB72F970FB6F89443
S1130400DEBF0FBECDBF7C018E010F5F1F4F8FE09B
S1130410F80111928A95E9F78AE08C8769837A83D7
S113042082E08B8740EDB801C7010E94360140EDA0
S1130430B801C7010E94B30190E02F960FB6F8945B
S1130440DEBF0FBECDBFDF91CF911F910F91FF9003
S1130450EF900895CF92DF92EF92FF920F931F9344
S1130460CF93DF93CDB7DEB72F970FB6F894DEBFE7
S11304700FBECDBF7C016B0168E670E087ED94E0B0
S11304800E948C0B8E010F5F1F4F8FE0F8011192B9
S11304908A95E9F78AE08C87C982DA8282E08B87C1
S11304A044EDB801C7010E94360144EDB801C7010B
S11304B00E94B30190E02F960FB6F894DEBF0FBEF2
S11304C0CDBFDF91CF911F910F91FF90EF90DF90FF
S11304D0CF9008954F925F926F927F92AF92BF92A6
S11304E0CF92DF92EF92FF920F931F93CF93DF93FC
S11304F0CDB7DEB7AE970FB6F894DEBF0FBECDBF53
S11305005C01CF8ED8A2E9A2FAA20BA31CA32DA34F
S11305103EA34FA358A769A77AA7CF8CD8A0E9A078
S1130520FAA08BA19CA1ADA1BEA18BA79CA7ADA74E
S1130530BEA74FA058A469A47AA46CEB71E087ED20
S113054094E00E949E0B20E030E0A901C701B601AF
S11305500E94DC0918160CF051C0D50111966D915A
S11305607C91129780E090E00E944E09A7019601C9
S11305700E94E1096B017C0120E030E0A9010E94A6
S1130580DC0920E030E040E05FE387FD05C0C701FF
S1130590B6010E943A0804C0C701B6010E94390896
S11305A00E9418098B017E01B0E1EB0EF11C8FE073
S11305B0F70111928A95E9F78AE08B8F088B198BE2
S11305C082E08A8F6FEE70E087ED94E00E948C0BDE
S11305D04AE050E0B80187ED94E00E94130C4AE42D
S11305E0B701C5010E94360122E04AE4B501CE01FB
S11305F001960E94710166ED70E0AFC020E030E02A
S1130600A9016BA57CA58DA59EA50E94DC091816E1
S11306100CF04EC020E030E048E454E46BA57CA527
S11306208DA59EA50E94E1096B017C0120E030E0CC
S1130630A9010E94DC0920E030E040E05FE387FD8F
S113064005C0C701B6010E943A0804C0C701B6013B
S11306500E9439080E9418098B017E01F0E1EF0E17
S1130660F11C8FE0D7011D928A95E9F78AE08B8F00
S1130670088B198B82E08A8F66EC70E087ED94E03A
S11306800E948C0B4AE050E0B80187ED94E00E9490
S1130690130C47E5B701C5010E94360122E047E586
S11306A0B501CE0101960E9471016DEA70E055C05A
S11306B020E030E0A901C301B2010E94DC09181650
S11306C00CF05AC020E030E048E454E4C301B20125
S11306D00E94E1096B017C0120E030E0A9010E9445
S11306E0DC0920E030E040E05FE387FD05C0C7019E
S11306F0B6010E943A0804C0C701B6010E94390835
S11307000E9418098B017E01B0E1EB0EF11C8FE011
S1130710F70111928A95E9F78AE08B8F088B198B80
S113072082E08A8F6DE970E087ED94E00E948C0B83
S11307304AE050E0B80187ED94E00E94130C48E5CC
S1130740B701C5010E94360122E048E5B501CE019A
S113075001960E94710164E870E087ED94E00E94C4
S11307608C0B69817A814AE050E087ED94E00E9425
S1130770860C8AE090E000C0AE960FB6F894DEBF17
S11307800FBECDBFDF91CF911F910F91FF90EF90DE
S1130790DF90CF90BF90AF907F906F905F904F901D
S11307A00895CF92DF92EF92FF920F931F93CF930E
S11307B0DF93EC010E9427016B817C81CE010E94B2
S11307C02A0281309105A1F0CE010E941801CD804A
S11307D0DE80EF80F88409851A852B853C854D855C
S11307E05E856F857889CE010E946A0280E090E080
S11307F0DF91CF911F910F91FF90EF90DF90CF90F9
S11308000895CF92DF92EF92FF920F931F93CF93AD
S1130810DF93CDB7DEB72F970FB6F894DEBF0FBEC8
S1130820CDBF8C0122E048E8BC01CE0101960E94B4
S11308307101F8016181728180E090E00E944E09AB
S11308409B01AC0160E070E080E89FE30E94A60891
S11308506B017C0169817A81072E000C880B990B4E
S11308600E9450099B01AC01C701B6010E94E10935
S11308702F960FB6F894DEBF0FBECDBFDF91CF9198
S11308801F910F91FF90EF90DF90CF900895CF923A
S1130890DF92EF92FF920F931F93CF93DF93CDB725
S11308A0DEB72F970FB6F894DEBF0FBECDBF7C0125
S11308B022E049E8BC01CE0101960E947101098140
S11308C01A8169EC71E087ED94E00E947F0B4AE0A5
S11308D050E0B80187ED94E00E94860CF701618135
S11308E0728180E090E00E944E099B01AC0160E0BF
S11308F070E080E89FE30E94A6086B017C01B801C8
S1130900110F880B990B0E9450099B01AC01C70180
S1130910B6010E94E1092F960FB6F894DEBF0FBE10
S1130920CDBFDF91CF911F910F91FF90EF90DF909A
S1130930CF900895AF92BF92DF92EF92FF920F9300
S11309401F93CF93DF93CDB7DEB766970FB6F894B6
S1130950DEBF0FBECDBF8C016AEE71E087ED94E07F
S11309600E949E0B27E04AE9B801CE0101960E943D
S1130970710187E0E8E2F1E0DE01509601900D920A
S11309808A95E1F78E010F5F1F4F7E0180E1E80E2B
S1130990F11C5E01E8E0AE0EB11C6EEF71E087ED74
S11309A094E00E947F0BF801D1908F014AE050E05F
S11309B06D2D87ED94E00E94060CF70181917F0173
S11309C0D81649F063E172E087ED94E00E949E0B33
S11309D081E090E005C00A151B05F9F680E090E07F
S11309E066960FB6F894DEBF0FBECDBFDF91CF91F0
S11309F01F910F91FF90EF90DF90BF90AF900895FB
S1130A0083E894E00C945D14FC011082118212823C
S1130A101382148283E0858316821782DF0118967D
S1130A20E85BFF4F1D92AE17BF07E1F70895FC0185
S1130A30862F608361E00C94640ECF92DF92EF9274
S1130A40FF920F931F93CF93DF93CDB7DEB7A89791
S1130A500FB6F894DEBF0FBECDBF9DE088E10FB6A0
S1130A60F894A895809360000FBE9093600082E88C
S1130A7095E00E94B02040E157E260E070E082E837
S1130A8095E00E94C22061E089E00E94640E04E1C6
S1130A9011E022E2C22E21E0D22E7801D7018D91FD
S1130AA09D917D010E94D103CE14DF04B9F76091BA
S1130AB0220170912301F801819191918F010E948B
S1130AC0F501C016D10699F70E94901F98EEC92E21
S1130AD093E0D92EE12CF12C08E020E231EA47E042
S1130AE050E064E0CE0101960E94E11A1A8E81E082
S1130AF090E09C8F8B8F9EA38DA367E272E087EDBD
S1130B0094E00E947F0BCE0101960E944F1FAB011F
S1130B10BC012AE030E087ED94E00E94F90B6DE31C
S1130B2072E087ED94E00E949E0B40E055E0BE0128
S1130B306F5F7F4F83E894E00E947F1A6B017C0112
S1130B40672B682B692B71F064E472E087ED94E005
S1130B500E947F0B20E130E0B701A60187ED94E00D
S1130B600E94250CE3E4F4E080E081938F5F8034FD
S1130B70E1F7EBEFF3E080E081938F5F8830E1F7FA
S1130B808093FA0380E48093420481E08093F80325
S1130B9083E08093400480E095E0A0E0B0E080939F
S1130BA0F3039093F403A093F503B093F60381E069
S1130BB095E0A0E0B0E080933B0490933C04A093C4
S1130BC03D04B0933E0406E011E084E1E82E81E0A8
S1130BD0F82ED801ED91FD918D0161E080810E9494
S1130BE0A00EE016F106A9F7A8960FB6F894DEBF9A
S1130BF00FBECDBFDF91CF911F910F91FF90EF906A
S1130C00DF90CF9008950F931F93CF93DF930E94AB
S1130C10CF0D0091C7031091C8032091C9033091EF
S1130C20CA03DC01CB01801B910BA20BB30B8536ED
S1130C309105A105B10508F1C4E1D1E006E011E098
S1130C40899199910E949A04019739F4D801ED9100
S1130C50FC9160E080810E94A00E0E5F1F4FB1E006
S1130C60C232DB0769F70E94CF0D6093C70370930C
S1130C70C8038093C9039093CA03DF91CF911F9156
S1130C800F9108958F929F92AF92BF92CF92DF926D
S1130C90EF92FF92CF930E94030687EA93E00E94AB
S1130CA04704AB01BC0122E030E087ED94E00E94F0
S1130CB0730D83E894E00E949510882361F16BE33F
S1130CC074E083E894E00E94B2106BE572E087ED73
S1130CD094E00E947F0B80914304813061F461E0D1
S1130CE089E00E94A00EE0910801F091090161E001
S1130CF080810E94A00E80914304823061F460E000
S1130D0089E00E94A00EE0910801F091090160E0E1
S1130D1080810E94A00E0E94CF0DC090CB03D09082
S1130D20CC03E090CD03F090CE03DC01CB018C1911
S1130D309D09AE09BF0985369105A105B10508F4E1
S1130D4054C080E190E0A0E0B0E08093F30390937E
S1130D50F403A093F503B093F60384E08093FA03BD
S1130D6087E893E00E9447044B015C0187E893E025
S1130D700E9401046B017C0120E030E048EC52E465
S1130D80C501B4010E94E1090E941809C62F70939D
S1130D90F0036093EF0320E030E040E251E4C70148
S1130DA0B6010E94E1090E9418097093F20360934E
S1130DB0F103C093FB038091F0038093FC036093E1
S1130DC0FD038091F2038093FE0363EF73E083E8F5
S1130DD094E00E94D7150E94CF0D6093CB037093CB
S1130DE0CC038093CD039093CE03A895CF91FF902D
S1130DF0EF90DF90CF90BF90AF909F908F90089529
S1130E00EBECF4E040E050E060E070E440835183B8
S1130E106283738380E090E0A0E5B1E484839583EA
S1130E20A683B7831086118612861386EFEBF4E04F
S1130E30408351836283738384839583A683B783BA
S1130E40108611861286138622E041E855E067E099
S1130E5083E894E00E9456108BE394E00E9404051A
S1130E6083EF93E00E9404058DB79EB70C970FB6ED
S1130E70F8949EBF0FBE8DBFADB7BEB711968CE080
S1130E80EBECF4E001900D928A95E1F723E338E06E
S1130E9044E353E060E487EA93E00E94D6008DB710
S1130EA09EB70C970FB6F8949EBF0FBE8DBFADB71B
S1130EB0BEB711968CE0EFEBF4E001900D928A95A9
S1130EC0E1F723E338E044E353E061E487E893E0A7
S1130ED00E94D6008DB79EB70C970FB6F8949EBFAC
S1130EE00FBE8DBFADB7BEB711968CE0EFEBF4E04B
S1130EF001900D928A95E1F723E338E044E353E04F
S1130F0061E487E693E00E94D6008DB79EB784968D
S1130F100FB6F8949EBF0FBE8DBF0C970FB6F89412
S1130F209EBF0FBE8DBFADB7BEB711968CE0EFEB81
S1130F30F4E001900D928A95E1F723E338E044E36D
S1130F4053E061E487E493E00E94D6008DB79EB736
S1130F500C970FB6F8949EBF0FBE8DBFADB7BEB74A
S1130F6011968CE0EFEBF4E001900D928A95E1F795
S1130F7023E338E044E353E061E487E293E00E9432
S1130F80D6008DB79EB70C970FB6F8949EBF0FBED0
S1130F908DBFADB7BEB711968CE0EFEBF4E00190D6
S1130FA00D928A95E1F723E338E044E353E061E4EA
S1130FB087E093E00E94D6008DB79EB784960FB663
S1130FC0F8949EBF0FBE8DBF0C970FB6F8949EBFCA
S1130FD00FBE8DBFADB7BEB711968CE0EFEBF4E05A
S1130FE001900D928A95E1F723E338E044E353E05E
S1130FF061E487EE92E00E94D60063E086EE92E020
S11310000E94170565E085EE92E00E94170566E0F0
S113101084EE92E00E9417056AE083EE92E00E945B
S113102017056FE082EE92E00E94170560E181EE01
S113103092E00E9417058DB79EB70C960FB6F894F0
S11310409EBF0FBE8DBF61E180EE92E00C94170548
S11310508091A9049091AA04009711F00E941A0BA0
S11310608091930490919404009711F00C941A0BBE
S113107008955058BB27AA270E9451080C94A2092E
S11310800E94940938F00E949B0920F039F49F3F94
S113109019F426F40C9491090EF4E095E7FB0C94F2
S11310A08B09E92F0E94B30958F3BA176207730733
S11310B08407950720F079F4A6F50C94D5090EF46D
S11310C0E0950B2EBA2FA02D0B01B90190010C0154
S11310D0CA01A0011124FF27591B99F0593F50F46C
S11310E0503E68F11A16F040A22F232F342F4427C4
S11310F0585FF3CF469537952795A795F0405395BC
S1131100C9F77EF41F16BA0B620B730B840BBAF08B
S11311109150A1F0FF0FBB1F661F771F881FC2F7F6
S11311200EC0BA0F621F731F841F48F4879577950A
S11311306795B795F7959E3F08F0B0CF9395880FC4
S113114008F09927EE0F9795879508950E94BA089D
S11311500C94A2090E949B0958F00E94940940F043
S113116029F45F3F29F00C948B0951110C94D60992
S11311700C9491090E94B30968F39923B1F35523A0
S113118091F3951B550BBB27AA2762177307840796
S113119038F09F5F5F4F220F331F441FAA1FA9F32C
S11311A035D00E2E3AF0E0E832D091505040E6951A
S11311B0001CCAF72BD0FE2F29D0660F771F881F7B
S11311C0BB1F261737074807AB07B0E809F0BB0B6E
S11311D0802DBF01FF2793585F4F3AF09E3F510582
S11311E078F00C948B090C94D6095F3FE4F3983E95
S11311F0D4F3869577956795B795F7959F5FC9F76B
S1131200880F911D9695879597F90895E1E0660FEB
S1131210771F881FBB1F621773078407BA0720F064
S1131220621B730B840BBA0BEE1F88F7E0950895CD
S11312300E941F096894B1110C94D60908950E9464
S1131240BB0988F09F5798F0B92F9927B751B0F090
S1131250E1F0660F771F881F991F1AF0BA95C9F736
S113126014C0B13091F00E94D509B1E008950C94F6
S1131270D509672F782F8827B85F39F0B93FCCF3A9
S1131280869577956795B395D9F73EF490958095B3
S1131290709561957F4F8F4F9F4F0895E89409C0D3
S11312A097FB3EF490958095709561957F4F8F4F95
S11312B09F4F9923A9F0F92F96E9BB279395F695AB
S11312C0879577956795B795F111F8CFFAF4BB0F29
S11312D011F460FF1BC06F5F7F4F8F4F9F4F16C08D
S11312E0882311F096E911C0772321F09EE8872F17
S11312F0762F05C0662371F096E8862F70E060E0D3
S11313002AF09A95660F771F881FDAF7880F96954B
S1131310879597F9089597F99F6780E870E060E0F2
S113132008959FEF80EC089500240A94161617067A
S113133018060906089500240A94121613061406C2
S113134005060895092E0394000C11F4882352F025
S1131350BB0F40F4BF2B11F460FF04C06F5F7F4FDD
S11313608F4F9F4F089557FD9058440F551F59F0C4
S11313705F3F71F04795880F97FB991F61F09F3F7E
S113138079F087950895121613061406551FF2CFA7
S11313904695F1DF08C0161617061806991FF1CFF7
S11313A086957105610508940895E894BB2766271E
S11313B07727CB0197F908950E944E0A08F48FEF1E
S11313C008950E94F4090C94A2090E94940938F02B
S11313D00E949B0920F0952311F00C948B090C9426
S11313E0910911240C94D6090E94B30970F3959FB6
S11313F0C1F3950F50E0551F629FF001729FBB2708
S1131400F00DB11D639FAA27F00DB11DAA1F649FA3
S11314106627B00DA11D661F829F2227B00DA11D56
S1131420621F739FB00DA11D621F839FA00D611DDC
S1131430221F749F3327A00D611D231F849F600DFD
S1131440211D822F762F6A2F11249F5750409AF026
S1131450F1F088234AF0EE0FFF1FBB1F661F771FB2
S1131460881F91505040A9F79E3F510580F00C947D
S11314708B090C94D6095F3FE4F3983ED4F3869528
S113148077956795B795F795E7959F5FC1F7FE2B1D
S1131490880F911D9695879597F90895990F0008DF
S11314A0550FAA0BE0E8FEEF16161706E807F90732
S11314B0C0F012161306E407F50798F0621B730BCD
S11314C0840B950B39F40A2661F0232B242B252B4E
S11314D021F408950A2609F4A140A6958FEF811DF1
S11314E0811D089580E090E008951F920F920FB639
S11314F00F9211242F938F939F93EF93FF93E09177
S1131500E704F091E8048081E091ED04F091EE04A9
S113151082FD12C090818091F0048F5F8F732091BF
S1131520F104821751F0E091F004F0E0E952FB4F2E
S1131530958F8093F00401C08081FF91EF919F917A
S11315408F912F910F900FBE0F901F9018951F929F
S11315500F920FB60F9211242F933F934F935F93E3
S11315606F937F938F939F93AF93BF93EF93FF9367
S113157087ED94E00E949C21FF91EF91BF91AF9180
S11315809F918F917F916F915F914F913F912F9197
S11315900F900FBE0F901F90189587ED94E00E9456
S11315A0512121E0892B09F420E0822F0895E7EDF1
S11315B0F4E01382128288EE93E0A0E0B0E084832A
S11315C09583A683B78381ED92E09183808385EC34
S11315D090E09587848784EC90E09787868780ECF9
S11315E090E0918B808B81EC90E0938B828B82ECEA
S11315F090E0958B848B86EC90E0978B868B118E94
S1131600128E138E148E089508950E94000E0E9467
S1131610040B0E941D05CEE8D1E20E9442062097E9
S1131620E1F30E948E21F9CF0C9457270C9457278D
S11316300C94EF270C94EF27CF92DF92EF92FF9256
S11316400F931F93CF93DF936C017A018B01C0E05A
S1131650D0E0CE15DF0581F0D8016D918D01D60162
S1131660ED91FC910190F081E02DC6010995892B43
S113167011F02196EECF7E01C701DF91CF911F912A
S11316800F91FF90EF90DF90CF9008956115710551
S113169079F0FB0101900020E9F73197AF01461B77
S11316A0570BDC01ED91FC910280F381E02D09944C
S11316B080E090E00895EF92FF920F931F93CF93F1
S11316C0DF938C017B01C0E0D0E0F701EC0FFD1F3C
S11316D06491662361F0D801ED91FC910190F08151
S11316E0E02DC8010995892B11F02196EECFCE018A
S11316F0DF91CF911F910F91FF90EF9008950C947B
S1131700460BDC01ED91FC910190F081E02D0994F0
S113171066E672E00C94460B0F931F93CF93DF930E
S1131720EC010E945B0B8C01CE010E94880B800FA0
S1131730911FDF91CF911F910F9108950F931F93E4
S1131740CF93DF93EC010E94460B8C01CE010E94E3
S1131750880B800F911FDF91CF911F910F910895F6
S11317608F929F92AF92BF92EF92FF920F931F932B
S1131770CF93DF93CDB7DEB7A1970FB6F894DEBF52
S11317800FBECDBF7C01FA01CB0119A2223008F4AF
S11317902AE08E010F5D1F4F822E912CA12CB12CBB
S11317A0BF01A50194010E948126F901CA010150DB
S11317B011096A3010F4605D01C0695CD8016C9352
S11317C0232B242B252B61F7B801C7010E94460B5C
S11317D0A1960FB6F894DEBF0FBECDBFDF91CF91B7
S11317E01F910F91FF90EF90BF90AF909F908F90BB
S11317F008952115310541F4DC01ED91FC9101902E
S1131800F081E02D642F09940C94B00B9A01462FBB
S113181050E060E070E00C94F90B9A01AB0160E0D9
S113182070E00C94F90B0F931F93CF93DF93EC01AB
S11318300E940D0C8C01CE010E94880B800F911F19
S1131840DF91CF911F910F9108950F931F93CF9321
S1131850DF93EC010E94F90B8C01CE010E94880BEE
S1131860800F911FDF91CF911F910F910895CF9217
S1131870DF92EF92FF920F931F93CF93DF93211583
S1131880310581F4DC01ED91FC910190F081E02DB2
S1131890642FDF91CF911F910F91FF90EF90DF9014
S11318A0CF9009942A30310501F577FF1DC06A01F4
S11318B07B01EC016DE20E94810B8C0144275527CA
S11318C0BA014C195D096E097F092AE0CE010E9414
S11318D0B00B800F911FDF91CF911F910F91FF905B
S11318E0EF90DF90CF9008952AE0DF91CF911F9180
S11318F00F91FF90EF90DF90CF900C94B00B9A0172
S1131900AB01770F660B770B0C94370C0F931F9377
S1131910CF93DF93EC010E947F0C8C01CE010E94D7
S1131920880B800F911FDF91CF911F910F91089524
S11319307F928F929F92AF92BF92CF92DF92EF925B
S1131940FF920F931F93CF93DF938C016A017B0166
S1131950722E9A01AB01C701B6010E946C2688233E
S113196019F069E672E027C046015701E894B7F818
S11319702FEF3FEF4FE75FE7C501B4010E946C26EC
S113198081110DC02FEF3FEF4FE75FE7C501B401B1
S11319900E94672618161CF46DE672E00CC02FEF47
S11319A03FEF4FE75FE4C701B6010E94DC09181658
S11319B094F461E772E0C801DF91CF911F910F9118
S11319C0FF90EF90DF90CF90BF90AF909F908F905B
S11319D07F900C94460B2FEF3FEF4FE75FECC7016E
S11319E0B6010E94672687FDE4CF20E030E0A9011C
S11319F0C701B6010E94672687FF0AC06DE2C801CD
S1131A000E94810BEC01F7FAF094F7F8F09402C00D
S1131A10C0E0D0E0B12C60E070E080E09FE37B1494
S1131A2041F020E030E040E251E40E94A608B39483
S1131A30F6CFA70196010E943A086B017C010E942F
S1131A401F094B015C012AE0AB01BC01C8010E94E3
S1131A50B00BC80FD91F7720B9F1C501B4010E949A
S1131A604E099B01AC01C701B6010E9439086B0104
S1131A707C016EE2C8010E94810BC80FD91F20E0CF
S1131A8030E040E251E4C701B6010E94E1094B0194
S1131A905C010E941F096B017C014AE050E0C8010F
S1131AA00E940D0CC80FD91FB60180E090E00E947F
S1131AB04E099B01AC01C501B4010E9439086B01B8
S1131AC07C017A947110DBCFCE01DF91CF911F910D
S1131AD00F91FF90EF90DF90CF90BF90AF909F90C9
S1131AE08F907F9008950F931F93CF93DF93EC0112
S1131AF00E94980C8C01CE010E94880B800F911FCC
S1131B00DF91CF911F910F9108951F920F920FB6FD
S1131B100F9211242F933F938F939F93AF93BF936F
S1131B208091750590917605A0917705B09178051F
S1131B303091740523E0230F2D3720F40196A11D65
S1131B40B11D05C026E8230F0296A11DB11D2093E7
S1131B5074058093750590937605A0937705B093EB
S1131B6078058091790590917A05A0917B05B091D3
S1131B707C050196A11DB11D8093790590937A058A
S1131B80A0937B05B0937C05BF91AF919F918F91FA
S1131B903F912F910F900FBE0F901F9018952FB764
S1131BA0F894609175057091760580917705909110
S1131BB078052FBF08953FB7F894809179059091E7
S1131BC07A05A0917B05B0917C0526B5A89B05C03C
S1131BD02F3F19F00196A11DB11D3FBFBA2FA92FA8
S1131BE0982F8827820F911DA11DB11DBC01CD0125
S1131BF042E0660F771F881F991F4A95D1F7089511
S1131C00789484B5826084BD84B5816084BD85B5D3
S1131C10826085BD85B5816085BDEEE6F0E080819A
S1131C2081608083E1E8F0E01082808182608083BB
S1131C30808181608083E0E8F0E08081816080833E
S1131C40E1EBF0E0808184608083E0EBF0E0808170
S1131C5081608083EAE7F0E0808184608083808112
S1131C6082608083808181608083808180688083BA
S1131C701092C1000895833081F028F4813099F0E6
S1131C808230A1F008958730A9F08830B9F084300B
S1131C90D1F4809180008F7D03C0809180008F7784
S1131CA080938000089584B58F7702C084B58F7DBA
S1131CB084BD08958091B0008F7703C08091B000F7
S1131CC08F7D8093B0000895CF93DF9390E0FC0163
S1131CD0ED5EFE4F2491FC01E95DFE4F8491882363
S1131CE061F190E0880F991FFC01EB5BFE4FC591F9
S1131CF0D491FC01E55CFE4FA591B491611109C03A
S1131D009FB7F8948881209582238883EC912E23B1
S1131D100BC0623061F49FB7F8948881322F3095FC
S1131D2083238883EC912E2B2C939FBF06C08FB7FF
S1131D30F894E8812E2B28838FBFDF91CF910895EB
S1131D401F93CF93DF93282F30E0F901E150FF4F29
S1131D508491F901ED5EFE4FD491F901E95DFE4FE6
S1131D60C491CC23C1F0162F81110E943B0EEC2F9D
S1131D70F0E0EE0FFF1FE55CFE4FA591B4919FB715
S1131D80F894111104C08C91D095D82302C0EC9121
S1131D90DE2BDC939FBFDF91CF911F910895FA0151
S1131DA0E20FF11D60837183828393830895FC01A4
S1131DB0E60FF11D208131816281862F90E0A0E041
S1131DC0B0E0DC0199278827932B822B2381BC0167
S1131DD0CD01922B08958831E9F058F4803171F1E6
S1131DE0843199F08C3059F469E070E080E090E03F
S1131DF008958033C9F08034E1F0803281F0682F97
S1131E006F7070E080E090E008956BE070E080E037
S1131E1090E008956CE070E080E090E008956DE05B
S1131E2070E080E090E008956EE070E080E090E083
S1131E3008956FE070E080E090E008956AE070E05B
S1131E4080E090E00895CF93DF93EC014A855B85B1
S1131E5088E4849F9001859F300D1124A881B98165
S1131E60A20FB31FFB0101900D928A95E1F78A85B9
S1131E709B85AC85BD850196A11DB11D8A879B8775
S1131E80AC87BD874A815B816C817D81841795070E
S1131E90A607B70721F41A861B861C861D868E8525
S1131EA09F85A889B9890196A11DB11D8E879F8739
S1131EB0A88BB98B4A895B896C897D894817590736
S1131EC06A077B0720F48A8B9B8BAC8BBD8BDF91DD
S1131ED0CF910895CF93DF93EC014E815F8188E425
S1131EE0849F9001859F300D1124E881F981E20FD0
S1131EF0F31FDB0101900D928A95E1F78E859F8592
S1131F00A889B9890197A109B1098E879F87A88BF0
S1131F10B98B8E819F81A885B9850196A11DB11DBC
S1131F208E839F83A887B9874A815B816C817D8179
S1131F3084179507A607B70721F41E821F82188607
S1131F401986DF91CF910895FC0120812EBD9B015C
S1131F502150310941F051810DB407FEFDCF4EB53A
S1131F605EBD4193F5CF61507109FC01E60FF71F87
S1131F700DB407FEFDCF8EB5808308958F929F9296
S1131F80AF92BF92CF92DF92EF92FF920F931F9383
S1131F90CF93DF93EC016A017B01453C81E0580754
S1131FA038F428E4249FC001259F900D112402C019
S1131FB08FEF9FEF0E94160B4C0156018C01A11468
S1131FC0B10449F0C8010E940405085B1F4F81E079
S1131FD0A81AB108F4CF88829982CA82DB82EC8283
S1131FE0FD821E821F82188619861A861B861C860D
S1131FF01D861E861F86188A198A1A8A1B8A1C8ABD
S11320001D8ADF91CF911F910F91FF90EF90DF9088
S1132010CF90BF90AF909F908F90089520917F05AF
S1132020222399F04FB7F89420917F05213059F479
S11320302DB320937D053DB320917E052095232368
S11320402DBB4FBF02C040937D058CBD9DBD08953F
S11320500CB405FC0DC09EBD00000DB407FEFDCF01
S11320609EB58EBD00000DB407FEFDCF8EB508955C
S11320708EBD00000DB407FEFDCF8EB59EBD0000E1
S11320800DB407FEFDCF9EB5089580917F0588238A
S113209061F09FB7F89420917F0580917D052130F0
S11320A019F48DBB9FBF08958FBF0895FC01118261
S11320B0108280E582831382558344836683278359
S11320C01086118612861386148615861686178640
S11320D0118A108A128A138A148A158A168A178A10
S11320E0108E118E128E138E148E158E168E178EE0
S11320F010A211A212A213A214A215A217A216A230
S113210010A611A612A613A614A615A616A617A6FF
S113211010AA11AA12AA13AA14AA15AA16AA17AACF
S113212010AE11AE12AE13AE08950F931F93CF935A
S11321308C01FC01828193810E940E10F894C1E00D
S1132140F801868D978DA0A1B1A1892B8A2B8B2BA9
S113215009F4C0E078940E9445108C2FCF911F9110
S11321600F910895EF92FF921F93CF93DF93EC01A9
S11321707B018A819B810E940E10F8948E8D9F8D25
S1132180A8A1B9A111E00097A105B10509F410E0D7
S1132190892B8A2B8B2B29F0B701CE0140960E9404
S11321A06A0F78940E944510812FDF91CF911F917F
S11321B0FF90EF90089560E0FC0186810C94A00EDE
S11321C061E0FC0186810C94A00EEF92FF920F93C4
S11321D01F93CF93DF9300D000D000D0CDB7DEB7EC
S11321E07C01FB01CA01B9018E010F5F1F4F26E07C
S11321F0D8011D922A95E9F79F013F703062398317
S11322002A8322E0A8010E94CF0EC7010E94DB109E
S113221066E070E0C8010E94A40FC7010E94E010AC
S113222026960FB6F894DEBF0FBECDBFDF91CF91D7
S11322301F910F91FF90EF9008950F931F93CF93E9
S1132240DF9300D01F92CDB7DEB78C017F70706230
S113225079836A834B830E94DB1063E070E0CE01D4
S113226001960E94A40FC8010E94E0100F900F90E5
S11322700F90DF91CF911F910F910895EF92FF92EC
S11322800F931F93CF93DF9300D000D000D0CDB72E
S1132290DEB77C018E010F5F1F4F86E0F8011192BB
S11322A08A95E9F77F70706379836A83C7010E9416
S11322B0DB1066E070E0C8010E94A40FC7010E9411
S11322C0E01062E0C8010E94D70E26960FB6F8947B
S11322D0DEBF0FBECDBFDF91CF911F910F91FF9055
S11322E0EF9008952F923F924F925F926F927F9258
S11322F08F929F92AF92BF92CF92DF92EF92FF9212
S11323000F931F93CF93DF93CDB7DEB7C055D10999
S11323100FB6F894DEBF0FBECDBF5C018B0160E742
S113232070E00E943E119B013C5F2D963FAF2EAFA3
S11323302D97D8014D905D906D907C9013971496D5
S11323409C909920D1F0D301C20132E1B695A795B2
S1132350979587953A95D1F79770AA27BB27E3E01D
S11323606E2277244BE0440C551C661C771C4A955E
S1132370D1F7482A592A6A2A7B2AD80117962C9021
S1132380822D0E94EB0E6B017C01992011F0689460
S1132390C4F8F8018581823061F0833029F081111D
S11323A00DC06894C5F80AC0D5011A968C918111A4
S11323B003C06894C7F802C0B0ECCB2A312CE3E028
S11323C02E0E311C3594279435942794C101032C87
S11323D0000CAA0BBB0B61968CAF9DAFAEAFBFAF29
S11323E06197DE0111964D018AE4FD0111928A95EF
S11323F0E9F72D966EAD7FAD2D977F70706279836E
S11324006A8322E0AD01C301B2010E94CF0E26E02F
S1132410A401C701B6010E94CF0E085F1F4F2AE036
S1132420F22E412C512C320161968CAD9DADAEAD96
S1132430BFAD6197481659066A067B0690F4D80129
S11324406D917D918D919D918D012F2DA4010E94FF
S1132450CF0EBFEF4B1A5B0A6B0A7B0AE4E0FE0E59
S1132460E3CFC5010E94DB10B101660F771F660F31
S1132470771F665F7F4FC4010E94A40FC5010E94AD
S1132480E01043E069E670E0C5010E941D11C05BE5
S1132490DF4F0FB6F894DEBF0FBECDBFDF91CF91F3
S11324A01F910F91FF90EF90DF90CF90BF90AF906E
S11324B09F908F907F906F905F904F903F902F9060
S11324C008950F931F93CF93DF93CDB7DEB7C8540E
S11324D0D1090FB6F894DEBF0FBECDBF8C01CE017B
S11324E001960E940405F80184A995A9A6A9B7A993
S11324F0892B8A2B8B2B71F0BE016F5F7F4FC80134
S113250086960E946A0FBE016F5F7F4FC8010E94CA
S1132510721108C040E968E670E0C8010E941D110C
S1132520F8011186C85BDF4F0FB6F894DEBF0FBE0B
S1132530CDBFDF91CF911F910F9108952F923F92BC
S11325404F925F926F927F928F929F92AF92BF92BF
S1132550CF92DF92EF92FF920F931F93CF93DF936B
S1132560CDB7DEB7C559D1090FB6F894DEBF0FBE9B
S1132570CDBF3C0164E670E00E943E116B017C011A
S1132580CE01855B9F4F0E9404058E010F5F1F4F94
S11325908AE4F80111928A95E9F7FCEFDF1A8FE0DB
S11325A0D82290E3D92AD982CA82C3010E94DB10BF
S11325B06AE470E0C8010E94A40F62E0C8010E94AE
S11325C0D70E2F966CAF7DAF8EAF9FAF2F9766E07F
S11325D0C8010E94D70E4B015C01DC01CB018F7056
S11325E09927AA27BB27FC01ED57FD4FC0806396AE
S11325F0CFAE6397D12CE3E0CE0ED11CD594C79413
S1132600D594C7940D2C000CEE08FF088BE490E0E1
S11326108C0F9D1F0896CC56DF4F99838883C4592D
S1132620D0409AE0CD56DF4F9883C359D040212C37
S1132630312C21012C143D044E045F0448F5CD5681
S1132640DF4F6881C359D040C8010E94D70ECC56D1
S1132650DF4FE881F981C459D0406193719381932C
S11326609193CC56DF4FF983E883C459D040FFEFF0
S11326702F1A3F0A4F0A5F0ACD56DF4F8881C3598C
S1132680D0408C5FCD56DF4F8883C359D040D2CF22
S1132690C3010E94E01041E06DE570E0C3010E94B7
S11326A01D11D501C4014BE0B695A7959795879563
S11326B04A95D1F78F7162968FAF629785FE04C0F9
S11326C061961FAE61970CC087FC02C081E005C013
S11326D086FC02C082E001C083E061968FAF6197FF
S11326E081E0B501A401407155276627772784FE50
S11326F080E060968FAF6097452B462B472B29F1DE
S11327002F968CAD9DADAEADBFAD2F97AC01BD0185
S11327102BE076956795579547952A95D1F7637081
S113272077279770AA27BB2732E1880F991FAA1F22
S1132730BB1F3A95D1F7842B952BA62BB72B2F963D
S11327408CAF9DAFAEAFBFAF2F97F3018289938952
S1132750A489B589468D578D60A171A14817590781
S11327606A077B0740F4BE01655B7F4FC301409657
S11327700E94230F08C00196A11DB11DF30182A37D
S113278093A3A4A3B5A3CB56DF4F0FB6F894DEBF33
S11327900FBECDBFDF91CF911F910F91FF90EF90AE
S11327A0DF90CF90BF90AF909F908F907F906F906D
S11327B05F904F903F902F9008950F931F93CF9366
S11327C0DF9300D000D0CDB7DEB78C0119821A8216
S11327D01B821C827F70706379836A830E94DB1082
S11327E064E070E0CE0101960E94A40FC8010E942B
S11327F0E0108B819C810F900F900F900F90DF91D0
S1132800CF911F910F910895EF92FF921F93CF9351
S1132810DF93EC018A819B810E940E106CE170E0D1
S1132820CE010E94DD137C0181FF05C0CE010E9410
S11328309E1211E001C010E0F2FE07C04FEE6CE6FC
S113284070E0CE010E941D1102C0E0FE04C0CE0162
S11328500E94611211E0E2FE07C04BEF6CE170E0F0
S1132860CE010E941D1111E0E3FE07C047EF6CE1A9
S113287070E0CE010E941D1111E0F4FE07C04FEE7E
S11328806DE170E0CE010E941D1111E0F3FE0CC059
S11328908F858F3F11F08F5F8F8747EF60E670E081
S11328A0CE010E941D1111E00E944510812FDF917D
S11328B0CF911F91FF90EF900895CF93DF93EC0198
S11328C0CE010E9404148111FBCFDF91CF910895B2
S11328D00F931F93CF93DF9300D01F92CDB7DEB732
S11328E08C0119821A821B827F70706379836A83D8
S11328F00E94DB1063E070E0CE0101960E94A40FF9
S1132900C8010E94E0108B810F900F900F90DF910F
S1132910CF911F910F9108950F931F93CF93DF933E
S1132920EC0189858823D9F088A599A5AAA5BBA51A
S11329300CA91DA92EA93FA9081719072A073B07A7
S113294028F4CE0186960E94230F1CC00196A11D77
S1132950B11D88AF99AFAAAFBBAF80E014C0CE0160
S11329600E9472116CE670E0CE010E94681480FD32
S113297009C041E968E670E0CE010E941D1181E0C2
S1132980898701C081E0DF91CF911F910F91089554
S11329902F923F924F925F926F927F928F929F926B
S11329A0AF92BF92CF92DF92EF92FF920F931F9359
S11329B0CF93DF93CDB7DEB7C155D1090FB6F894E5
S11329C0DEBF0FBECDBFDC011896BC912C96BFAF05
S11329D02C97B11104C02C961FAE2C97CBC05B0171
S11329E08C0164E570E00E94681484FF07C04FEE18
S11329F064E570E0C8010E941D1102C080FFEBCFA6
S1132A0068E570E0C8010E943E11FB01FC5F2E9650
S1132A10FFAFEEAF2E97D5014D905D906D907C90F9
S1132A20139714969C909920D1F0D301C20132E1FE
S1132A30B695A795979587953A95D1F79770AA2754
S1132A40BB27E3E06E2277244BE0440C551C661C44
S1132A50771C4A95D1F7482A592A6A2A7B2AD50134
S1132A6017962C90822D0E94EB0E6B017C0199200D
S1132A7011F06894C4F8F5018581823061F08330E7
S1132A8029F081110DC06894C5F80AC0D8011A96BE
S1132A908C91811103C06894C7F802C0B0ECCB2AB2
S1132AA0312CE3E02E0E311C359427943594279471
S1132AB0C101032C000CAA0BBB0B62968CAF9DAF1B
S1132AC0AEAFBFAF6297DE0111964D018AE4FD01FE
S1132AD011928A95E9F72E966EAD7FAD2E977F7091
S1132AE0706279836A8322E0AD01C301B2010E945E
S1132AF0CF0E26E0A401C701B6010E94CF0EF8E074
S1132B00AF0EB11C2AE0F22E412C512C32016296F8
S1132B108CAD9DADAEADBFAD6297481659066A0641
S1132B207B0690F4D5016D917D918D919D915D0110
S1132B302F2DA4010E94CF0EBFEF4B1A5B0A6B0A24
S1132B407B0AE4E0FE0EE3CFC8010E94DB10B10172
S1132B50660F771F660F771F665F7F4FC4010E9461
S1132B60A40FC8010E94E01043E061E570E0C801D1
S1132B700E941D112C968FAD2C97CF5ADF4F0FB6A4
S1132B80F894DEBF0FBECDBFDF91CF911F910F919F
S1132B90FF90EF90DF90CF90BF90AF909F908F9079
S1132BA07F906F905F904F903F902F9008950F9378
S1132BB01F93CF93DF93EB012F813D81323018F4C3
S1132BC02930C8F510C0293070F02C3061F0322F54
S1132BD03B7F303141F0283131F0322F3F7E3032AB
S1132BE011F0203441F58C01FC01828193810E9413
S1132BF00E10F8948E8181110AC09F81F80183859B
S1132C008917A0F0BE01C8010E948C140BC08F3F2D
S1132C1059F49F81F8018485891740F0BE01C801E9
S1132C200E94C814C82F03C0C1E001C0C0E078945A
S1132C300E94451001C0C0E08C2FDF91CF911F91FD
S1132C400F910895FF920F931F93CF93DF93EC019D
S1132C508B01F42E8A819B810E940E10F8944F2DD3
S1132C60B801CE010E941D117894DF91CF911F917C
S1132C700F91FF900C9445100F931F93CF93DF9304
S1132C80EC018B018A819B810E940E10F894B8019B
S1132C90CE010E946814C82F78940E9445108C2F8E
S1132CA0DF91CF911F910F910895CF92DF92EF9210
S1132CB0FF920F931F93CF93DF93EC018B01690174
S1132CC07A018A819B810E940E10F894A7019601D3
S1132CD0B801CE010E94E5107894DF91CF911F9145
S1132CE00F91FF90EF90DF90CF900C944510CF920E
S1132CF0DF92EF92FF92CF93DF93EC017B018A8105
S1132D009B810E940E10F894B701CE010E943E11DF
S1132D106B017C0178940E944510C701B601DF91D4
S1132D20CF91FF90EF90DF90CF900895CF93DF93F2
S1132D30EC018A819B810E940E10F894CE010E94BE
S1132D40DB1080E090E00E942810CE010E94E01089
S1132D507894DF91CF910C9445102F923F924F922B
S1132D605F926F927F928F929F92AF92BF92CF9217
S1132D70DF92EF92FF920F931F93CF93DF9300D0D4
S1132D801F92CDB7DEB79B838A838B011A01690139
S1132D90FB018389811106C044E0842E912CA12C6F
S1132DA0B12C03C0812C912C5401C8010E94CC1E6B
S1132DB0672B682B692B11F0689483F8EA81FB81F7
S1132DC08781823029F0833029F4F1E0F98374C3D8
S1132DD0198272C38F3F09F068C32114310409F4C6
S1132DE061C36894A3F82FEF2983F80180A181328D
S1132DF010F0689497F8F80182A1803210F068947A
S1132E0095F8F80187A1811103C0689490F804C073
S1132E10813210F0689491F8F801848D811103C017
S1132E20689492F804C0813210F0689493F8F80121
S1132E30868D803210F0689496F8C8010E944F1F66
S1132E40613078408105910510F0689494F8F6019A
S1132E508081813210F0689487F8F6018581882397
S1132E6011F0689486F8F8018489805C87FF03C0B8
S1132E706894A4F8BCC081149104A104B10409F0BD
S1132E80B6C0EA81FB8187818F3F19F062E00E941E
S1132E90640E8A819B810E94E01061E0EA81FB81DB
S1132EA086810E94640E81E5EA81FB81828313821C
S1132EB00E94CF0D2B013C01F2E04F0E511C611C0E
S1132EC0711C4CE063E070E08A819B810E942216B1
S1132ED062E070E08A819B810E943C16829586950F
S1132EE08770843059F00E94CF0D641575058605EE
S1132EF0970538F3812C912C540183948A819B810A
S1132F000E94961690E2E92EF12C412C512C3201AC
S1132F10439481149104A104B10409F068C0A3018D
S1132F20920160E074E08A819B810E94551660E002
S1132F3074E08A819B810E94771664157505860565
S1132F40970529F082E0882E912CA12CB12C440CF9
S1132F50551C661C771C21E0E21AF108D1F6811495
S1132F609104A104B10409F042C0F80180818150A8
S1132F70873050F490E0FC01E458FD4FF080FC01F0
S1132F80EB58FD4F408102C040E0F12C4F29F8017D
S1132F90808D843029F0F0E28F9FC0011124482BEA
S1132FA060E07EE08A819B810E942216FF20F9F076
S1132FB00E94CF0D2B013C0122E0420E511C611CEA
S1132FC0711C61E07EE08A819B810E943C16982FEF
S1132FD0917080FD78C20E94CF0D64157505860539
S1132FE0970578F3812C912CA2E0AA2EB12CF8013C
S1132FF04180528063807480769467945794479498
S113300040E052E16AE770E090E044165506660637
S1133010770640F476956795579547959F5F963068
S1133020A1F797E081E08927982F906A9695EA8125
S1133030FB8192838170838360E2E62EF12C412C24
S1133040512C3201439481149104A104B10409F078
S11330503EC2A301920160E074E08A819B810E94D8
S1133060551660E074E08A819B810E94771664158E
S113307075058605970529F0812C912C54E0A52E21
S1133080B12C440C551C661C771CF1E0EF1AF108B6
S1133090D1F681149104A104B10409F018C2F80115
S11330A0428D538D60E070E08A819B8186960E94F8
S11330B0BE0FF80144A155A160E070E08A819B81B4
S11330C040960E94BE0FE12C34E0F32E20E030E065
S11330D0A901B7018A819B810E945516F4E0EF0E85
S11330E0F11CE1142CE0F20689F7F801808D84309C
S11330F011F443E201C043E0F80185898111406184
S1133100F80186898111406467E07EE08A819B81B1
S11331100E942216F8018789882311F040E601C035
S113312040E460E070E08A819B810E942216F801ED
S113313024892F77822F220F990BAA0BBB0BBA2F4E
S1133140A92F982F88279C01AD01426052606CE042
S113315070E08A819B810E945516F80143A1429533
S1133160440F407E82A1482B62E570E08A819B81F6
S11331700E94221681E0F80190A1911101C080E023
S1133180EA81FB818087F80181A1F0E28F9FC00171
S11331901124F80140A14150482B63E570E08A8175
S11331A09B810E942216F80181A10E94871FEA8157
S11331B0FB8164878085811102C040E001C040E149
S11331C0416062E070E08A819B810E942216F801CE
S11331D086A1F0E28F9FC0011124F80147A141505C
S11331E0482B6FE570E08A819B810E94221649E09A
S11331F06CE570E08A819B810E942216F80186A109
S11332000E94871FEA81FB816587F801478D4295FB
S1133210440F407E868D482B6AE670E08A819B814C
S11332200E942216F801858DF0E28F9FC0011124BF
S1133230F801448D4150482B6BE670E08A819B81F4
S11332400E94221640E968E670E08A819B810E9410
S11332502216F801858D0E94871FEA81FB8163870E
S1133260F601E180F280808190E0880F991F0E942E
S1133270160BEA81FB8191838083512CE114F104C4
S1133280E1F1F70142855385C52CD12CC601880F85
S1133290991FEA81FB8120813181F901E80FF91F2F
S11332A0518340833601F3E0660C771CFA95E1F70D
S11332B0F7012281338144815581B3016C507E4FE3
S11332C08A819B810E945516F701268137814085AA
S11332D05185B30160517E4F8A819B810E945516AE
S11332E0B60160537E4F41E88A819B810E94221679
S11332F0F701E080F1805394C1CF43E06EE170E0C8
S11333008A819B810E94221644E06FE170E08A81E9
S11333109B810E942216F8012585368521503109AA
S1133320C901A0E0B0E0CC24D82EE92EFA2E2785DE
S1133330308921503109C901A0E0B0E08C299D29D0
S1133340AE29BF294427582F692F7A2F818990E00D
S11333500197092E000CAA0BBB0B842B952BA62BD3
S1133360B72BBA2FA92F982F8827228930E0215014
S11333703109A901330F660B770B9A01AB01282B96
S1133380392B4A2B5B2B64E070E08A819B810E947D
S11333905516F801818591E0813009F490E0EA81C5
S11333A0FB819287813009F43FC0F8012585368579
S11333B021503109C901A0E0B0E0CC24D82EE92E77
S11333C0FA2E228530E021503109C901330FAA0BAE
S11333D0BB0B8C299D29AE29BF294427582F692F5F
S11333E07A2F838590E00197092E000CAA0BBB0B62
S11333F0842B952BA62BB72BBA2FA92F982F882770
S1133400248530E021503109A901330F660B770B75
S11334109A01AB01282B392B4A2B5B2B68E070E017
S11334208A819B810E945516F801418DEA81FB81B6
S1133430468763E070E0CF010E9422160E94CF0D00
S11334406B017C01FAE0CF0ED11CE11CF11C62E09F
S113345070E08A819B810E943C16829586958770D4
S1133460F801918D891759F00E94CF0D6C157D05D7
S11334708E059F0560F3812C912C5401A394EA815D
S1133480FB8187818F3F49F040E050E0B1018981A1
S11334900E942E2289810E94C61FEA81FB81118627
S11334A0178615C0FFEFF983A0CC2FEF298380E1A5
S11334B0882E912CA12CB12C2114310409F095CC27
S11334C0689485F892CC913009F07BCD90CDC501FC
S11334D0B4010F900F900F90DF91CF911F910F9136
S11334E0FF90EF90DF90CF90BF90AF909F908F9020
S11334F07F906F905F904F903F902F900895CF9260
S1133500DF92EF92FF920F931F93CF93DF93CDB788
S1133510DEB727970FB6F894DEBF0FBECDBF8C0180
S11335207B016A0119821B821A821D821C821E82FF
S11335301F828CE090E00E94140BFC011182108227
S113354012821382148215821682178210861186C3
S1133550138612868A819B81892B19F4FB83EA8363
S113356004C0AC81BD81ED93FC93FD83EC83898120
S11335708F5F89839E012F5F3F4FA601B701C8016A
S11335800E94AD166B017C018A819B81009741F0FA
S1133590FC01008111810E94180B1B830A83F4CF64
S11335A0C701B60127960FB6F894DEBF0FBECDBF94
S11335B0DF91CF911F910F91FF90EF90DF90CF900B
S11335C008952F923F924F925F926F927F928F92C3
S11335D09F92AF92BF92CF92DF92EF92FF920F939E
S11335E01F93CF93DF93CDB7DEB7E2970FB6F8946E
S11335F0DEBF0FBECDBF9AA789A72D873E874F8711
S1133600588BC9A2DAA2EBA2FCA2DC016C9368304D
S113361078F4B4E06B9FF0011124ED56FD4F208146
S113362031814281538129833A834B835C8308C06F
S113363040E05AE562E672E049835A836B837C83F7
S113364069817A818B819C81A9A5BAA511966D9314
S11336507D938D939C9314972D853E854F85588932
S113366015962D933D934D935C93189719960C934F
S113367019971A961C921A971B961C921B971C96C4
S11336801C921C971E961C921E921D9750961C927B
S11336901E921F9751961C92519752961C925297C4
S11336A053961C92539754961C92549755961C9279
S11336B0559756961C92569781E057968C93579738
S11336C093E058969C93589759961C92599720E1E9
S11336D030E05B963C932E935A975C968C935C9760
S11336E087E05D968C935D975E961C925E9792E060
S11336F05F969C935F9790961C92909791968C936B
S113370091972FE192962C93929793969C939397EB
S113371020E230E095963C932E93949796968C9362
S113372096978BE197968C93013009F01AC16981C1
S11337307A818B819C812D853E854F8558890E9495
S113374081262D8B3E8B4F8B588F832E942EA52E46
S1133750BB242D853E854F8558890027122F232FA2
S1133760342F098B1A8B2B8B3C8BB4E04B2E512CB2
S1133770612C712C01E010E0212C312C4FEF5FEF14
S1133780BA0149875A876B877C87C12CD12C760173
S1133790D39432E8831631E09306A104B10408F00F
S11337A093C0C114D104E104F10409F48DC0D5011E
S11337B0C4010497A109B1098E379140A105B1054F
S11337C048F5A7019601C501B4010E9471269B0129
S11337D0AC016D857E858F8598890E94712629812B
S11337E03A814B815C81261B370B480B590BDA015C
S11337F0C90149855A856B857C85481759076A072D
S11338007B0740F0240135018601170189879A87D7
S1133810AB87BC87D501C4010397A109B1098E37D1
S11338209140A105B10540F56FEF861A960AA60AE4
S1133830B60AA501940169897A898B899C890E94B9
S11338407126DC01CB0129813A814B815C81821B89
S1133850930BA40BB50B49855A856B857C8548175A
S113386059076A077B0740F02401350186011701D7
S113387089879A87AB87BC8751E0C51AD108E108CC
S1133880F108B9F4E2E88E2E99249394A12CB12C7A
S113389069897A898B899C892D853E854F855889CC
S11338A0621B730B840B950B698B7A8B8B8B9C8BB4
S11338B070CF6D897E898F89988DA70196010E94AA
S11338C0812649015A01E4CFC301B20125E030E069
S11338D040E050E00E948126211531054105510543
S11338E021F421E030E040E050E07301620161E046
S11338F0C61AD108E108F108C21AD30AE40AF50A83
S113390071E0C716D706E104F10478F0DA01C901C1
S11339109150A109B109A7019601280F391F4A1F27
S11339205B1FC12CD12C7601D394A9A5BAA51E96F0
S11339301C930E931D975096DC92CE921F9751962E
S11339402C93519752962C939801A101C301B20173
S11339500E9471269B01AC016D857E858F859889B7
S113396074C1202F30E040E050E02D8F3E8F4F8F08
S113397058A32D853E854F8558896D8D7E8D8F8DFD
S113398098A10E947126698F7A8F8B8F9C8F698191
S11339907A818B819C81298D3A8D4B8D5C8D0E941F
S11339A081262DA33EA34FA358A769017A0132E0D3
S11339B0F694E794D794C7943A95D1F7098D1A8D64
S11339C02B8D3C8D42E0000F111F221F331F4A959F
S11339D0D1F70D8B1E8B2F8B388F54E0452E512C35
S11339E0612C712C60E3862E912CA12CB12C00E06B
S11339F011E020E030E009871A872B873C870FEF1E
S1133A001FEF9801098B1A8B2B8B3C8BC114D104AB
S1133A10E104F10409F48AC011E0C116D106E104FD
S1133A20F10408F05DC02D893E894F89588DC70186
S1133A30B6010E9471266FA778AB89AB9AAB098156
S1133A401A812B813C81061B170B280B390B0BA702
S1133A501CA72DA73EA749895A896B897C894017E1
S1133A6051076207730750F053014201C986DA8691
S1133A70EB86FC86098B1A8B2B8B3C8BC11451E093
S1133A80D506E104F10461F16FEFC61AD60AE60A1D
S1133A90F60A8D899E89AF89B88D0FA518A929A921
S1133AA03AA9800F911FA21FB31F09811A812B818C
S1133AB03C81801B910BA20BB30B09891A892B89BA
S1133AC03C89081719072A073B0750F053014201A4
S1133AD0C986DA86EB86FC86898B9A8BAB8BBC8B8A
S1133AE01FEF411A510A610A710A6DA17EA18FA1CB
S1133AF098A5A30192010E94812669017A010D898A
S1133B001E892F89388D498D5A8D6B8D7C8D040FBC
S1133B10151F261F371F0D8B1E8B2F8B388F51E3DC
S1133B20451651046104710409F070CFC501B40154
S1133B3025E030E040E050E00E9481262115310567
S1133B404105510521F421E030E040E050E0D50189
S1133B50C4010197A109B109821B930BA40BB50BF6
S1133B6081329105A105B10580F0BA01A901405245
S1133B705109610971099A01AB01280F391F4A1FC4
S1133B805B1F80E290E0A0E0B0E009851A85089F01
S1133B90B001099F700D189F700D112460347105D8
S1133BA008F06FE3E9A5FAA5648B8287238724874D
S1133BB02D8D3E8D4F8D58A1C501B4010E947126F3
S1133BC06B017C0125E030E040E050E00E9481265A
S1133BD0211531054105510521F421E030E040E093
S1133BE050E0D701C6010197A109B109821B930BCB
S1133BF0A40BB50B8130F1E09F07A105B10578F066
S1133C00BA01A9015150610971099A01AB01280F48
S1133C10391F4A1F5B1F80E091E0A0E0B0E0E9A5F6
S1133C20FAA516870587908B8787218B228B2D8594
S1133C303E854F85588969857A858B859C850E9448
S1133C4071269B01AC01C701B6010E9471262B01AC
S1133C503C0109811A812B813C816017710782071D
S1133C60930738F4D901C80184199509A609B7093D
S1133C700AC0DC01CB0109811A812B813C81801BA4
S1133C80910BA20BB30B8C019D0140E050E0BA01F3
S1133C9089831A832B833C834D835E836F83788768
S1133CA080E4A82E92E4B92E2FE0C22ED12CE12C70
S1133CB0F12C00E010E029813A814B815C816D8117
S1133CC07E818F8198850E94C42679018A011B0117
S1133CD04C01C301B20129A13AA14BA15CA10E94EC
S1133CE01D2759016A01762EB72FA82FF92FE1E07D
S1133CF09701A801B101C401E72CFB2E0A2F1F2F45
S1133D000E94482711F008F0E0E0A9A5BAA553964F
S1133D10EC93E2960FB6F894DEBF0FBECDBFDF91F1
S1133D20CF911F910F91FF90EF90DF90CF90BF90B4
S1133D30AF909F908F907F906F905F904F903F9047
S1133D402F900895CF92DF92EF92FF92FC0121858C
S1133D502130D9F0A285B0E011968385A80FB11D5A
S1133D6030E00E94B226478550894F5F5F4F21891A
S1133D70420F511D6A01E12CF12C21E06C157D05E7
S1133D808E059F0519F020E001C021E0822FFF90ED
S1133D90EF90DF90CF900895CF92DF92EF92FF9251
S1133DA0CF93DF93FC0185859685009749F0813098
S1133DB0914058F092E0C92ED12CE12CF12C08C08E
S1133DC0C12CD12C7601C39403C0C12CD12C760113
S1133DD0278530892230310518F46894C2F806C06A
S1133DE0213081E0380710F06894C3F8918991116B
S1133DF003C06894C4F804C0913810F06894C5F8FE
S1133E008289811103C06894C6F804C0813810F017
S1133E106894C7F8482F50E02417350710F46894C5
S1133E20D0F8981710F46894D1F88185813071F135
S1133E30EF01CF010E94A21E811102C06894D2F842
S1133E402A85223018F46894D3F804C0213210F083
S1133E506894D4F89B85911103C06894D5F804C084
S1133E60913110F06894D6F88C85811103C0689460
S1133E70D7F80CC0813110F06894E0F8281710F4DA
S1133E806894E1F8981710F46894E2F8C701B60151
S1133E90DF91CF91FF90EF90DF90CF900895CF9274
S1133EA0DF92EF92FF92CF93DF93FC01A1A1B0E0E8
S1133EB0AD54BD4FAC9120A1C6A1D0E0CD54DD4F8F
S1133EC0488157A130E0B0E00E94A3266B017C0139
S1133ED0252F30E0A42FB0E00E94A326C60ED71EE3
S1133EE0E81EF91EA58DB0E0AD54BD4F2C91A48DF4
S1133EF030E0B0E00E94A3266C0D7D1D8E1D9F1D39
S1133F00DF91CF91FF90EF90DF90CF900895E82F4D
S1133F10F0E0ED54FD4F608170E080E090E00895A2
S1133F20CF93CFB7F89480918005811127C0E1E346
S1133F30F1E08491EDE1F1E09491E82FF0E0EE0FEF
S1133F40FF1FEB5BFE4FA591B491EC91E92321F4A3
S1133F5061E08AE00E94A00E61E08AE00E94640EA3
S1133F608CB580618CBD8CB580648CBD61E08DE0C6
S1133F700E94640E61E08BE00E94640E80918005D3
S1133F808F5F80938005CFBFCF9108959FB7F8943A
S1133F90882349F0813011F482E006C082E08093E6
S1133FA07F0580E001C081E020917E05822B809313
S1133FB07E0580917F05811103C081E080937F0598
S1133FC09FBF08958091B60590E02091B705821BAC
S1133FD0910908959091B7058091B605981750F40A
S1133FE0E92FF0E0E854FA4F208130E09F5F90938E
S1133FF0B70502C02FEF3FEFC9010895E091B7055F
S11340008091B605E81730F4F0E0E854FA4F808167
S113401090E008958FEF9FEF08950895CF93DF9375
S1134020EC01E0918E05F0918F053097F1F09091BD
S1134030B7058091B6059817C0F090E0292F30E0BD
S11340402617370754F4DE01A20FB31F4C91D90190
S1134050A854BA4F4C939F5FF1CF1092B705609369
S1134060B605CB01DF91CF910994DF91CF910895EB
S1134070E0919005F0919105309729F01092940504
S11340801092930509940895CF92DF92EF92FF92D4
S11340900F931F93CF93DF937C01CB018A0120916F
S11340A09205222389F0EB016B01C40ED51ECC15B9
S11340B0DD0569F06991D701ED91FC910190F081E2
S11340C0E02DC7010995F3CF642F0E94DB22C801BC
S11340D0DF91CF911F910F91FF90EF90DF90CF90E0
S11340E00895CF93DF931F92CDB7DEB769832091F4
S11340F092052223D1F020919305203240F021E053
S113410030E0FC013383228380E090E015C080918D
S11341109405E82FF0E0EB56FA4F998190838F5F76
S1134120809394058093930505C061E0CE010196C8
S11341300E94DB2281E090E00F90DF91CF910895FF
S1134140FC011382128288EE93E0A0E0B0E0848345
S11341509583A683B7838FEB92E091838083089540
S11341601092B7051092B60510929405109293051B
S11341700E949C2288E390E20E9408238EE090E251
S11341800C940323CB01BA010C94C72281E08093E1
S113419092056093B50510929405109293050895C5
S11341A00F93062F21E04091930565E975E0809116
S11341B0B5050E9412241092940510929305109252
S11341C092050F9108954F925F926F927F92AF92F2
S11341D0BF92CF92EF92FF920F931F93CF93DF93EF
S11341E05C01F62ED42F28013901EE2021F10E9422
S11341F0C620CE2DC43008F0C3E0C150C0F028E082
S1134200C29FC0011124A301920104C05695479591
S1134210379527958A95D2F7CA01B901D501ED9151
S1134220FC910190F081E02DC5010995E6CF60E095
S1134230C5010E94D0204D2FD13208F040E22C2D30
S113424068EB75E08F2D0E9429231092B7058093A7
S1134250B605DF91CF911F910F91FF90EF90CF9012
S1134260BF90AF907F906F905F904F900895CF92E2
S1134270EF920F931F93C22EE12C00E010E09801FF
S11342800E94E3201F910F91EF90CF90089521E0B9
S11342900C94372161E00C94D02082E895E00C94D2
S11342A0A020FC01918D228D892F90E0805C9F4F8E
S11342B0821B91098F7399270895FC01918D828D3A
S11342C0981731F0828DE80FF11D858D90E00895E7
S11342D08FEF9FEF0895FC01918D828D981761F007
S11342E0828DDF01A80FB11D5D968C91928D9F5F29
S11342F09F73928F90E008958FEF9FEF0895FC01D4
S1134300538D448D252F30E0842F90E0821B930B36
S1134310541710F0CF960895019708958DEC9AE004
S1134320892B49F080E090E0892B29F00E94CD0A86
S113433081110C9400000895FC01848DDF01A80F05
S1134340B11DA35ABF4F2C91848D90E001968F73B9
S11343509927848FA689B7892C93A089B1898C91D8
S1134360837080648C93938D848D981306C0028827
S1134370F389E02D80818F7D80830895EF92FF92F1
S11343800F931F93CF93DF93EC0181E0888F9B8D74
S11343908C8D981305C0E889F989808185FD26C034
S11343A0F62E0B8D10E00F5F1F4F0F731127E02EB9
S11343B08C8DE8120CC00FB607FCFACFE889F98996
S11343C0808185FFF5CFCE010E949C21F1CF8B8D9A
S11343D0FE01E80FF11DE35AFF4FF0829FB7F894F6
S11343E00B8FEA89FB89808180620AC09FB7F894A9
S11343F0EE89FF896083E889F9898081837080640C
S113440080839FBF81E090E0DF91CF911F910F9156
S1134410FF90EF900895CF93DF93EC01888D88236C
S1134420C9F0EA89FB89808185FD05C0A889B9891D
S11344308C9186FD0FC00FB607FCF5CF808185FFF8
S1134440F2CFA889B9898C9185FFEDCFCE010E9466
S11344509C21E7CFDF91CF91089508958230E8F44D
S1134460E82FF0E0EE0FFF1FEC5DFE4F71836083D9
S1134470813041F0809169008C7F482B4093690022
S1134480E89A089580916900837F440F551F440F73
S1134490551F482B40936900E99A08951F920F9283
S11344A00FB60F9211242F933F934F935F936F9303
S11344B07F938F939F93AF93BF93EF93FF93E09179
S11344C02401F09125010995FF91EF91BF91AF91DE
S11344D09F918F917F916F915F914F913F912F9118
S11344E00F900FBE0F901F9018951F920F920FB64A
S11344F00F9211242F933F934F935F936F937F9366
S11345008F939F93AF93BF93EF93FF93E091260113
S1134510F09127010995FF91EF91BF91AF919F9180
S11345208F917F916F915F914F913F912F910F9058
S11345300FBE0F901F90189510924B0681E0809348
S113454049061092480661E082E10E94A00E61E0F3
S113455083E10E94A00EE9EBF0E080818E7F8083EE
S113456080818D7F808388E48093B80085E4809384
S1134570BC000895ECEBF0E080818A7B808360E0EE
S113458082E10E94A00E60E083E10C94A00E9B01E6
S1134590AC0160E074E284EF90E00E948126DA01CD
S11345A0C9014097A109B109B695A7959795879533
S11345B08093B80008954091FA05262F30E0240F27
S11345C0311D21323105DCF420914B062430C9F42D
S11345D0FC0180E090E0861758F43091FA052191AF
S11345E0DC01A450BA4FA30FB11D2C930196F3CF55
S11345F08091FA05680F6093FA0580E0089581E0E0
S1134600089582E0089590933F0680933E060895AE
S11346109093410680934006089585EC8093BC00F6
S113462010924B060895CF93DF9391E09093430645
S1134630882361F0C091B800D091BA000E94BA22D8
S11346400E949C22D093BA00C093B800DF91CF910E
S113465008954F925F926F927F928F929F92AF9242
S1134660BF92CF92DF92EF92FF920F931F93CF935B
S1134670DF93F82E162F072FC42FE22E413208F0B5
S1134680BEC00E94DB0D4B015C01D0914B06DD23C3
S113469031F18091440690914506A0914606B0916F
S11346A04706892B8A2B8B2B81F30E94DB0D4090CC
S11346B04406509045066090460670904706DC011B
S11346C0CB0188199909AA09BB09481659066A0633
S11346D07B06D8F6809142060E94132390C081E0A5
S11346E080934B06E09249069FEF9093D805109271
S11346F01D069C0F90931C0680934A0690914A06CF
S11347008F2D880F892B80934A068091480681302B
S113471089F5109248060E94DB0D6B017C018091A3
S11347204A068093BB008091440690914506A0916F
S11347304606B0914706892B8A2B8B2BA9F00E9441
S1134740DB0D8090440690904506A0904606B090FC
S11347504706DC01CB018C199D09AE09BF098816F7
S11347609906AA06BB0690F18091BC0083FDD7CFC1
S113477085EC01C085EE8093BC000E94DB0D6B01CB
S11347807C0180914B06813031F5809144069091F3
S11347904506A0914606B0914706892B8A2B8B2BA0
S11347A081F30E94DB0D8090440690904506A09012
S11347B04606B0904706DC01CB018C199D09AE0971
S11347C0BF0988169906AA06BB06D8F68091420648
S11347D00E94132315C080911D068C1710F4C091FC
S11347E01D06AEE1B6E0912FE12FF02F8E2F891B2D
S11347F08C1718F48D918193F9CFDC2F01C0D0E090
S11348008D2FDF91CF911F910F91FF90EF90DF904B
S1134810CF90BF90AF909F908F907F906F905F905C
S11348204F9008954F925F926F927F928F929F92D2
S1134830AF92BF92CF92DF92EF92FF920F931F93AA
S1134840CF93DF93413208F0C6C0122FF42ED72E37
S1134850E62ED82F0E94DB0D4B015C01C0914B0664
S1134860CC2311F18091440690914506A09146060F
S1134870B0914706892B8A2B8B2B81F30E94DB0D89
S11348804090440650904506609046067090470656
S1134890DC01CB0188199909AA09BB0948165906F4
S11348A06A067B06D8F683C082E080934B060093A9
S11348B049068FEF8093D80510921D06F0921C06CE
S11348C09E2DAEE1B6E0EE2DFD2D8E2F891B8F15AA
S11348D018F481918D93F9CF10924A0690914A066B
S11348E0DD0FD92BD0934A0680914806813089F593
S11348F0109248060E94DB0D6B017C0180914A06F0
S11349008093BB008091440690914506A091460691
S1134910B0914706892B8A2B8B2BA9F00E94DB0DC3
S11349208090440690904506A0904606B0904706B5
S1134930DC01CB018C199D09AE09BF0988169906C3
S1134940AA06BB06A0F18091BC0083FDD7CF85ECFD
S113495001C085EE8093BC000E94DB0D6B017C01DD
S1134960112359F180914B06823039F58091440628
S113497090914506A0914606B0914706892B8A2B53
S11349808B2B71F30E94DB0D8090440690904506BA
S1134990A0904606B0904706DC01CB018C199D0916
S11349A0AE09BF0988169906AA06BB06C8F6809107
S11349B042060E941323C5E013C08091D8058F3F9F
S11349C079F08091D805803241F08091D805803308
S11349D031F0C4E005C0C1E003C0C2E001C0C3E0DF
S11349E08C2FDF91CF911F910F91FF90EF90DF906B
S11349F0CF90BF90AF909F908F907F906F905F907B
S1134A004F90089585ED8093BC0080914406909169
S1134A104506A0914606B09147060796A11DB11D13
S1134A2023E0B695A795979587952A95D1F7209178
S1134A30BC0024FF1CC0409144065091450660917F
S1134A40460670914706452B462B472B81F300976A
S1134A50A105B10541F025E32A95F1F7000001977E
S1134A60A109B109E4CF809142060C94132310925A
S1134A704B0608951F920F920FB60F9211242F9395
S1134A803F934F935F936F937F938F939F93AF93D2
S1134A90BF93EF93FF938091B900887F803609F428
S1134AA09EC078F5883209F45DC090F4803109F431
S1134AB056C038F4882309F4F5C0883009F44FC08F
S1134AC0F5C0883109F44EC0803209F45FC0EEC0ED
S1134AD0803409F46AC058F4803309F457C0883329
S1134AE009F0E4C08093D8050E940D23DFC080350F
S1134AF009F44FC0883509F45DC0883409F0D6C084
S1134B00D3C0883909F4C4C0A8F4883709F467C04D
S1134B1038F4883609F463C0803709F460C0C6C02D
S1134B20883809F4B5C0803909F45FC0803809F0C9
S1134B30BDC05BC0803B09F483C038F4803A09F4FB
S1134B4066C0883A09F47CC0B1C0803C09F4A4C0B2
S1134B50883C09F4A1C0883B09F487C0A7C08091B0
S1134B604A0610C090911D0680911C06981770F596
S1134B70E0911D0681E08E0F80931D06F0E0E25E59
S1134B80F94F80818093BB0085EC83C08093D80566
S1134B908BC0E0911D0681E08E0F80931D068091ED
S1134BA0BB00F0E0E25EF94F808390911D06809196
S1134BB01C066BC0E0911D0681E08E0F80931D06DC
S1134BC08091BB00F0E0E25EF94F8083809149065A
S1134BD081116AC081E08093480684EA5EC083E064
S1134BE080934B061092D905CFCF8091D90580329E
S1134BF008F04EC0E091D90581E08E0F8093D9056D
S1134C008091BB00F0E0E652FA4F8083BDCF0E9452
S1134C100D238091D905803230F4E091D905F0E07C
S1134C20E652FA4F10826091D90570E0E0913E0699
S1134C30F0913F068AED95E009951092D90536C0AA
S1134C4084E080934B061092FB051092FA05E091E4
S1134C504006F091410609958091FA05811105C03D
S1134C6081E08093FA051092FC05E091FB0581E058
S1134C708E0F8093FB05F0E0E450FA4F808180931F
S1134C80BB009091FB058091FA05981708F47CCF3E
S1134C9085E88093BC000AC085EC8093BC00109228
S1134CA04B0604C01092D8050E940225FF91EF9193
S1134CB0BF91AF919F918F917F916F915F914F9130
S1134CC03F912F910F900FBE0F901F9018950E9447
S1134CD04E0A08F481E008950E944E0A880B990B4D
S1134CE00895DB018F939F930E94B926BF91AF91E2
S1134CF0A29F800D911DA39F900DB29F900D112432
S1134D000895A1E21A2EAA1BBB1BFD010DC0AA1F08
S1134D10BB1FEE1FFF1FA217B307E407F50720F020
S1134D20A21BB30BE40BF50B661F771F881F991F9B
S1134D301A9469F760957095809590959B01AC01E4
S1134D40BD01CF010895A29FB001B39FC001A39FED
S1134D50700D811D1124911DB29F700D811D1124B0
S1134D60911D08950E94A326B7FF0895821B930BFB
S1134D7008950E94A326A59F900DB49F900DA49F13
S1134D80800D911D11240895DF93CF931F930F93EA
S1134D909A9DF02D219FF00D8B9DF00D8A9DE02DA5
S1134DA0F10D039FF00D029FE00DF11D4E9DE00DEE
S1134DB0F11D5E9DF00D4F9DF00D7F936F93BF929B
S1134DC0AF925F934F93D5010E94A3268B01AC0150
S1134DD0D7010E94A326EB01E80FF91FD6010E9418
S1134DE014272F913F91D6010E94A326C60FD71FE7
S1134DF0E81FF91FAF91BF910E9414272F913F9193
S1134E000E94A326C60FD71FE81FF91FD6010E94D0
S1134E10A326E60FF71F9801BE01CF0111240F91BD
S1134E201F91CF91DF9108950E94A326460F571F2B
S1134E30C81FD91F08F431960895E894DF93CF93DF
S1134E40FC01DB010E94A3267F936F93E9019A0181
S1134E50AC01BF93AF933F932F93DF010E94A3262E
S1134E6026F46C1B7D0B820B930B9E01EB01FC0162
S1134E700E941427AF91BF912F913F910E94142754
S1134E80BE01CF01F9012F913F91CF91DF91089598
S1134E902A153B054C055D056E057F0580079107C6
S1134EA00895EE0FFF1F0590F491E02D09940F93E0
S1134EB01F93CF93DF938230910510F482E090E04A
S1134EC0E0914E06F0914F0620E030E0A0E0B0E023
S1134ED0309719F140815181028113814817590794
S1134EE0C8F08417950769F4109731F012960C9363
S1134EF0129713961C9327C000934E0610934F06E7
S1134F0022C02115310519F04217530718F49A01EC
S1134F10BD01EF01DF01F801DBCF21153105F9F007
S1134F20281B390B2430310580F48A819B8161155B
S1134F30710521F0FB019383828304C090934F0693
S1134F4080934E06FE01329644C0FE01E20FF31F29
S1134F508193919322503109398328833AC0209157
S1134F604C0630914D06232B41F4209102013091DF
S1134F70030130934D0620934C062091000130919B
S1134F8001012115310541F42DB73EB740910401CB
S1134F9050910501241B350BE0914C06F0914D0610
S1134FA0E217F307A0F42E1B3F0B2817390778F0FC
S1134FB0AC014E5F5F4F2417350748F04E0F5F1F5B
S1134FC050934D0640934C068193919302C0E0E0C8
S1134FD0F0E0CF01DF91CF911F910F910895CF930E
S1134FE0DF93009709F481C0FC0132971382128287
S1134FF0A0914E06B0914F06109781F42081318123
S1135000820F931F20914C0630914D0628173907C3
S113501051F5F0934D06E0934C0667C0ED0120E096
S113502030E0CE17DF0740F44A815B819E014115D1
S11350305105F1F0EA01F5CFD383C2834081518158
S1135040840F951FC817D90759F488819981840F53
S1135050951F0296918380838A819B8193838283A7
S11350602115310529F4F0934F06E0934E063DC017
S1135070E901FB83EA8349915991C40FD51FEC17C9
S1135080FD0761F480819181840F951F0296E901E7
S113509099838883828193819B838A83E0E0F0E013
S11350A012968D919C911397009719F0FD01DC01E4
S11350B0F7CF8D919C9111979D012E5F3F4F820FE9
S11350C0931F20914C0630914D062817390769F437
S11350D0309729F410924F0610924E0602C01382A4
S11350E01282B0934D06A0934C06DF91CF910895A0
S11350F010E0CBEAD0E004C0FE010E9451272196C3
S10D5100CC3AD107C9F7F894FFCFA9
S113510A000050062000E602E502E402E302E2029D
S113511AE102E002A70387036703470327030703A0
S113512AE70227472D222D2206494E413233337294
S113513A657365742063686970004572726F723AA8
S113514A20747279696E6720746F2073656E6420A7
S113515A6D6F7265207468656E2074776F2062794A
S113516A7465732E206F6E6C792074776F20617466
S113517A206F6E636520616C6C6F7765642E0065C1
S113518A72726F7220696E207472616E736D6974C3
S113519A4461746128292066756E6374696F6E00B0
S11351AA4572726F723A204E6F2064617461207482
S11351BA6F207472616E736D69747400616C6172CC
S11351CA6D206C696D6974730043757272656E74CF
S11351DA20626974736E6275747300737461747592
S11351EA7320696E7075743A200074657374206351
S11351FA6F6D6D756E69636174696F6E7300526564
S113520A61646261636B204D46525F4D4F44454C65
S113521A3A2000436F6D6D756E69636174696F6ED0
S113522A206572726F72004D4350323531374644ED
S113523A2052414D2055736167653A2000206279F6
S113524A74657300436F6E66696775726174696F1A
S113525A6E206572726F72203078005265636569D8
S113526A7665643A20000D0A006E616E00696E6606
S113527A006F766600100010001000100001010093
S113528A0000000001020304050607080C101418A4
S113529A20304000093D0080841E00005A6202004A
S11352AA2D3101002D310180969800005A620200C6
S11352BA2D31011014181C202838480000000071F0
S11352CA204420720A0D20E21FEA1FFE1F0000007C
S11352DA00BE211C0B7F210B2251216B215D210071
S9030000FC
